:020000040000FA
:0600000002EF1AF01200ED
:020006001200E6
:0600080098EF18F0120051
:02000E00FDFFF4
:06001800BEEF18F012001B
:02001E000100DF
:0C0020000E0000005C0F00000200000059
:04002C00D9CFE6FF43
:10003000E1CFD9FF280EE126DE6ADD6ADECF0BF0C4
:10004000DDCF0CF0100E0B5C000E0C5811E2D950F5
:10005000060F0B6EDACF0CF0DE500B24E96EDD508C
:100060000C20EA6EEF6ADF2A010E01E3DB2AE6D7F5
:10007000BD0EF36E060EF3CFDBFF080EF36E0F0E10
:10008000F3CFDBFFA00EE66E34EC17F0E552AA0EBC
:10009000F36E050EF3CFDBFFDE6ADD6ADB50580836
:1000A00018E0DECF0BF0DDCF0CF00D6A500E0B1810
:1000B00004E1C30E0C1801E10D500BE0DF2A010E24
:1000C00001E3DB2AF4EC16F0E76E050EE7CFDBFF69
:1000D000E5D7D950060F0B6EDACF0CF0260E0BC009
:1000E000DBFF270E0CC0DBFFDE6ADD6A260EDBCFEE
:1000F0000BF0270EDBCF0CF0D950120F0D6EDACFBC
:100100000EF00D500B5C0E500C5821E2260EDBCF8A
:10011000E6FF270EDBCFE6FFF6EC17F0E552E552DF
:10012000260EDBCFE9FFDB2A270EDBCFEAFF01E358
:10013000DB2A260EDBCFE9FFDB2A270EDBCFEAFF27
:1001400001E3DB2ADF2A010E01E3DB2ACFD7DE6AD7
:10015000DD6AAA0EF36E050EF3CFDBFFDB50580805
:1001600001E186D0DECF0BF0DDCF0CF00D6A500E32
:100170000B1804E1C30E0C1801E10D5001E178D019
:10018000DF2A010E01E3DB2A050EDB50510804E0F3
:10019000050EDB50500860E1A00EE66E34EC17F05F
:1001A000E552AA0EF36E050EF3CFDBFF020EDB6AFB
:1001B000030EDB6A050EDB50580816E0020EDBCF9B
:1001C0000BF0030EDBCF0CF00D6A500E0B1804E1A0
:1001D000C30E0C1801E10D5007E0F4EC16F0E76EC9
:1001E000050EE7CFDBFFE6D7D950060F0B6EDACF4F
:1001F0000CF0260E0BC0DBFF270E0CC0DBFF260E1B
:10020000DBCF0BF0270EDBCF0CF0D950120F0D6EA9
:10021000DACF0EF00D500B5C0E500C581DE2260E7E
:10022000DBCFE6FF270EDBCFE6FFF6EC17F0E5525B
:10023000E552260EDBCFE9FFDB2A270EDBCFEAFFF4
:1002400001E3DB2A260EDBCFE9FFDB2A270EDBCF1B
:10025000EAFF01E3DB2AD3D7AA0EF36E050EF3CF34
:10026000DBFFF4EC16F0E76E050EE7CFDBFF76D789
:10027000D950160F0B6EDACF0CF0260E0BC0DBFF39
:10028000270E0CC0DBFFDE6ADD6A050EDB50080BB3
:10029000080875E1D9CFE9FFDACFEAFF0C0EEE18B6
:1002A00001E1ED506CE0260EDBCFE6FF270EDBCF41
:1002B000E6FFCBEC17F0E552E552260EDBCFE9FF67
:1002C000DB2A270EDBCFEAFF01E3DB2A260EDBCF9A
:1002D000E9FF270EDBCFEAFFE906000EEA5AEF50EE
:1002E000E66E010EE76E260EDBCFE9FF270EDBCFB1
:1002F000EAFFE750E926000EEA22E552E750EF6EEA
:10030000260EDBCFE9FF270EDBCFEAFFEF50E66ECC
:10031000260EDBCFE9FF270EDBCFEAFFE906000E52
:10032000EA5AE552E750EF6E010EE76E260EDBCF7C
:10033000E9FF270EDBCFEAFFE750E926000EEA22AD
:10034000EF50E66E260EDBCFE9FF270EDBCFEAFF8C
:10035000E552E750EF6E260EDBCFE9FFDB2A270ED2
:10036000DBCFEAFF01E3DB2ADF2A010E01E3DB2A10
:10037000F4EC16F0E76E050EE7CFDBFF86D7160E1E
:10038000DB500AE0170EDB50E00B06E0020EF36EC6
:10039000050EF3CFDBFF17D0170EDB50F00B03E198
:1003A000050EDB6A10D0170EDB50F00B100806E1CB
:1003B000010EF36E050EF3CFDBFF05D0030EF36ED7
:1003C000050EF3CFDBFFDB500B6E280EE15C03E282
:1003D00000D0E16AE552E16E0B50E552E7CFD9FF5C
:1003E0001200D9CFE6FFE1CFD9FF150EE126DE6A74
:1003F000DD6ADECF0BF0DDCF0CF0100E0B5C000ED3
:100400000C5811E2D950030F0B6EDACF0CF0DE500E
:100410000B24E96EDD500C20EA6EEF6ADF2A010E34
:1004200001E3DB2AE6D71B0EF36E030EF3CFDBFFEF
:10043000020EF36E070EF3CFDBFFA00EE66E34EC78
:1004400017F0E552AA0EF36E020EF3CFDBFFDE6A61
:10045000DD6ADB50580818E0DECF0BF0DDCF0CF082
:100460000D6A500E0B1804E1C30E0C1801E10D507B
:100470000BE0DF2A010E01E3DB2AF4EC16F0E76E55
:10048000020EE7CFDBFFE5D7D950030F0B6EDACFB3
:100490000CF0130E0BC0DBFF140E0CC0DBFFDE6A8A
:1004A000DD6A130EDBCF0BF0140EDBCF0CF0D9504E
:1004B000100F0D6EDACF0EF00D500B5C0E500C5875
:1004C00021E2130EDBCFE6FF140EDBCFE6FFF6ECE6
:1004D00017F0E552E552130EDBCFE9FFDB2A140ECD
:1004E000DBCFEAFF01E3DB2A130EDBCFE9FFDB2AD8
:1004F000140EDBCFEAFF01E3DB2ADF2A010E01E362
:10050000DB2ACFD7AA0EF36E020EF3CFDBFFF4EC9B
:1005100016F0E76E020EE7CFDBFFDB50510803E178
:10052000000E03D002D0010E00D00B6E150EE15C60
:1005300002E2E16AE552E16E0B50E552E7CFD9FFE6
:100540001200D9CFE6FFE1CFD9FF150EE126DE6A12
:10055000DD6ADECF0BF0DDCF0CF0100E0B5C000E71
:100560000C5811E2D950030F0B6EDACF0CF0DE50AD
:100570000B24E96EDD500C20EA6EEF6ADF2A010ED3
:1005800001E3DB2AE6D71B0EF36E030EF3CFDBFF8E
:10059000F36E070EF3CFDBFFA00EE66E34EC17F020
:1005A000E552AA0EF36E020EF3CFDBFFDE6ADD6AC0
:1005B000DB50580818E0DECF0BF0DDCF0CF00D6AF1
:1005C000500E0B1804E1C30E0C1801E10D500BE0A6
:1005D000DF2A010E01E3DB2AF4EC16F0E76E020ECF
:1005E000E7CFDBFFE5D7D950030F0B6EDACF0CF066
:1005F000130E0BC0DBFF140E0CC0DBFFDE6ADD6ADE
:10060000130EDBCF0BF0140EDBCF0CF0D950100F14
:100610000D6EDACF0EF00D500B5C0E500C5821E22F
:10062000130EDBCFE6FF140EDBCFE6FFF6EC17F080
:10063000E552E552130EDBCFE9FFDB2A140EDBCFC8
:10064000EAFF01E3DB2A130EDBCFE9FFDB2A140EFE
:10065000DBCFEAFF01E3DB2ADF2A010E01E3DB2A1D
:10066000CFD7AA0EF36E020EF3CFDBFFF4EC16F039
:10067000E76E020EE7CFDBFFDB50510803E1000E0F
:1006800003D002D0010E00D00B6E150EE15C02E229
:10069000E16AE552E16E0B50E552E7CFD9FF120057
:1006A000D9CFE6FFE1CFD9FF170EE126DE6ADD6A7A
:1006B000DECF0BF0DDCF0CF0100E0B5C000E0C58F3
:1006C00011E2D950050F0B6EDACF0CF0DE500B247F
:1006D000E96EDD500C20EA6EEF6ADF2A010E01E3BD
:1006E000DB2AE6D7430EF36E050EF3CFDBFF020ED7
:1006F000F36E060EF3CFDBFF070EDB6A100EF36E10
:100700000C0EF3CFDBFF0D0EDB6AA00EE66E34ECB1
:1007100017F0E552AA0EF36E040EF3CFDBFFDE6A8C
:10072000DD6ADB50580818E0DECF0BF0DDCF0CF0AF
:100730000D6A500E0B1804E1C30E0C1801E10D50A8
:100740000BE0DF2A010E01E3DB2AF4EC16F0E76E82
:10075000040EE7CFDBFFE5D7DECF0BF0DDCF0CF0EB
:100760000D6A500E0B1804E1C30E0C1801E10D5078
:1007700002E1030E6AD1D950050F0B6EDACF0CF0EF
:10078000150E0BC0DBFF160E0CC0DBFFDE6ADD6A48
:10079000150EDBCF0BF0160EDBCF0CF0D950120F7D
:1007A0000D6EDACF0EF00D500B5C0E500C5821E29E
:1007B000150EDBCFE6FF160EDBCFE6FFF6EC17F0EB
:1007C000E552E552150EDBCFE9FFDB2A160EDBCF33
:1007D000EAFF01E3DB2A150EDBCFE9FFDB2A160E69
:1007E000DBCFEAFF01E3DB2ADF2A010E01E3DB2A8C
:1007F000CFD7DE6ADD6AAA0EF36E040EF3CFDBFFFD
:10080000DB50580801E186D0DECF0BF0DDCF0CF0D5
:100810000D6A500E0B1804E1C30E0C1801E10D50C7
:1008200001E178D0DF2A010E01E3DB2A040EDB5060
:10083000510804E0040EDB50500860E1A00EE66EA3
:1008400034EC17F0E552AA0EF36E040EF3CFDBFF83
:10085000020EDB6A030EDB6A040EDB50580816E05A
:10086000020EDBCF0BF0030EDBCF0CF00D6A500E47
:100870000B1804E1C30E0C1801E10D5007E0F4EC75
:1008800016F0E76E040EE7CFDBFFE6D7D950050F71
:100890000B6EDACF0CF0150E0BC0DBFF160E0CC082
:1008A000DBFF150EDBCF0BF0160EDBCF0CF0D950B3
:1008B000120F0D6EDACF0EF00D500B5C0E500C586F
:1008C0001DE2150EDBCFE6FF160EDBCFE6FFF6ECE2
:1008D00017F0E552E552150EDBCFE9FFDB2A160EC5
:1008E000DBCFEAFF01E3DB2A150EDBCFE9FFDB2AD2
:1008F000160EDBCFEAFF01E3DB2AD3D7AA0EF36E95
:10090000040EF3CFDBFFF4EC16F0E76E040EE7CF36
:10091000DBFF76D7DECF0BF0DDCF0CF00D6A500E8B
:100920000B1804E1C30E0C1801E10D5002E1020E98
:100930008CD0DE6ADD6A040EDB50080B080876E115
:10094000D9CFE9FFDACFEAFFE80EEE1802E1030E95
:10095000ED186CE0FD0EDBCFE6FFFE0EDBCFE6FF11
:10096000CBEC17F0E552E552FD0EDBCFE9FFDB2AB9
:10097000FE0EDBCFEAFF01E3DB2AFD0EDBCFE9FF52
:10098000FE0EDBCFEAFFE906000EEA5AEF50E66EF4
:10099000010EE76EFD0EDBCFE9FFFE0EDBCFEAFFB7
:1009A000E750E926000EEA22E552E750EF6EFD0E11
:1009B000DBCFE9FFFE0EDBCFEAFFEF50E66EFD0E68
:1009C000DBCFE9FFFE0EDBCFEAFFE906000EEA5AB5
:1009D000E552E750EF6E010EE76EFD0EDBCFE9FF4B
:1009E000FE0EDBCFEAFFE750E926000EEA22EF50C9
:1009F000E66EFD0EDBCFE9FFFE0EDBCFEAFFE55230
:100A0000E750EF6EFD0EDBCFE9FFDB2AFE0EDBCFFA
:100A1000EAFF01E3DB2ADF2A010E01E3DB2AF4EC23
:100A200016F0E76E040EE7CFDBFF85D7D9CFE9FFDD
:100A3000DACFEAFFE80EEE1802E1030EED1803E14B
:100A4000010E03D002D0000E00D00B6E170EE15C39
:100A500002E2E16AE552E16E0B50E552E7CFD9FFC1
:100A60001200D9CFE6FFE1CFD9FF160EE126030E23
:100A7000E76EFC0EDBCFE9FFFD0EDBCFEAFFE750B0
:100A8000E926000EEA22030EEFCFDBFFFE0EDBCFDE
:100A90000BF0030EDB50D8800B5402E2010E27D17D
:100AA000DE6ADD6ADECF0BF0DDCF0CF0100E0B5CE2
:100AB000000E0C5811E2D950040F0B6EDACF0CF077
:100AC000DE500B24E96EDD500C20EA6EEF6ADF2A5F
:100AD000010E01E3DB2AE6D7470EF36E040EF3CFD7
:100AE000DBFF090EE76EFC0EDBCF0BF0FD0EDBCF5C
:100AF0000CF0E7500B26000E0C22FE0EDB04080D56
:100B0000F3500F010B24E96E000E0C20EA6E070E65
:100B1000EFCFDBFF0A0EE76EFC0EDBCF0BF0FD0E16
:100B2000DBCF0CF0E7500B26000E0C22FE0EDB0490
:100B3000080DF3500B24E96E000E0C20EA6E080E2F
:100B4000EFCFDBFF0B0EE76EFC0EDBCF0BF0FD0EE5
:100B5000DBCF0CF0E7500B26000E0C22FE0EDB0460
:100B6000080DF3500B24E96E000E0C20EA6E090EFE
:100B7000EFCFDBFFE76EFC0EDBCF0BF0FD0EDBCF24
:100B80000CF0E7500B26000E0C22030EDB50080D74
:100B9000F3500B24E96E000E0C20EA6E0A0EEFCF24
:100BA000DBFFE76EFC0EDBCF0BF0FD0EDBCF0CF0B6
:100BB000E7500B26000E0C22030EDB50080DF350FD
:100BC0000B24E96E000E0C20EA6E0B0EEFCFDBFF5C
:100BD000E76EFC0EDBCF0BF0FD0EDBCF0CF0E75029
:100BE0000B26000E0C22030EDB50080DF3500B24D5
:100BF000E96E000E0C20EA6E0C0EEFCFDBFFA00EAC
:100C0000E66E34EC17F0E552AA0EF36E020EF3CF47
:100C1000DBFFDE6ADD6ADB50580818E0DECF0BF040
:100C2000DDCF0CF00D6A500E0B1804E1C30E0C184A
:100C300001E10D500BE0DF2A010E01E3DB2AF4ECA9
:100C400016F0E76E020EE7CFDBFFE5D7D950040FB1
:100C50000B6EDACF0CF0140E0BC0DBFF150E0CC0C0
:100C6000DBFFDE6ADD6A140EDBCF0BF0150EDBCF87
:100C70000CF0D950110F0D6EDACF0EF00D500B5C49
:100C80000E500C5821E2140EDBCFE6FF150EDBCF21
:100C9000E6FFF6EC17F0E552E552140EDBCFE9FF64
:100CA000DB2A150EDBCFEAFF01E3DB2A140EDBCFD4
:100CB000E9FFDB2A150EDBCFEAFF01E3DB2ADF2A9F
:100CC000010E01E3DB2ACFD7AA0EF36E020EF3CF9B
:100CD000DBFFF4EC16F0E76E020EE7CFDBFFDB5034
:100CE000510803E1020E03D002D0000E00D00B6EBB
:100CF000160EE15C02E2E16AE552E16E0B50E5524C
:100D0000E7CFD9FF1200D9CFE6FFE1CFD9FF290EF7
:100D1000E126DE6ADD6ADECF0BF0DDCF0CF0100ECF
:100D20000B5C000E0C5811E2D950050F0B6EDACF98
:100D30000CF0DE500B24E96EDD500C20EA6EEF6AF9
:100D4000DF2A010E01E3DB2AE6D7420EF36E050E21
:100D5000F3CFDBFF020EF36E060EF3CFDBFF400E88
:100D6000F36E070EF3CFDBFF010EF36E080EF3CF29
:100D7000DBFF100EF36E0C0EF3CFDBFF0D0EDB6A04
:100D8000A00EE66E34EC17F0E552AA0EF36E040ED8
:100D9000F3CFDBFFDE6ADD6ADB50580818E0DECFF8
:100DA0000BF0DDCF0CF00D6A500E0B1804E1C30EF2
:100DB0000C1801E10D500BE0DF2A010E01E3DB2AE4
:100DC000F4EC16F0E76E040EE7CFDBFFE5D7DECFDD
:100DD0000BF0DDCF0CF00D6A500E0B1804E1C30EC2
:100DE0000C1801E10D5002E1010EC7D1D950050FD9
:100DF0000B6EDACF0CF0270E0BC0DBFF280E0CC0F9
:100E0000DBFFDE6ADD6A270EDBCF0BF0280EDBCFBF
:100E10000CF0D950120F0D6EDACF0EF00D500B5CA6
:100E20000E500C5821E2270EDBCFE6FF280EDBCF59
:100E3000E6FFF6EC17F0E552E552270EDBCFE9FFAF
:100E4000DB2A280EDBCFEAFF01E3DB2A270EDBCF0C
:100E5000E9FFDB2A280EDBCFEAFF01E3DB2ADF2AEA
:100E6000010E01E3DB2ACFD7DE6ADD6AAA0EF36E3C
:100E7000040EF3CFDBFFDB50580801E186D0DECF54
:100E80000BF0DDCF0CF00D6A500E0B1804E1C30E11
:100E90000C1801E10D5001E178D0DF2A010E01E3C9
:100EA000DB2A040EDB50510804E0040EDB5050082E
:100EB00060E1A00EE66E34EC17F0E552AA0EF36E78
:100EC000040EF3CFDBFF020EDB6A030EDB6A040EB7
:100ED000DB50580816E0020EDBCF0BF0030EDBCF21
:100EE0000CF00D6A500E0B1804E1C30E0C1801E152
:100EF0000D5007E0F4EC16F0E76E040EE7CFDBFFD1
:100F0000E6D7D950050F0B6EDACF0CF0270E0BC0C9
:100F1000DBFF280E0CC0DBFF270EDBCF0BF0280E0B
:100F2000DBCF0CF0D950120F0D6EDACF0EF00D5052
:100F30000B5C0E500C581DE2270EDBCFE6FF280E8F
:100F4000DBCFE6FFF6EC17F0E552E552270EDBCFDC
:100F5000E9FFDB2A280EDBCFEAFF01E3DB2A270EBD
:100F6000DBCFE9FFDB2A280EDBCFEAFF01E3DB2A38
:100F7000D3D7AA0EF36E040EF3CFDBFFF4EC16F01A
:100F8000E76E040EE7CFDBFF76D7DECF0BF0DDCFC9
:100F90000CF00D6A500E0B1804E1C30E0C1801E1A1
:100FA0000D5002E1020EE9D0DE6ADD6ADECF0BF001
:100FB000DDCF0CF0130E0B5C000E0C5811E2D95073
:100FC000150F0B6EDACF0CF0DE500B24E96EDD50FE
:100FD0000C20EA6EEF6ADF2A010E01E3DB2AE6D776
:100FE000DE6ADD6AD950150F0B6EDACF0CF0270ED2
:100FF0000BC0DBFF280E0CC0DBFF040EDB50080B20
:10100000080875E1D9CFE9FFDACFEAFF120EEE1832
:1010100001E1ED506CE0270EDBCFE6FF280EDBCFC1
:10102000E6FFCBEC17F0E552E552270EDBCFE9FFE8
:10103000DB2A280EDBCFEAFF01E3DB2A270EDBCF1A
:10104000E9FF280EDBCFEAFFE906000EEA5AEF506F
:10105000E66E010EE76E270EDBCFE9FF280EDBCF31
:10106000EAFFE750E926000EEA22E552E750EF6E6C
:10107000270EDBCFE9FF280EDBCFEAFFEF50E66E4D
:10108000270EDBCFE9FF280EDBCFEAFFE906000ED3
:10109000EA5AE552E750EF6E010EE76E270EDBCFFE
:1010A000E9FF280EDBCFEAFFE750E926000EEA222F
:1010B000EF50E66E270EDBCFE9FF280EDBCFEAFF0D
:1010C000E552E750EF6E270EDBCFE9FFDB2A280E53
:1010D000DBCFEAFF01E3DB2ADF2A010E01E3DB2A93
:1010E000F4EC16F0E76E040EE7CFDBFF86D7FD0EBB
:1010F000DBCFE9FFFE0EDBCFEAFF1B0EDBCFEFFFFE
:10110000010EE76EFD0EDBCFE9FFFE0EDBCFEAFF3F
:10111000E750E926000EEA221E0EDBCFEFFF020E9B
:10112000E76EFD0EDBCFE9FFFE0EDBCFEAFFE750F7
:10113000E926000EEA221F0EDBCFEFFF030EE76E5B
:10114000FD0EDBCFE9FFFE0EDBCFEAFFE750E9261D
:10115000000EEA22200EDBCFEFFFD9CFE9FFDACF76
:10116000EAFFE80EEE1802E1030EED1803E1030EAC
:1011700004D003D0160EDB5000D00B6E290EE15CBC
:1011800002E2E16AE552E16E0B50E552E7CFD9FF8A
:101190001200D9CFE6FFE1CFD9FF290EE126DE6AA2
:1011A000DD6ADECF0BF0DDCF0CF0100E0B5C000E15
:1011B0000C5811E2D950050F0B6EDACF0CF0DE504F
:1011C0000B24E96EDD500C20EA6EEF6ADF2A010E77
:1011D00001E3DB2AE6D7420EF36E050EF3CFDBFF09
:1011E000020EF36E060EF3CFDBFF400EF36E070E1A
:1011F000F3CFDBFF010EF36E080EF3CFDBFF100E13
:10120000F36E0C0EF3CFDBFF0D0EDB6AA00EE66E65
:1012100034EC17F0E552AA0EF36E040EF3CFDBFFA9
:10122000DE6ADD6ADB50580818E0DECF0BF0DDCF58
:101230000CF00D6A500E0B1804E1C30E0C1801E1FE
:101240000D500BE0DF2A010E01E3DB2AF4EC16F06F
:10125000E76E040EE7CFDBFFE5D7DECF0BF0DDCF87
:101260000CF00D6A500E0B1804E1C30E0C1801E1CE
:101270000D5002E1010EC7D1D950050F0B6EDACF28
:101280000CF0270E0BC0DBFF280E0CC0DBFFDE6A64
:10129000DD6A270EDBCF0BF0280EDBCF0CF0D95028
:1012A000120F0D6EDACF0EF00D500B5C0E500C5875
:1012B00021E2270EDBCFE6FF280EDBCFE6FFF6ECC0
:1012C00017F0E552E552270EDBCFE9FFDB2A280EA7
:1012D000DBCFEAFF01E3DB2A270EDBCFE9FFDB2AC6
:1012E000280EDBCFEAFF01E3DB2ADF2A010E01E350
:1012F000DB2ACFD7DE6ADD6AAA0EF36E040EF3CFC7
:10130000DBFFDB50580801E186D0DECF0BF0DDCFEC
:101310000CF00D6A500E0B1804E1C30E0C1801E11D
:101320000D5001E178D0DF2A010E01E3DB2A040E23
:10133000DB50510804E0040EDB50500860E1A00EC1
:10134000E66E34EC17F0E552AA0EF36E040EF3CFFE
:10135000DBFF020EDB6A030EDB6A040EDB5058086B
:1013600016E0020EDBCF0BF0030EDBCF0CF00D6AA4
:10137000500E0B1804E1C30E0C1801E10D5007E0EC
:10138000F4EC16F0E76E040EE7CFDBFFE6D7D9509A
:10139000050F0B6EDACF0CF0270E0BC0DBFF280E0B
:1013A0000CC0DBFF270EDBCF0BF0280EDBCF0CF0E1
:1013B000D950120F0D6EDACF0EF00D500B5C0E509F
:1013C0000C581DE2270EDBCFE6FF280EDBCFE6FF31
:1013D000F6EC17F0E552E552270EDBCFE9FFDB2AEA
:1013E000280EDBCFEAFF01E3DB2A270EDBCFE9FF84
:1013F000DB2A280EDBCFEAFF01E3DB2AD3D7AA0ED4
:10140000F36E040EF3CFDBFFF4EC16F0E76E040E80
:10141000E7CFDBFF76D7DECF0BF0DDCF0CF00D6A28
:10142000500E0B1804E1C30E0C1801E10D5002E13F
:10143000020EE9D0DE6ADD6ADECF0BF0DDCF0CF004
:10144000130E0B5C000E0C5811E2D950150F0B6EE9
:10145000DACF0CF0DE500B24E96EDD500C20EA6E82
:10146000EF6ADF2A010E01E3DB2AE6D7DE6ADD6AD6
:10147000D950150F0B6EDACF0CF0270E0BC0DBFF27
:10148000280E0CC0DBFF040EDB50080B080875E1CA
:10149000D9CFE9FFDACFEAFF120EEE1801E1ED50E5
:1014A0006CE0270EDBCFE6FF280EDBCFE6FFCBECB0
:1014B00017F0E552E552270EDBCFE9FFDB2A280EB5
:1014C000DBCFEAFF01E3DB2A270EDBCFE9FF280EA3
:1014D000DBCFEAFFE906000EEA5AEF50E66E010E96
:1014E000E76E270EDBCFE9FF280EDBCFEAFFE750E0
:1014F000E926000EEA22E552E750EF6E270EDBCF19
:10150000E9FF280EDBCFEAFFEF50E66E270EDBCFB8
:10151000E9FF280EDBCFEAFFE906000EEA5AE552A2
:10152000E750EF6E010EE76E270EDBCFE9FF280EC6
:10153000DBCFEAFFE750E926000EEA22EF50E66E25
:10154000270EDBCFE9FF280EDBCFEAFFE552E7509D
:10155000EF6E270EDBCFE9FFDB2A280EDBCFEAFF99
:1015600001E3DB2ADF2A010E01E3DB2AF4EC16F0AB
:10157000E76E040EE7CFDBFF86D7FD0EDBCFE9FF7A
:10158000FE0EDBCFEAFF1B0EDBCFEFFF010EE76E97
:10159000FD0EDBCFE9FFFE0EDBCFEAFFE750E926C9
:1015A000000EEA22220EDBCFEFFF020EE76EFD0EE9
:1015B000DBCFE9FFFE0EDBCFEAFFE750E926000EA6
:1015C000EA22230EDBCFEFFF030EE76EFD0EDBCF2B
:1015D000E9FFFE0EDBCFEAFFE750E926000EEA2224
:1015E000240EDBCFEFFFD9CFE9FFDACFEAFFE80E19
:1015F000EE1802E1030EED1803E1030E04D003D050
:10160000160EDB5000D00B6E290EE15C02E2E16A9F
:10161000E552E16E0B50E552E7CFD9FF1200D9CF6A
:10162000E6FFE1CFD9FF160EE126DE6ADD6ADECFE6
:101630000BF0DDCF0CF0100E0B5C000E0C5811E21D
:10164000D950040F0B6EDACF0CF0DE500B24E96E8C
:10165000DD500C20EA6EEF6ADF2A010E01E3DB2A7F
:10166000E6D7BA0EF36E040EF3CFDBFF010EE76E82
:10167000FD0EDBCFE9FFFE0EDBCFEAFFE750E926E8
:10168000000EEA22070EEFCFDBFF020EE76EFD0E23
:10169000DBCFE9FFFE0EDBCFEAFFE750E926000EC5
:1016A000EA22080EEFCFDBFF030EE76EFD0EDBCF65
:1016B000E9FFFE0EDBCFEAFFE750E926000EEA2243
:1016C000090EEFCFDBFF400EF36E0D0EF3CFDBFF05
:1016D000A00EE66E34EC17F0E552AA0EF36E020E81
:1016E000F3CFDBFFDE6ADD6ADB50580818E0DECF9F
:1016F0000BF0DDCF0CF00D6A500E0B1804E1C30E99
:101700000C1801E10D500BE0DF2A010E01E3DB2A8A
:10171000F4EC16F0E76E020EE7CFDBFFE5D7D95009
:10172000040F0B6EDACF0CF0140E0BC0DBFF150E9E
:101730000CC0DBFFDE6ADD6A140EDBCF0BF0150E8A
:10174000DBCF0CF0D950110F0D6EDACF0EF00D502B
:101750000B5C0E500C5821E2140EDBCFE6FF150E89
:10176000DBCFE6FFF6EC17F0E552E552140EDBCFC7
:10177000E9FFDB2A150EDBCFEAFF01E3DB2A140EBB
:10178000DBCFE9FFDB2A150EDBCFEAFF01E3DB2A23
:10179000DF2A010E01E3DB2ACFD7AA0EF36E020E79
:1017A000F3CFDBFFF4EC16F0E76E020EE7CFDBFFC2
:1017B000AA0EF36E030EF3CFDBFF59EC16F0E76EC3
:1017C000030EE7CFDBFF020EDB50510803E1010EF1
:1017D00003D002D0000E00D00B6E160EE15C02E2C8
:1017E000E16AE552E16E0B50E552E7CFD9FF1200F6
:1017F000D9CFE6FFE1CFD9FF160EE126DE6ADD6A1A
:10180000DECF0BF0DDCF0CF0100E0B5C000E0C5891
:1018100011E2D950040F0B6EDACF0CF0DE500B241E
:10182000E96EDD500C20EA6EEF6ADF2A010E01E35B
:10183000DB2AE6D7BA0EF36E040EF3CFDBFF100EF1
:10184000F36E070EF3CFDBFF010EE76EFD0EDBCF6D
:10185000E9FFFE0EDBCFEAFFE750E926000EEA22A1
:10186000070EEFCFDBFF020EE76EFD0EDBCFE9FFC9
:10187000FE0EDBCFEAFFE750E926000EEA22080E53
:10188000EFCFDBFF030EE76EFD0EDBCFE9FFFE0EB1
:10189000DBCFEAFFE750E926000EEA22090EEFCF80
:1018A000DBFF400EF36E0D0EF3CFDBFFA00EE66EF6
:1018B00034EC17F0E552AA0EF36E020EF3CFDBFF05
:1018C000DE6ADD6ADB50580818E0DECF0BF0DDCFB2
:1018D0000CF00D6A500E0B1804E1C30E0C1801E158
:1018E0000D500BE0DF2A010E01E3DB2AF4EC16F0C9
:1018F000E76E020EE7CFDBFFE5D7D950040F0B6E82
:10190000DACF0CF0140E0BC0DBFF150E0CC0DBFFA2
:10191000DE6ADD6A140EDBCF0BF0150EDBCF0CF0A8
:10192000D950110F0D6EDACF0EF00D500B5C0E502A
:101930000C5821E2140EDBCFE6FF150EDBCFE6FFDD
:10194000F6EC17F0E552E552140EDBCFE9FFDB2A87
:10195000150EDBCFEAFF01E3DB2A140EDBCFE9FF34
:10196000DB2A150EDBCFEAFF01E3DB2ADF2A010EBB
:1019700001E3DB2ACFD7AA0EF36E020EF3CFDBFF13
:10198000F4EC16F0E76E020EE7CFDBFFAA0EF36E63
:10199000030EF3CFDBFF59EC16F0E76E030EE7CF33
:1019A000DBFF020EDB50510803E1010E03D002D031
:1019B000000E00D00B6E160EE15C02E2E16AE55209
:1019C000E16E0B50E552E7CFD9FF1200D9CFE6FF09
:1019D000E1CFD9FF150EE126DE6ADD6ADECF0BF01E
:1019E000DDCF0CF0100E0B5C000E0C5811E2D9503C
:1019F000030F0B6EDACF0CF0DE500B24E96EDD50D6
:101A00000C20EA6EEF6ADF2A010E01E3DB2AE6D73B
:101A10004E0EF36E030EF3CFDBFFA00EE66E34EC3A
:101A200017F0E552AA0EF36E020EF3CFDBFFDE6A6B
:101A3000DD6ADB50580818E0DECF0BF0DDCF0CF08C
:101A40000D6A500E0B1804E1C30E0C1801E10D5085
:101A50000BE0DF2A010E01E3DB2AF4EC16F0E76E5F
:101A6000020EE7CFDBFFE5D7D950030F0B6EDACFBD
:101A70000CF0130E0BC0DBFF140E0CC0DBFFDE6A94
:101A8000DD6A130EDBCF0BF0140EDBCF0CF0D95058
:101A9000100F0D6EDACF0EF00D500B5C0E500C587F
:101AA00021E2130EDBCFE6FF140EDBCFE6FFF6ECF0
:101AB00017F0E552E552130EDBCFE9FFDB2A140ED7
:101AC000DBCFEAFF01E3DB2A130EDBCFE9FFDB2AE2
:101AD000140EDBCFEAFF01E3DB2ADF2A010E01E36C
:101AE000DB2ACFD7AA0EF36E020EF3CFDBFFF4ECA6
:101AF00016F0E76E020EE7CFDBFFDB50510803E183
:101B0000000E03D002D0010E00D00B6E150EE15C6A
:101B100002E2E16AE552E16E0B50E552E7CFD9FFF0
:101B20001200D9CFE6FFE1CFD9FF150EE126DE6A1C
:101B3000DD6ADECF0BF0DDCF0CF0100E0B5C000E7B
:101B40000C5811E2D950030F0B6EDACF0CF0DE50B7
:101B50000B24E96EDD500C20EA6EEF6ADF2A010EDD
:101B600001E3DB2AE6D74B0EF36E030EF3CFDBFF68
:101B70000B0EDB6AA00EE66E34EC17F0E552AA0EEF
:101B8000F36E020EF3CFDBFFDE6ADD6ADB5058082E
:101B900018E0DECF0BF0DDCF0CF00D6A500E0B1805
:101BA00004E1C30E0C1801E10D500BE0DF2A010E19
:101BB00001E3DB2AF4EC16F0E76E020EE7CFDBFF61
:101BC000E5D7D950030F0B6EDACF0CF0130E0BC014
:101BD000DBFF140E0CC0DBFFDE6ADD6A130EDBCF09
:101BE0000BF0140EDBCF0CF0D950100F0D6EDACFC6
:101BF0000EF00D500B5C0E500C5821E2130EDBCF93
:101C0000E6FF140EDBCFE6FFF6EC17F0E552E552E7
:101C1000130EDBCFE9FFDB2A140EDBCFEAFF01E373
:101C2000DB2A130EDBCFE9FFDB2A140EDBCFEAFF42
:101C300001E3DB2ADF2A010E01E3DB2ACFD7AA0E5C
:101C4000F36E020EF3CFDBFFF4EC16F0E76E020E3C
:101C5000E7CFDBFFDB50510803E1000E03D002D0D9
:101C6000010E00D00B6E150EE15C02E2E16AE55256
:101C7000E16E0B50E552E7CFD9FF1200D9CFE6FF56
:101C8000E1CFD9FF150EE126DE6ADD6ADECF0BF06B
:101C9000DDCF0CF0100E0B5C000E0C5811E2D95089
:101CA000030F0B6EDACF0CF0DE500B24E96EDD5023
:101CB0000C20EA6EEF6ADF2A010E01E3DB2AE6D789
:101CC0004B0EF36E030EF3CFDBFF010EF36E0B0E24
:101CD000F3CFDBFFA00EE66E34EC17F0E552AA0E50
:101CE000F36E020EF3CFDBFFDE6ADD6ADB505808CD
:101CF00018E0DECF0BF0DDCF0CF00D6A500E0B18A4
:101D000004E1C30E0C1801E10D500BE0DF2A010EB7
:101D100001E3DB2AF4EC16F0E76E020EE7CFDBFFFF
:101D2000E5D7D950030F0B6EDACF0CF0130E0BC0B2
:101D3000DBFF140E0CC0DBFFDE6ADD6A130EDBCFA7
:101D40000BF0140EDBCF0CF0D950100F0D6EDACF64
:101D50000EF00D500B5C0E500C5821E2130EDBCF31
:101D6000E6FF140EDBCFE6FFF6EC17F0E552E55286
:101D7000130EDBCFE9FFDB2A140EDBCFEAFF01E312
:101D8000DB2A130EDBCFE9FFDB2A140EDBCFEAFFE1
:101D900001E3DB2ADF2A010E01E3DB2ACFD7AA0EFB
:101DA000F36E020EF3CFDBFFF4EC16F0E76E020EDB
:101DB000E7CFDBFFDB50510803E1000E03D002D078
:101DC000010E00D00B6E150EE15C02E2E16AE552F5
:101DD000E16E0B50E552E7CFD9FF1200D9CFE6FFF5
:101DE000E1CFD9FF170EE126DE6ADD6ADECF0BF008
:101DF000DDCF0CF0100E0B5C000E0C5811E2D95028
:101E0000050F0B6EDACF0CF0DE500B24E96EDD50BF
:101E10000C20EA6EEF6ADF2A010E01E3DB2AE6D727
:101E2000120EF36E050EF3CFDBFF080EDB6A090E10
:101E3000DB68A00EE66E34EC17F0E552AA0EF36EE6
:101E4000040EF3CFDBFFDE6ADD6ADB50580818E0D2
:101E5000DECF0BF0DDCF0CF00D6A500E0B1804E155
:101E6000C30E0C1801E10D500BE0DF2A010E01E357
:101E7000DB2AF4EC16F0E76E040EE7CFDBFFE5D7C4
:101E8000DECF0BF0DDCF0CF00D6A500E0B1804E125
:101E9000C30E0C1801E10D5002E1010E68D1D950BA
:101EA000050F0B6EDACF0CF0150E0BC0DBFF160E14
:101EB0000CC0DBFFDE6ADD6A150EDBCF0BF0160E01
:101EC000DBCF0CF0D950120F0D6EDACF0EF00D50A3
:101ED0000B5C0E500C5821E2150EDBCFE6FF160E00
:101EE000DBCFE6FFF6EC17F0E552E552150EDBCF3F
:101EF000E9FFDB2A160EDBCFEAFF01E3DB2A150E32
:101F0000DBCFE9FFDB2A160EDBCFEAFF01E3DB2A9A
:101F1000DF2A010E01E3DB2ACFD7DE6ADD6AAA0ED3
:101F2000F36E040EF3CFDBFFDB50580801E186D0DF
:101F3000DECF0BF0DDCF0CF00D6A500E0B1804E174
:101F4000C30E0C1801E10D5001E178D0DF2A010E1B
:101F500001E3DB2A040EDB50510804E0040EDB50E1
:101F6000500860E1A00EE66E34EC17F0E552AA0EC0
:101F7000F36E040EF3CFDBFF020EDB6A030EDB6AA7
:101F8000040EDB50580816E0020EDBCF0BF0030EF8
:101F9000DBCF0CF00D6A500E0B1804E1C30E0C18C9
:101FA00001E10D5007E0F4EC16F0E76E040EE7CF08
:101FB000DBFFE6D7D950050F0B6EDACF0CF0150E0C
:101FC0000BC0DBFF160E0CC0DBFF150EDBCF0BF0DA
:101FD000160EDBCF0CF0D950120F0D6EDACF0EF0CB
:101FE0000D500B5C0E500C581DE2150EDBCFE6FFBA
:101FF000160EDBCFE6FFF6EC17F0E552E552150EB4
:10200000DBCFE9FFDB2A160EDBCFEAFF01E3DB2A99
:10201000150EDBCFE9FFDB2A160EDBCFEAFF01E36B
:10202000DB2AD3D7AA0EF36E040EF3CFDBFFF4EC5A
:1020300016F0E76E040EE7CFDBFF76D7DECF0BF0AE
:10204000DDCF0CF00D6A500E0B1804E1C30E0C1816
:1020500001E10D5002E1020E8AD0DE6ADD6A040E53
:10206000DB50080B080875E1D9CFE9FFDACFEAFFAA
:10207000400EEE1801E1ED506CE0FD0EDBCFE6FF07
:10208000FE0EDBCFE6FFCBEC17F0E552E552FD0E7E
:10209000DBCFE9FFDB2AFE0EDBCFEAFF01E3DB2A21
:1020A000FD0EDBCFE9FFFE0EDBCFEAFFE906000EF7
:1020B000EA5AEF50E66E010EE76EFD0EDBCFE9FF48
:1020C000FE0EDBCFEAFFE750E926000EEA22E552DA
:1020D000E750EF6EFD0EDBCFE9FFFE0EDBCFEAFF30
:1020E000EF50E66EFD0EDBCFE9FFFE0EDBCFEAFF21
:1020F000E906000EEA5AE552E750EF6E010EE76E70
:10210000FD0EDBCFE9FFFE0EDBCFEAFFE750E9264D
:10211000000EEA22EF50E66EFD0EDBCFE9FFFE0E69
:10212000DBCFEAFFE552E750EF6EFD0EDBCFE9FFB4
:10213000DB2AFE0EDBCFEAFF01E3DB2ADF2A010EFA
:1021400001E3DB2AF4EC16F0E76E040EE7CFDBFFC9
:1021500086D7D9CFE9FFDACFEAFF400EEE1801E1CA
:10216000ED5003E1030E03D002D0000E00D00B6E41
:10217000170EE15C02E2E16AE552E16E0B50E552B6
:06218000E7CFD9FF1200B9
:0A2186008188030EE66E10EC1AF0DB
:10219000E5528198030EE66E10EC1AF0E552818844
:1021A0000A0EE66EEBEC19F0E552839C010EE66E2A
:1021B000C5EC19F0E552E66AC5EC19F0E552330EAC
:1021C000E66EC5EC19F0E552838C839C0D0EE66E2D
:1021D000C5EC19F0E552E66AC5EC19F0E552080EB7
:1021E000E66EC5EC19F0E552838C839C0E0EE66E0C
:1021F000C5EC19F0E552E66AC5EC19F0E552010E9E
:10220000E66EC5EC19F0E552838C839C0F0EE66EEA
:10221000C5EC19F0E552E66AC5EC19F0E552220E5C
:10222000E66EC5EC19F0E552838C839C100EE66EC9
:10223000C5EC19F0E552E66AC5EC19F0E552E66A1C
:10224000C5EC19F0E552838C839C110EE66EC5EC4B
:1022500019F0E552E66AC5EC19F0E552E66AC5ECFC
:1022600019F0E552838C839C2D0EE66EC5EC19F0B7
:10227000E552E66AC5EC19F0E552060EE66EC5ECCD
:1022800019F0E552838C839C2E0EE66EC5EC19F096
:10229000E552E66AC5EC19F0E552040EE66EC5ECAF
:1022A00019F0E552838C839C2F0EE66EC5EC19F075
:1022B000E552E66AC5EC19F0E552E66AC5EC19F09C
:1022C000E552838C839C030EE66EC5EC19F0E55253
:1022D000E66AC5EC19F0E5523F0EE66EC5EC19F062
:1022E000E552838C839C040EE66EC5EC19F0E55232
:1022F000E66AC5EC19F0E552E66AC5EC19F0E5525C
:10230000838C1200818A030EE66E10EC1AF0E552FF
:10231000819A030EE66E10EC1AF0E552818A0A0EDD
:10232000E66EEBEC19F0E5520F01C80E586F596FCD
:10233000839E100EE66EC5EC19F0E55259CFE6FF0C
:10234000C5EC19F0E552838E839E110EE66EC5EC46
:1023500019F0E55258CFE6FFC5EC19F0E552838E2F
:10236000839E120EE66EC5EC19F0E552A00EE66EE5
:10237000C5EC19F0E552838E1200D9CFE6FFE1CF0C
:10238000D9FF81A22AD0010E0F6EFD0EDBCFE9FF2F
:10239000FE0EDBCFEAFF0F501F0BEECF0BF0EECFA0
:1023A0000CF0EECF0DF0EECF0EF007E0D8900B362C
:1023B0000C360D360E36E806F9E10B80FD0EDBCF4C
:1023C000E9FFFE0EDBCFEAFF0BC0EEFF0CC0EEFF15
:1023D0000DC0EEFF0EC0EEFF26D0FD0EDBCFE9FFF5
:1023E000FE0EDBCFEAFFEECF0BF0EECF0CF0EECF20
:1023F0000DF0EFCF0EF0010E1F0B07E0D8900B365B
:102400000C360D360E36E806F9E1FD0EDBCFE9FF9E
:10241000FE0EDBCFEAFF0BC0EEFF0CC0EEFF0DC0DF
:10242000EEFF0EC0EEFFFB0EDBCFE9FFFC0EDBCFB5
:10243000EAFFEE2A000EED22FB0EDBCFE9FFFC0ED9
:10244000DBCFEAFF200EEE1801E1ED5002E1010EB4
:1024500002D0000E00D0E552E7CFD9FF12000F01E5
:102460000051040B14E0FD0E0F015C1902E1FF0E98
:102470005D190DE182700F01016B026B036B046B40
:10248000FC0ECF6E200ECE6ECD80F09600950F0123
:102490000051080B19E0FD0E0F015C1902E1FF0E5F
:1024A0005D1912E10F01009781A208D00F01FE0E05
:1024B0005C6F5D69FD0ECF6ECE6A06D0CD90F08662
:1024C0000F01FD0E5C6F5D690F010051080B19E0F3
:1024D000FE0E0F015C1902E1FF0E5D1912E10F0102
:1024E000009781A208D00F015C695D69FB0ECF6E79
:1024F000800ECE6E06D0CD90F0860F01FD0E5C6F83
:102500005D690F010051080B1FE00F015C1D01E127
:102510005D1D1AE10F01009781A20DD00F015C6BC8
:102520005D6BF0860F010095010E5B6FEE0ECF6EB6
:10253000E90ECE6E09D0F0960F01FC0E5C6F5D695E
:10254000FB0ECF6E800ECE6E0F010051080B0FE018
:10255000FC0E0F015C1902E1FF0E5D1908E10F018D
:102560000097CD90F0860F01FD0E5C6F5D690F0145
:102570005B510DE00051080B0AE00097CD90F0860A
:1025800000950F01FD0E5C6F5D690F015B6B0051E3
:10259000040B0DE00F01800E5D1509E10F015B6B6F
:1025A000CD80FB0ECF6E800ECE6E009700950F0192
:1025B0000051080B3FE00F01800E5D153BE10F015C
:1025C0000097010E5B6FEE0ECF6EE90ECE6E5C0EC5
:1025D000E66E0F0EE66E010EE66E0F0EE66ECDDEB7
:1025E000E552E552E552E552000A19E0010A01E020
:1025F00017D00F01FD0E5C6F5D69CD90F0860F0165
:102600005B6B01CFE6FF02CFE6FF03CFE6FF04CF0F
:10261000E6FF11D8E552E552E552E5520BD00AD05B
:102620000F01016B026B036B046B0F015C6B5D6B45
:10263000CD90F0861200D9CFE6FFE1CFD9FFFB0E97
:10264000DBCF05F0FC0EDBCF06F0FD0EDBCF07F095
:10265000FE0EDBCF08F0F70E051808E1080E06188D
:1026600005E1F50E071802E10A0E081801E18AD00B
:10267000B70E051808E1480E061805E1F50E071813
:1026800002E10A0E081801E17BD0570E051808E197
:10269000A80E061805E1F50E071802E10A0E081843
:1026A0006DE02F0E051808E1D00E061805E1F50EB5
:1026B000071802E10A0E08184FE0310E051808E16C
:1026C000CE0E061805E1F50E071802E10A0E0818ED
:1026D00041E0B10E051808E14E0E061805E1F50EB1
:1026E000071802E10A0E081833E0710E051808E118
:1026F0008E0E061805E1F50E071802E10A0E0818FD
:102700001DE0350E051808E1CA0E061805E1F50EA4
:10271000071802E10A0E08180FE0170E051808E165
:10272000E80E061805E1F50E071802E10A0E081872
:1027300001E031D046D841D059D83FD0E6EC0CF07A
:10274000010E0F01536F546B516B030E526F35D056
:102750008CD833D0B7D831D00F01575108E157CFBB
:10276000E6FF56DAE5520F01010E576F06D057CF3C
:10277000E6FF4EDAE5520F01576B1FD02CDA1DD061
:102780000DDA1BD0110EE66E0F0EE66EEEEC0EF0BB
:10279000E552E55212D0D950FB0FE96EFF0EDA2058
:1027A000EA6EFB0EEECFDBFFFC0EEECFDBFFFD0E85
:1027B000EECFDBFFFE0EEECFDBFFE552E7CFD9FF1A
:1027C000120016EC00F001080CE1A1EC02F0C0D8F8
:1027D0000F010089516B030E526F010E536F546B42
:1027E00004D0F1EC01F00F010099120016EC00F09A
:1027F00001080BE1A1EC02F0ABD80F010089516B8D
:10280000030E526F010E536F546B0F01515102E1D1
:10281000020E521922E0515102E1010E521916E046
:10282000515102E1030E521901E01ED0000EE66E76
:10283000020EE66E53CFE6FF31EC05F0E552E552AD
:10284000E5520F01516B010E526F0ED091EC0DF05D
:102850000F01516B020E526F07D03EEC0EF00F01CC
:10286000516B010E526F00D012000F0100A929D048
:1028700005510B6E0C6A54510C18E8AE02D00C34A2
:1028800004D00B50535D0C50545904E2532B000EEE
:10289000542303D0010E536F546B515102E1030EC8
:1028A00052190FE0000EE66E020EE66E53CFE6FF01
:1028B00031EC05F0E552E552E5520F01516B010E86
:1028C000526F12000F0100A942D0515102E1030ED4
:1028D000521931E00A511FE1030E0B5D1CE2010E9B
:1028E000531901E1545104E10505536F546B03D0B2
:1028F0005307000E545B000EE66E020EE66E53CFD9
:10290000E6FF31EC05F0E552E552E5520F01516B5F
:10291000010E526F0FD0000EE66E020EE66E53CF20
:10292000E6FF31EC05F0E552E552E5520F01516B3F
:10293000010E526F0CD0010E531901E1545104E104
:102940000505536F546B03D05307000E545B120000
:10295000D9CFE6FFE1CFD9FF080EE126DE6ADE6AB5
:10296000DE6ADD6ADD52DD52010EF36E040EF3CF36
:10297000DBFF050EDB6A060EDB6A070EDB6A040E60
:10298000DBCF0BF0050EDBCF0CF0060EDBCF0DF02E
:10299000070EDBCF0EF00B500C100D100E102EE0BA
:1029A000D9CFE9FFDACFEAFFD890030EEB50000A47
:1029B00008E6320EEE5C000EEE58000EEE58000EE9
:1029C000EE581CE2000EE66E020EE66E50EC03F0CE
:1029D000E552E5520B6E040E0BC0DBFF050EDB6A01
:1029E000060EDB6A070EDB6AD9CFE9FFDACFEAFF12
:1029F000EE2A000EEE22EE22EE22C1D7040EDBCF2D
:102A00000BF0050EDBCF0CF0060EDBCF0DF0070E42
:102A1000DBCF0EF00B500C100D100E1001E07ED02D
:102A20000F01009D020103510F01556F566B55CFE9
:102A30000BF056CF0CF00D6A0E6A0CAE02D00D688A
:102A40000E68040E0BC0DBFF050E0CC0DBFF060E8C
:102A50000DC0DBFF070E0EC0DBFFD950040FE96E7F
:102A6000DACFEAFF030EE76ED890EF36010EEB36B1
:102A7000020EEB36030EEB36E706F6E1D950040FF3
:102A8000E96EDACFEAFF090EEE26000EEE22EE2204
:102A9000EE22040EDBCFE9FF050EDBCFEAFF000ECE
:102AA000E926020EEA22EFCF06FF010E0B6E0C6A3A
:102AB0000D6A0E6AD950040FE96EDACFEAFFEE50C4
:102AC0000B26EE500C22EE500D22EE500E22000E80
:102AD0000B24E96E020E0C20EA6EEFCF07FF020E08
:102AE0000B6E0C6A0D6A0E6AD950040FE96EDACFCC
:102AF000EAFFEE500B26EE500C22EE500D22EE5067
:102B00000E22000E0B24E96E020E0C20EA6EEFCFAF
:102B100008FF010E0F015525056F02D00F01008D32
:102B2000080EE15C02E2E16AE552E16EE552E7CFB0
:102B3000D9FF12000F0100A330D0009300A92DD0BF
:102B40000D0EE66E0F0EE66E83EC06F0E552E552D2
:102B50000F015A6F090EE66E0F0EE66EC9EC08F013
:102B6000E552E5520F01515102E1010E521915E1F2
:102B70000951536F546B130E5A5D06E0140E5A5DE3
:102B800003E0150E5A5D09E1E6EC0CF0010E0F01B1
:102B9000536F546B516B030E526F1200030E0F01F3
:102BA00058275927839E100EE66EC5EC19F0E552A2
:102BB00059CFE6FFC5EC19F0E552838E839E110EC6
:102BC000E66EC5EC19F0E55258CFE6FFC5EC19F0FA
:102BD000E552838E1200030E0F01585F595F839EEA
:102BE000100EE66EC5EC19F0E55259CFE6FFC5ECC4
:102BF00019F0E552838E839E110EE66EC5EC19F036
:102C0000E55258CFE6FFC5EC19F0E552838E12006D
:102C1000D9CFE6FFE1CFD9FFFE0EDB500DE0839E5A
:102C2000120EE66EC5EC19F0E552A10EE66EC5EC8B
:102C300019F0E552838E0CD0839E120EE66EC5EC21
:102C400019F0E552A00EE66EC5EC19F0E552838E40
:102C5000E552E7CFD9FF12002FEC12F00F0100ABC5
:102C60000AD076DE0F010089516B030E526F010E00
:0C2C7000536F546B009B00AD5DDF120041
:042C7C00869886961A
:102C800086808682868483868388838A8380020EF8
:102C9000E66EEBEC19F0E5528390640EE66E10ECF4
:102CA0001AF0E55283800A0EE66EEBEC19F0E5525D
:102CB0001200D9CFE6FFE1CFD9FFE65296689768B8
:102CC000869886868694869286808388010EE66E34
:102CD00010EC1AF0E552839800008450DF6E838870
:102CE00086988696DF5000D0E552E552E7CFD9FFAF
:102CF0001200D9CFE6FFE1CFD9FFE6529668976878
:102D0000869886868694868286908388010EE66EF3
:102D100010EC1AF0E552839800008450DF6E83882F
:102D200086988696DF5000D0E552E552E7CFD9FF6E
:102D30001200D9CFE6FFE1CFD9FF966A976A86984D
:102D40008686869486828690838AFE0EDB50846E09
:102D5000010EE66E10EC1AF0E552839A0000838AA9
:102D600086988696E552E7CFD9FF1200D9CFE6FFC5
:102D7000E1CFD9FFE6529668976883888698868661
:102D80008694868286808388010EE66E10EC1AF0A7
:102D9000E552839800008450DF6E8388869886967B
:102DA000DF5000D0E552E552E7CFD9FF1200D9CF6E
:102DB000E6FFE1CFD9FF966A976A86988686869461
:102DC00086828680838AFE0EDB50846E010EE66E5C
:102DD00010EC1AF0E552839A0000838A8698869652
:102DE000E552E7CFD9FF1200D9CFE6FFE1CFD9FFF7
:102DF000E65296689768869886868684868286805C
:102E00008388010EE66E10EC1AF0E55283980000FC
:102E10008450DF6E838886988696DF5000D0E55216
:102E2000E552E7CFD9FF1200D9CFE6FFE1CFD9FFB6
:102E3000E65296689768868886968684868286900B
:102E40008388010EE66E10EC1AF0E55283980000BC
:102E50008450DF6E838886988696DF5000D0E552D6
:102E6000E552E7CFD9FF1200D9CFE6FFE1CFD9FF76
:102E7000966A976A86988686868486828680838A02
:102E8000FE0EDB50846E010EE66E10EC1AF0E55279
:102E9000839A0000838A86988696E552E7CFD9FF09
:102EA0001200D9CFE6FFE1CFD9FFE65296689768C6
:102EB000869886868684869286808388010EE66E52
:102EC00010EC1AF0E552839800008450DF6E83887E
:102ED00086988696DF5000D0E552E552E7CFD9FFBD
:102EE0001200D9CFE6FFE1CFD9FF966A976A86989C
:102EF0008686868486928680838AFE0EDB50846E68
:102F0000010EE66E10EC1AF0E552839A0000838AF7
:102F100086988696E552E7CFD9FF1200D9CFE6FF13
:102F2000E1CFD9FFE65296689768869886868684B0
:102F3000869286908388010EE66E10EC1AF0E552B8
:102F4000839800008450DF6E838886988696DF50D1
:102F500000D0E552E552E7CFD9FF1200D9CFE6FF06
:102F6000E1CFD9FF966A976A86988686868486928C
:102F70008690838AFE0EDB50846E010EE66E10ECA6
:102F80001AF0E552839A0000838A86988696E55265
:102F9000E7CFD9FF1200D9CFE6FFE1CFD9FF96687E
:102FA000976883888698868686948692869083988A
:102FB0000000010EE76EFD0EDBCFE9FFFE0EDBCF5A
:102FC000EAFFE750E926000EEA2284CFEFFFFD0E6C
:102FD000DBCFE9FFFE0EDBCFEAFF85CFEFFF869860
:102FE00086968388E552E7CFD9FF1200D9CFE6FF56
:102FF000E1CFD9FF966A976A8698868686948692EC
:103000008690838AFD0EDBCFE9FFFE0EDBCFEAFF61
:10301000EF50846E010EE76EFD0EDBCFE9FFFE0E72
:10302000DBCFEAFFE750E926000EEA22EF50856E7B
:10303000839A0000838A86988696E552E7CFD9FF67
:103040001200D9CFE6FFE1CFD9FF966A976A86884A
:103050008696868486828690838AFE0EDB50846EF6
:10306000010EE66E10EC1AF0E552839A0000838A96
:1030700086988696E552E7CFD9FF1200D9CFE6FFB2
:10308000E1CFD9FFE652966897688698868686844F
:10309000868286908388010EE66E10EC1AF0E55267
:1030A000839800008450DF6E838886988696DF5070
:1030B00000D0E552E552E7CFD9FF1200D9CFE6FFA5
:1030C000E1CFD9FF966A976A86988686868486823B
:1030D0008690838AFE0EDB50846E010EE66E10EC45
:1030E0001AF0E552839A0000838A86988696E55204
:1030F000E7CFD9FF1200D9CFE6FFE1CFD9FF966A1B
:10310000976A86988686869486928680838AFE0E43
:10311000DB50846E010EE66E10EC1AF0E552839AD5
:103120000000838A86988696E552E7CFD9FF120081
:10313000D8CFE4FFE0CFE4FFE46EDACFE4FFE2CFE4
:10314000DAFFE6529EA603D00F0100819E969EA054
:1031500007D00F010087E90ECF6E600ECE6E9E90F5
:10316000F0A003D00F010085F090E552E5CFDAFF23
:10317000E550E5CFE0FFE5CFD8FF1000D8CFE4FF62
:10318000E0CFE4FFE46EDACFE4FFE2CFDAFFE6520D
:10319000F2A407D00F010083B30ED76EB40ED66E23
:1031A000F294E552E5CFDAFFE550E5CFE0FFE5CF59
:1031B000D8FF1000D9CFE6FFE1CFD9FF040EE126FA
:1031C0008CEC19F09FEC19F0B3EC19F0BDEC19F090
:1031D0009490A9EC19F00F010091009300970095CD
:1031E000008B008D020EDB6A030EDB6A020EDBCF62
:1031F0000BF0030EDBCF0CF0D8900C5004E6020E5F
:103200000B5C000E0C580AE2E66AEBEC19F0E55292
:10321000020EDB2A030E01E3DB2AE8D73EEC16F0B0
:10322000020EDB6A030EDB6A020EDBCF0BF0030E2D
:10323000DBCF0CF0D8900C5004E63A0E0B5C000E7D
:103240000C580AE2E66AEBEC19F0E552020EDB2AB2
:10325000030E01E3DB2AE8D7C3EC10F082EC11F097
:103260002CEC16F0FDD7040EE15C02E2E16AE552B7
:0A327000E16EE552E7CFD9FF12002E
:06327A001E0EF66E000EB0
:10328000F76E000EF86E00010900F550656F090039
:10329000F550666F03E1656701D03DD00900F55038
:1032A000606F0900F550616F0900F550626F090009
:1032B0000900F550E96E0900F550EA6E09000900B1
:1032C0000900F550636F0900F550646F09000900AB
:1032D000F6CF67F0F7CF68F0F8CF69F060C0F6FF7F
:1032E00061C0F7FF62C0F8FF0001635302E164535D
:1032F00007E00900F550EE6E6307F8E26407F9D7BE
:1033000067C0F6FF68C0F7FF69C0F8FF00016507F6
:08331000000E665BBFD712003E
:08331800989098929894989601
:10332000989895909596958295849598959A93807E
:103330000F0EC16E9398939A9382948E1200949676
:10334000949A9488959C959E838C838EC78CC68A0C
:103350001200D08EF28EF28CF086F08CF18A9F866D
:103360009E969D861200D59CD59AD596D580D582FD
:10337000D584F28AF194D58E1200CD8ECD92CD8A6D
:0A338000CD889D809F80CD90120043
:06338A00D9CFE6FFE1CF00
:10339000D9FF0F010091FE0EDB50C96E00A1FED7D0
:1033A0000091E552E7CFD9FF1200D9CFE6FFE1CF78
:1033B000D9FF0F010091C96A00A1FED70091FD0E4F
:1033C000DBCFE9FFFE0EDBCFEAFFC9CFEFFFE5520F
:0633D000E7CFD9FF120057
:0A33D600FF0EE350116EEF0E01D060
:1033E000F30EE76EE72EF2EF19F00C0E106EE76A9F
:1033F000E72EF8EF19F0102EF7EF19F0112EF0EF7D
:0434000019F01200AD
:0C3404001EEE00F02EEE00F0F86A0A9CAC
:103410003DEC19F003EC00F0DAEC18F0FBD71200E9
:10342000FF0EE350E84E1200000000D000D000D0A4
:06343000E82EFAD712009D
:0A34360000EE00F00F0EEE6AEA62ED
:04344000FDD71200A2
:020000040030CA
:0100010006F8
:010003001EDE
:010006008178
:00000001FF
