:020000040000FA
:0600000061EF3CF012006C
:020006000000F8
:06000800A4EF29F0120034
:02000E00257556
:0100100000EF
:020012001200DA
:020014001200D8
:06001800BBEF30F0120006
:02001E008280DE
:100020008290400EE66EC4EC3BF0E552E66AC4EC0A
:100030003BF0E552E00EE66EC4EC3BF0E552F00E0C
:10004000E66EC4EC3BF0E552E66AC4EC3BF0E552E8
:10005000E66AC4EC3BF0E552E66AC4EC3BF0E552DC
:10006000F00EE66EC4EC3BF0E552E66AC4EC3BF001
:10007000E552F00EE66EC4EC3BF0E552E66AC4ECE5
:100080003BF0E552F00EE66EC4EC3BF0E552080E94
:10009000E66EC4EC3BF0E552080EE66EC4EC3BF0B5
:1000A000E552E66AC4EC3BF0E552E66AC4EC3BF08C
:1000B000E552E66AC4EC3BF0E552E66AC4EC3BF07C
:1000C000E552E66AC4EC3BF0E552E66AC4EC3BF06C
:1000D000E5521F0EE66EC4EC3BF0E552E66AC4EC56
:1000E0003BF0E552828082808290420EE66EC4EC44
:1000F0003BF0E552E66AC4EC3BF0E552E66AC4EC3C
:100100003BF0E552E66AC4EC3BF0E552E66AC4EC2B
:100110003BF0E552E66AC4EC3BF0E552E66AC4EC1B
:100120003BF0E552E66AC4EC3BF0E552E66AC4EC0B
:100130003BF0E552E66AC4EC3BF0E552E66AC4ECFB
:100140003BF0E552E66AC4EC3BF0E552080EE66E81
:10015000C4EC3BF0E552080EE66EC4EC3BF0E55211
:10016000E66AC4EC3BF0E552E66AC4EC3BF0E552CB
:10017000E66AC4EC3BF0E552E66AC4EC3BF0E552BB
:10018000E66AC4EC3BF0E552E66AC4EC3BF0E552AB
:10019000E66AC4EC3BF0E552E66AC4EC3BF0E5529B
:1001A000828082808290440EE66EC4EC3BF0E55281
:1001B000E66AC4EC3BF0E552F00EE66EC4EC3BF0B0
:1001C000E552E668C4EC3BF0E552E66AC4EC3BF06D
:1001D000E552E66AC4EC3BF0E552E66AC4EC3BF05B
:1001E000E5520F0EE66EC4EC3BF0E552E66AC4EC55
:1001F0003BF0E5520F0EE66EC4EC3BF0E552E66ACA
:10020000C4EC3BF0E5520F0EE66EC4EC3BF0E55259
:10021000080EE66EC4EC3BF0E552080EE66EC4EC48
:100220003BF0E552E66AC4EC3BF0E552E66AC4EC0A
:100230003BF0E552E66AC4EC3BF0E552E66AC4ECFA
:100240003BF0E552E66AC4EC3BF0E552E66AC4ECEA
:100250003BF0E552E66AC4EC3BF0E552E66AC4ECDA
:100260003BF0E552828012008188030EE66E7DEC41
:100270003CF0E5528198030EE66E7DEC3CF0E552D1
:1002800081880A0EE66E12EC3CF0E552839C010E6A
:10029000E66EC4EC3BF0E552E66AC4EC3BF0E55296
:1002A000330EE66EC4EC3BF0E552838C839C0D0E5E
:1002B000E66EC4EC3BF0E552E66AC4EC3BF0E55276
:1002C000080EE66EC4EC3BF0E552838C839C0E0E68
:1002D000E66EC4EC3BF0E552E66AC4EC3BF0E55256
:1002E000010EE66EC4EC3BF0E552838C839C0F0E4E
:1002F000E66EC4EC3BF0E552E66AC4EC3BF0E55236
:10030000220EE66EC4EC3BF0E552838C839C100E0B
:10031000E66EC4EC3BF0E552E66AC4EC3BF0E55215
:10032000E66AC4EC3BF0E552838C839C110EE66ECA
:10033000C4EC3BF0E552E66AC4EC3BF0E552E66AF9
:10034000C4EC3BF0E552838C839C2D0EE66EC4EC2E
:100350003BF0E552E66AC4EC3BF0E552060EE66E71
:10036000C4EC3BF0E552838C839C2E0EE66EC4EC0D
:100370003BF0E552E66AC4EC3BF0E552040EE66E53
:10038000C4EC3BF0E552838C839C2F0EE66EC4ECEC
:100390003BF0E552E66AC4EC3BF0E552E66AC4EC99
:1003A0003BF0E552838C839C030EE66EC4EC3BF07D
:1003B000E552E66AC4EC3BF0E5523F0EE66EC4EC53
:1003C0003BF0E552838C839C040EE66EC4EC3BF05C
:1003D000E552E66AC4EC3BF0E552E66AC4EC3BF059
:1003E000E552838C1200818A030EE66E7DEC3CF0B0
:1003F000E552819A030EE66E7DEC3CF0E552818A6F
:100400000A0EE66E12EC3CF0E5520001C30EAC6F32
:100410000001C30EAD6F839E100EE66EC4EC3BF080
:10042000E552ADC0E6FFC4EC3BF0E552838E839EFF
:10043000110EE66EC4EC3BF0E552ACC0E6FFC4EC36
:100440003BF0E552838E839E120EE66EC4EC3BF0C9
:10045000E552A00EE66EC4EC3BF0E552838E12002E
:100460000101080E286F0101296B01012A6B0101AE
:10047000400E2C6F0101120E2D6F0101FE0E2E6F2A
:1004800001012F6B0101420E306F0101120E316F1D
:100490000101EE0E326F0101E40E336F0101080E0F
:1004A000386F0101396B01013A6B0101400E3C6F5D
:1004B0000101120E3D6F0101FD0E3E6F01013F6B08
:1004C0000101420E406F0101120E416F0101CD0E7C
:1004D000426F01015A0E436F0101080E486F01017E
:1004E000496B01014A6B0101400E4C6F0101120E74
:1004F0004D6F0101F70E4E6F01014F6B0101420E6E
:10050000506F0101120E516F0101EF0E526F010188
:10051000450E536F0101080E586F0101596B01011F
:100520005A6B0101400E5C6F0101120E5D6F0101FB
:100530000F0E5E6F01015F6B0101420E606F0101E2
:10054000120E616F0101950E626F0101A20E636FC1
:100550000101080E686F0101696B01016A6B0101FD
:10056000400E6C6F0101120E6D6F0101FB0E6E6F7C
:1005700001016F6B0101420E706F0101120E716F6C
:10058000010172690101220E736F0101080E986F5B
:100590000101996B01019A6B0101400E9C6F0101F1
:1005A000120E9D6F0101FE0E9E6F01019F6B0101F6
:1005B000420EA06F0101120EA16F0101EE0EA26F9B
:1005C0000101E40EA36F0101080EA86F0101A96BE0
:1005D0000101AA6B0101400EAC6F0101120EAD6F5B
:1005E0000101FD0EAE6F0101AF6B0101420EB06F54
:1005F0000101120EB16F0101CD0EB26F01015A0E51
:10060000B36F0101080EB86F0101B96B0101BA6B3C
:100610000101400EBC6F0101120EBD6F0101F70E0A
:10062000BE6F0101BF6B0101420EC06F0101120ECE
:10063000C16F0101EF0EC26F0101450EC36F0101D1
:10064000080EC86F0101C96B0101CA6B0101400EA0
:10065000CC6F0101120ECD6F01010F0ECE6F0101A3
:10066000CF6B0101420ED06F0101120ED16F01015B
:10067000950ED26F0101A20ED36F0101080ED86F43
:100680000101D96B0101DA6B0101400EDC6F010140
:10069000120EDD6F0101FB0EDE6F0101DF6B010148
:1006A000420EE06F0101120EE16F0101E2690101EA
:1006B000220EE36F0101080E786F0101796B0101D1
:1006C0007A6B0101400E7C6F0101120E7D6F0101FA
:1006D0007E6901017F6B0101420E806F0101120EE4
:1006E000816F01018269010183690101080E886F30
:1006F0000101896B01018A6B0101450E8C6F0101BB
:100700000E0E8D6F01018E6B01018F6B0101450E85
:10071000906F0101100E916F0101926B0101936BBB
:10072000120000016051800A63E0C00A55E0600ACF
:1007300047E0300A39E0180A2BE00C0A1DE0060AEF
:100740000FE0030A01E060D00001160E616FE80EB1
:10075000626FF50E636F0A0E646F0001606B56D016
:100760000001700E616F8E0E626FF50E636F0A0EE0
:10077000646F0001606B4AD00001B00E616F4E0ED5
:10078000626FF50E636F0A0E646F0001606B3ED0FE
:100790000001300E616FCE0E626FF50E636F0A0EB0
:1007A000646F0001606B32D000016E0E616F900EBD
:1007B000626FF50E636F0A0E646F0001606B26D0E6
:1007C0000001560E616FA80E626FF50E636F0A0E80
:1007D000646F0001606B1AD00001B60E616F480EA5
:1007E000626FF50E636F0A0E646F0001606B0ED0CE
:1007F0000001340E616FCA0E626FF50E636F0A0E50
:10080000646F0001606B02D060C060F0610EE66E44
:10081000000EE66E0AD8E552E552010805E1000136
:10082000616B626B636B646B1200D9CFE6FFE1CF43
:10083000D9FFFD0EDBCFE9FFFE0EDBCFEAFFEECFE7
:1008400014F0EECF15F0EECF16F0EFCF17F06E0EDE
:10085000141808E1900E151805E1F50E161802E1BE
:100860000A0E171801E17ED1B60E141808E1480EE1
:10087000151805E1F50E161802E10A0E171801E128
:100880006CD1560E141808E1A80E151805E1F50EE6
:10089000161802E10A0E171801E15AD12E0E14188B
:1008A00008E1D00E151805E1F50E161802E10A0E42
:1008B000171801E137D1300E141808E1CE0E1518C3
:1008C00005E1F50E161802E10A0E171801E11AD11A
:1008D000B00E141808E14E0E151805E1F50E1618A5
:1008E00002E10A0E171801E1FDD0700E141808E19C
:1008F0008E0E151805E1F50E161802E10A0E1718EE
:1009000039E0340E141808E1CA0E151805E1F50E89
:10091000161802E10A0E171827E0F60E141808E15F
:10092000080E151805E1F50E161802E10A0E171843
:1009300012E0160E141808E1E80E151805E1F50E80
:10094000161802E10A0E171801E011D10101FFA7E4
:1009500032D9010E2CD17CEC37F00001A56B030ECF
:10096000A66F010E24D121D10101FFA7FFDA010EEC
:100970001ED11BD10101FFB7B2D000CFE6FF01CFDE
:10098000E6FF02CFE6FF03CFE6FF04CFE6FF05CF89
:10099000E6FF06CFE6FF07CFE6FF08CFE6FF09CF69
:1009A000E6FF0ACFE6FF0BCFE6FF0CCFE6FF0DCF49
:1009B000E6FF0ECFE6FF0FCFE6FF10CFE6FF11CF29
:1009C000E6FF12CFE6FF13CFE6FF14CFE6FF15CF09
:1009D000E6FF16CFE6FF17CFE6FF18CFE6FF19CFE9
:1009E000E6FF1ACFE6FF1BCFE6FF1CCFE6FF1DCFC9
:1009F000E6FF1ECFE6FF1FCFE6FF20CFE6FF21CFA9
:100A0000E6FF22CFE6FF23CFE6FF24CFE6FF25CF88
:100A1000E6FF26CFE6FF27CFE6FF28CFE6FF29CF68
:100A2000E6FF2ACFE6FF2BCFE6FF2CCFE6FF2DCF48
:100A3000E6FF2ECFE6FF2FCFE6FF30CFE6FF31CF28
:100A4000E6FF32CFE6FF33CFE6FF34CFE6FF35CF08
:100A5000E6FF36CFE6FF37CFE6FF38CFE6FF39CFE8
:100A6000E6FF3ACFE6FF3BCFE6FF3CCFE6FF3DCFC8
:100A7000E6FF3ECFE6FF3FCFE6FF6AEC25F0146EBF
:100A8000400EE15E14500101020E006F0101016B86
:100A90000101026B0101020E036F0101120E046FCE
:100AA0000101A10E056F010E0001A76FA86B0001E7
:100AB000A56B030EA66F0101B3690101A3690101D2
:100AC000A10EA26F0101950EB26F0101C50EC26F9A
:100AD0000101980ED26F0101E2690101FF85010E4B
:100AE00066D063D001010101FF51080B08E100014C
:100AF000A55102E1020EA61902E019EC0BF0010E5D
:100B000056D053D001010101FF51080B08E100014B
:100B1000A55102E1020EA61902E023EC0CF0010E31
:100B200046D043D00001AB5109E1ABC0E6FF72EC07
:100B300012F0E5520001010EAB6F07D0ABC0E6FF2B
:100B400072EC12F0E5520001AB6B010E30D02DD0EB
:100B500068EC11F0010E2BD028D040EC11F0010E02
:100B600026D023D0C5EC12F0010E21D01ED0FD0EF0
:100B7000DBCFE9FFFE0EDBCFEAFFEECF14F0EECFC6
:100B800015F0EECF16F0EFCF17F0FD0EDBCFE9FF3B
:100B9000FE0EDBCFEAFF14C0EEFF15C0EEFF16C05D
:100BA000EEFF17C0EEFF000E02D0000E00D0E5529F
:100BB000E7CFD9FF120000CFE6FF01CFE6FF02CF5B
:100BC000E6FF03CFE6FF04CFE6FF05CFE6FF06CF43
:100BD000E6FF07CFE6FF08CFE6FF09CFE6FF0ACF23
:100BE000E6FF0BCFE6FF0CCFE6FF0DCFE6FF0ECF03
:100BF000E6FF0FCFE6FF10CFE6FF11CFE6FF12CFE3
:100C0000E6FF13CFE6FF14CFE6FF15CFE6FF16CFC2
:100C1000E6FF17CFE6FF18CFE6FF19CFE6FF1ACFA2
:100C2000E6FF1BCFE6FF1CCFE6FF1DCFE6FF1ECF82
:100C3000E6FF1FCFE6FF20CFE6FF21CFE6FF22CF62
:100C4000E6FF23CFE6FF24CFE6FF25CFE6FF26CF42
:100C5000E6FF27CFE6FF28CFE6FF29CFE6FF2ACF22
:100C6000E6FF2BCFE6FF2CCFE6FF2DCFE6FF2ECF02
:100C7000E6FF2FCFE6FF30CFE6FF31CFE6FF32CFE2
:100C8000E6FF33CFE6FF34CFE6FF35CFE6FF36CFC2
:100C9000E6FF37CFE6FF38CFE6FF39CFE6FF3ACFA2
:100CA000E6FF3BCFE6FF3CCFE6FF3DCFE6FF3ECF82
:100CB000E6FF3FCFE6FFE8EC15F0146E400EE15E74
:100CC0001450010801E0A5D000CFE6FF01CFE6FFF8
:100CD00002CFE6FF03CFE6FF04CFE6FF05CFE6FF36
:100CE00006CFE6FF07CFE6FF08CFE6FF09CFE6FF16
:100CF0000ACFE6FF0BCFE6FF0CCFE6FF0DCFE6FFF6
:100D00000ECFE6FF0FCFE6FF10CFE6FF11CFE6FFD5
:100D100012CFE6FF13CFE6FF14CFE6FF15CFE6FFB5
:100D200016CFE6FF17CFE6FF18CFE6FF19CFE6FF95
:100D30001ACFE6FF1BCFE6FF1CCFE6FF1DCFE6FF75
:100D40001ECFE6FF1FCFE6FF20CFE6FF21CFE6FF55
:100D500022CFE6FF23CFE6FF24CFE6FF25CFE6FF35
:100D600026CFE6FF27CFE6FF28CFE6FF29CFE6FF15
:100D70002ACFE6FF2BCFE6FF2CCFE6FF2DCFE6FFF5
:100D80002ECFE6FF2FCFE6FF30CFE6FF31CFE6FFD5
:100D900032CFE6FF33CFE6FF34CFE6FF35CFE6FFB5
:100DA00036CFE6FF37CFE6FF38CFE6FF39CFE6FF95
:100DB0003ACFE6FF3BCFE6FF3CCFE6FF3DCFE6FF75
:100DC0003ECFE6FF3FCFE6FFBCEC18F0146E400EBE
:100DD000E15E14500101FE890001A56B030EA66FB0
:100DE000010E0001A76FA86B01014369010133697E
:100DF0000101DD0E326F0101900E426F0101880E7C
:100E0000526F0101C40E626F01017269CFEC0DF0E7
:100E1000ACD000CFE6FF01CFE6FF02CFE6FF03CF65
:100E2000E6FF04CFE6FF05CFE6FF06CFE6FF07CFDC
:100E3000E6FF08CFE6FF09CFE6FF0ACFE6FF0BCFBC
:100E4000E6FF0CCFE6FF0DCFE6FF0ECFE6FF0FCF9C
:100E5000E6FF10CFE6FF11CFE6FF12CFE6FF13CF7C
:100E6000E6FF14CFE6FF15CFE6FF16CFE6FF17CF5C
:100E7000E6FF18CFE6FF19CFE6FF1ACFE6FF1BCF3C
:100E8000E6FF1CCFE6FF1DCFE6FF1ECFE6FF1FCF1C
:100E9000E6FF20CFE6FF21CFE6FF22CFE6FF23CFFC
:100EA000E6FF24CFE6FF25CFE6FF26CFE6FF27CFDC
:100EB000E6FF28CFE6FF29CFE6FF2ACFE6FF2BCFBC
:100EC000E6FF2CCFE6FF2DCFE6FF2ECFE6FF2FCF9C
:100ED000E6FF30CFE6FF31CFE6FF32CFE6FF33CF7C
:100EE000E6FF34CFE6FF35CFE6FF36CFE6FF37CF5C
:100EF000E6FF38CFE6FF39CFE6FF3ACFE6FF3BCF3C
:100F0000E6FF3CCFE6FF3DCFE6FF3ECFE6FF3FCF1B
:100F1000E6FFF3EC17F0146E400EE15E1450010191
:100F2000FE990101FE8D010143690101336901014F
:100F3000C50E326F0101980E426F0101900E526F83
:100F40000101CD0E626F010172690101020E006F95
:100F50000101016B0101026B0101020E036F01012E
:100F6000120E046F0101A10E056F12000101020EA5
:100F7000006F0101016B0101026B0101020E036FA1
:100F80000101120E046F0101A10E056F00CFE6FFF3
:100F900001CFE6FF02CFE6FF03CFE6FF04CFE6FF77
:100FA00005CFE6FF06CFE6FF07CFE6FF08CFE6FF57
:100FB00009CFE6FF0ACFE6FF0BCFE6FF0CCFE6FF37
:100FC0000DCFE6FF0ECFE6FF0FCFE6FF10CFE6FF17
:100FD00011CFE6FF12CFE6FF13CFE6FF14CFE6FFF7
:100FE00015CFE6FF16CFE6FF17CFE6FF18CFE6FFD7
:100FF00019CFE6FF1ACFE6FF1BCFE6FF1CCFE6FFB7
:101000001DCFE6FF1ECFE6FF1FCFE6FF20CFE6FF96
:1010100021CFE6FF22CFE6FF23CFE6FF24CFE6FF76
:1010200025CFE6FF26CFE6FF27CFE6FF28CFE6FF56
:1010300029CFE6FF2ACFE6FF2BCFE6FF2CCFE6FF36
:101040002DCFE6FF2ECFE6FF2FCFE6FF30CFE6FF16
:1010500031CFE6FF32CFE6FF33CFE6FF34CFE6FFF6
:1010600035CFE6FF36CFE6FF37CFE6FF38CFE6FFD6
:1010700039CFE6FF3ACFE6FF3BCFE6FF3CCFE6FFB6
:101080003DCFE6FF3ECFE6FF3FCFE6FFE8EC15F0B1
:10109000146E400EE15E1450010801E086D000CFCE
:1010A000E6FF01CFE6FF02CFE6FF03CFE6FF04CF66
:1010B000E6FF05CFE6FF06CFE6FF07CFE6FF08CF46
:1010C000E6FF09CFE6FF0ACFE6FF0BCFE6FF0CCF26
:1010D000E6FF0DCFE6FF0ECFE6FF0FCFE6FF10CF06
:1010E000E6FF11CFE6FF12CFE6FF13CFE6FF14CFE6
:1010F000E6FF15CFE6FF16CFE6FF17CFE6FF18CFC6
:10110000E6FF19CFE6FF1ACFE6FF1BCFE6FF1CCFA5
:10111000E6FF1DCFE6FF1ECFE6FF1FCFE6FF20CF85
:10112000E6FF21CFE6FF22CFE6FF23CFE6FF24CF65
:10113000E6FF25CFE6FF26CFE6FF27CFE6FF28CF45
:10114000E6FF29CFE6FF2ACFE6FF2BCFE6FF2CCF25
:10115000E6FF2DCFE6FF2ECFE6FF2FCFE6FF30CF05
:10116000E6FF31CFE6FF32CFE6FF33CFE6FF34CFE5
:10117000E6FF35CFE6FF36CFE6FF37CFE6FF38CFC5
:10118000E6FF39CFE6FF3ACFE6FF3BCFE6FF3CCFA5
:10119000E6FF3DCFE6FF3ECFE6FF3FCFE6FFBCECEC
:1011A00018F0146E400EE15E14500101FEB90CD02F
:1011B000CFEC0DF00101FE890001A56B030EA66FB7
:1011C000010E0001A76FA86B0101FEBD31D2000125
:1011D000A55102E1020EA61901E173D10001A5514A
:1011E00002E1010EA61901E1BCD00001A55102E106
:1011F000030EA61901E01CD200CFE6FF01CFE6FFE7
:1012000002CFE6FF03CFE6FF04CFE6FF05CFE6FF00
:1012100006CFE6FF07CFE6FF08CFE6FF09CFE6FFE0
:101220000ACFE6FF0BCFE6FF0CCFE6FF0DCFE6FFC0
:101230000ECFE6FF0FCFE6FF10CFE6FF11CFE6FFA0
:1012400012CFE6FF13CFE6FF14CFE6FF15CFE6FF80
:1012500016CFE6FF17CFE6FF18CFE6FF19CFE6FF60
:101260001ACFE6FF1BCFE6FF1CCFE6FF1DCFE6FF40
:101270001ECFE6FF1FCFE6FF20CFE6FF21CFE6FF20
:1012800022CFE6FF23CFE6FF24CFE6FF25CFE6FF00
:1012900026CFE6FF27CFE6FF28CFE6FF29CFE6FFE0
:1012A0002ACFE6FF2BCFE6FF2CCFE6FF2DCFE6FFC0
:1012B0002ECFE6FF2FCFE6FF30CFE6FF31CFE6FFA0
:1012C00032CFE6FF33CFE6FF34CFE6FF35CFE6FF80
:1012D00036CFE6FF37CFE6FF38CFE6FF39CFE6FF60
:1012E0003ACFE6FF3BCFE6FF3CCFE6FF3DCFE6FF40
:1012F0003ECFE6FF3FCFE6FF000EE66E070EE66E3E
:10130000A7C0E6FF8EEC1BF0146E430EE15E145096
:101310000001A56B010EA66F0101020E006F010115
:10132000016B0101026B0101020E036F0101120E3C
:10133000046F0101A00E056F0101B3690101A369EA
:101340000101980EA26F0101970EB26F0101880E84
:10135000C26F0101A40ED26F0101E2690101FF8594
:1013600067D100CFE6FF01CFE6FF02CFE6FF03CF54
:10137000E6FF04CFE6FF05CFE6FF06CFE6FF07CF87
:10138000E6FF08CFE6FF09CFE6FF0ACFE6FF0BCF67
:10139000E6FF0CCFE6FF0DCFE6FF0ECFE6FF0FCF47
:1013A000E6FF10CFE6FF11CFE6FF12CFE6FF13CF27
:1013B000E6FF14CFE6FF15CFE6FF16CFE6FF17CF07
:1013C000E6FF18CFE6FF19CFE6FF1ACFE6FF1BCFE7
:1013D000E6FF1CCFE6FF1DCFE6FF1ECFE6FF1FCFC7
:1013E000E6FF20CFE6FF21CFE6FF22CFE6FF23CFA7
:1013F000E6FF24CFE6FF25CFE6FF26CFE6FF27CF87
:10140000E6FF28CFE6FF29CFE6FF2ACFE6FF2BCF66
:10141000E6FF2CCFE6FF2DCFE6FF2ECFE6FF2FCF46
:10142000E6FF30CFE6FF31CFE6FF32CFE6FF33CF26
:10143000E6FF34CFE6FF35CFE6FF36CFE6FF37CF06
:10144000E6FF38CFE6FF39CFE6FF3ACFE6FF3BCFE6
:10145000E6FF3CCFE6FF3DCFE6FF3ECFE6FF3FCFC6
:10146000E6FF2EEC26F0146E400EE15E14500001F3
:10147000A56B020EA66F0101020E006F0101016B48
:101480000101026B0101020E036F0101120E046FD4
:101490000101A10E056F0101B3690101580EA36F8F
:1014A0000101880EA26F0101C70EB26F0101A10EEA
:1014B000C26F0101900ED26F0101E2690101FF8547
:1014C000B7D000CFE6FF01CFE6FF02CFE6FF03CFA4
:1014D000E6FF04CFE6FF05CFE6FF06CFE6FF07CF26
:1014E000E6FF08CFE6FF09CFE6FF0ACFE6FF0BCF06
:1014F000E6FF0CCFE6FF0DCFE6FF0ECFE6FF0FCFE6
:10150000E6FF10CFE6FF11CFE6FF12CFE6FF13CFC5
:10151000E6FF14CFE6FF15CFE6FF16CFE6FF17CFA5
:10152000E6FF18CFE6FF19CFE6FF1ACFE6FF1BCF85
:10153000E6FF1CCFE6FF1DCFE6FF1ECFE6FF1FCF65
:10154000E6FF20CFE6FF21CFE6FF22CFE6FF23CF45
:10155000E6FF24CFE6FF25CFE6FF26CFE6FF27CF25
:10156000E6FF28CFE6FF29CFE6FF2ACFE6FF2BCF05
:10157000E6FF2CCFE6FF2DCFE6FF2ECFE6FF2FCFE5
:10158000E6FF30CFE6FF31CFE6FF32CFE6FF33CFC5
:10159000E6FF34CFE6FF35CFE6FF36CFE6FF37CFA5
:1015A000E6FF38CFE6FF39CFE6FF3ACFE6FF3BCF85
:1015B000E6FF3CCFE6FF3DCFE6FF3ECFE6FF3FCF65
:1015C000E6FF000EE66E070EE66EF00EE66E010E0A
:1015D000E66E01EC1DF0146E440EE15E1450000145
:1015E000A56B010EA66F0101020E006F0101016BD8
:1015F0000101026B0101020E036F0101120E046F63
:101600000101A00E056F0101B3690101A369010188
:10161000980EA26F0101970EB26F0101880EC26F82
:101620000101A40ED26F0101E2690101FF8500D022
:10163000120001010101FE51100B01E103D1010172
:101640000101FE51400B01E0FDD00101E805146EDF
:10165000156A0001A8511518E8AE02D0153404D05F
:101660001450A75D1550A85906E20001A72B000EE3
:101670000001A82304D0010E0001A76FA86B000190
:10168000A55102E1030EA61901E191D000CFE6FFBA
:1016900001CFE6FF02CFE6FF03CFE6FF04CFE6FF70
:1016A00005CFE6FF06CFE6FF07CFE6FF08CFE6FF50
:1016B00009CFE6FF0ACFE6FF0BCFE6FF0CCFE6FF30
:1016C0000DCFE6FF0ECFE6FF0FCFE6FF10CFE6FF10
:1016D00011CFE6FF12CFE6FF13CFE6FF14CFE6FFF0
:1016E00015CFE6FF16CFE6FF17CFE6FF18CFE6FFD0
:1016F00019CFE6FF1ACFE6FF1BCFE6FF1CCFE6FFB0
:101700001DCFE6FF1ECFE6FF1FCFE6FF20CFE6FF8F
:1017100021CFE6FF22CFE6FF23CFE6FF24CFE6FF6F
:1017200025CFE6FF26CFE6FF27CFE6FF28CFE6FF4F
:1017300029CFE6FF2ACFE6FF2BCFE6FF2CCFE6FF2F
:101740002DCFE6FF2ECFE6FF2FCFE6FF30CFE6FF0F
:1017500031CFE6FF32CFE6FF33CFE6FF34CFE6FFEF
:1017600035CFE6FF36CFE6FF37CFE6FF38CFE6FFCF
:1017700039CFE6FF3ACFE6FF3BCFE6FF3CCFE6FFAF
:101780003DCFE6FF3ECFE6FF3FCFE6FF000EE66E21
:10179000070EE66EA7C0E6FF8EEC1BF0146E430E3C
:1017A000E15E14500001A56B010EA66F4BD0A7C0DF
:1017B000E6FFA8C0E6FF0E0EE66E000EE66E000E17
:1017C000E66EB00EE66E000EE66ED6EC39F0146EE4
:1017D000070EE15E1450B00EE66E000EE66E91EC60
:1017E0003BF0E552E552F3CF14F0F4CF15F0020EC2
:1017F000141801E115500FE1B0C0E6FF14EC14F02D
:10180000E5520101B36FB1C0E6FF14EC14F0E552EC
:101810000101A36F0AD00101410EB36FB0C0E6FF12
:1018200014EC14F0E5520101A36F0101A26901015A
:10183000B2690101C2690101D2690101FA0EE26FC8
:101840000101FF85120001010101FE51100B01E1B0
:10185000A5D101010101FE51400B01E09FD1000122
:10186000A55102E1030EA61901E13CD10101ED51A0
:1018700001E0A7D0030E0101EE5D01E3A2D000015B
:10188000010EA71901E1A85106E10101E8050001D7
:10189000A76FA86B05D00001A707000E0001A85B89
:1018A00000CFE6FF01CFE6FF02CFE6FF03CFE6FF62
:1018B00004CFE6FF05CFE6FF06CFE6FF07CFE6FF42
:1018C00008CFE6FF09CFE6FF0ACFE6FF0BCFE6FF22
:1018D0000CCFE6FF0DCFE6FF0ECFE6FF0FCFE6FF02
:1018E00010CFE6FF11CFE6FF12CFE6FF13CFE6FFE2
:1018F00014CFE6FF15CFE6FF16CFE6FF17CFE6FFC2
:1019000018CFE6FF19CFE6FF1ACFE6FF1BCFE6FFA1
:101910001CCFE6FF1DCFE6FF1ECFE6FF1FCFE6FF81
:1019200020CFE6FF21CFE6FF22CFE6FF23CFE6FF61
:1019300024CFE6FF25CFE6FF26CFE6FF27CFE6FF41
:1019400028CFE6FF29CFE6FF2ACFE6FF2BCFE6FF21
:101950002CCFE6FF2DCFE6FF2ECFE6FF2FCFE6FF01
:1019600030CFE6FF31CFE6FF32CFE6FF33CFE6FFE1
:1019700034CFE6FF35CFE6FF36CFE6FF37CFE6FFC1
:1019800038CFE6FF39CFE6FF3ACFE6FF3BCFE6FFA1
:101990003CCFE6FF3DCFE6FF3ECFE6FF3FCFE6FF81
:1019A000000EE66E070EE66EA7C0E6FF8EEC1BF09B
:1019B000146E430EE15E14500001A56B010EA66F7C
:1019C00090D000CFE6FF01CFE6FF02CFE6FF03CFC6
:1019D000E6FF04CFE6FF05CFE6FF06CFE6FF07CF21
:1019E000E6FF08CFE6FF09CFE6FF0ACFE6FF0BCF01
:1019F000E6FF0CCFE6FF0DCFE6FF0ECFE6FF0FCFE1
:101A0000E6FF10CFE6FF11CFE6FF12CFE6FF13CFC0
:101A1000E6FF14CFE6FF15CFE6FF16CFE6FF17CFA0
:101A2000E6FF18CFE6FF19CFE6FF1ACFE6FF1BCF80
:101A3000E6FF1CCFE6FF1DCFE6FF1ECFE6FF1FCF60
:101A4000E6FF20CFE6FF21CFE6FF22CFE6FF23CF40
:101A5000E6FF24CFE6FF25CFE6FF26CFE6FF27CF20
:101A6000E6FF28CFE6FF29CFE6FF2ACFE6FF2BCF00
:101A7000E6FF2CCFE6FF2DCFE6FF2ECFE6FF2FCFE0
:101A8000E6FF30CFE6FF31CFE6FF32CFE6FF33CFC0
:101A9000E6FF34CFE6FF35CFE6FF36CFE6FF37CFA0
:101AA000E6FF38CFE6FF39CFE6FF3ACFE6FF3BCF80
:101AB000E6FF3CCFE6FF3DCFE6FF3ECFE6FF3FCF60
:101AC000E6FF000EE66E070EE66EA7C0E6FF8EECA0
:101AD0001BF0146E430EE15E14500001A56B010E65
:101AE000A66F5CD00001010EA71901E1A85106E123
:101AF0000101E8050001A76FA86B05D00001A70749
:101B0000000E0001A85BA7C0E6FFA8C0E6FF0E0E0E
:101B1000E66E000EE66E000EE66EB00EE66E000E8D
:101B2000E66ED6EC39F0146E070EE15E1450B00E7E
:101B3000E66E000EE66E91EC3BF0E552E552F3CF17
:101B400014F0F4CF15F0020E141801E115500FE156
:101B5000B0C0E6FF14EC14F0E5520101B36FB1C060
:101B6000E6FF14EC14F0E5520101A36F0AD0010165
:101B7000410EB36FB0C0E6FF14EC14F0E552010162
:101B8000A36F0101A2690101B2690101C2690101EA
:101B9000D2690101FA0EE26F0101FF851200D9CF6F
:101BA000E6FFE1CFD9FF080EE126DE6ADE6ADE6AD3
:101BB000DD6ADD52DD52010EF36E040EF3CFDBFF62
:101BC000050EDB6A060EDB6A070EDB6A010143695C
:101BD000010133690101DD0E326F0101900E426F88
:101BE0000101880E526F0101C40E626F010172691A
:101BF000040EDBCF14F0050EDBCF15F0060EDBCFA5
:101C000016F0070EDBCF17F0145015101610171032
:101C100001E1B1D0D9CFE9FFDACFEAFFD890030EC6
:101C2000EB50000A08E6320EEE5C000EEE58000E95
:101C3000EE58000EEE5801E39ED000CFE6FF01CF34
:101C4000E6FF02CFE6FF03CFE6FF04CFE6FF05CFB6
:101C5000E6FF06CFE6FF07CFE6FF08CFE6FF09CF96
:101C6000E6FF0ACFE6FF0BCFE6FF0CCFE6FF0DCF76
:101C7000E6FF0ECFE6FF0FCFE6FF10CFE6FF11CF56
:101C8000E6FF12CFE6FF13CFE6FF14CFE6FF15CF36
:101C9000E6FF16CFE6FF17CFE6FF18CFE6FF19CF16
:101CA000E6FF1ACFE6FF1BCFE6FF1CCFE6FF1DCFF6
:101CB000E6FF1ECFE6FF1FCFE6FF20CFE6FF21CFD6
:101CC000E6FF22CFE6FF23CFE6FF24CFE6FF25CFB6
:101CD000E6FF26CFE6FF27CFE6FF28CFE6FF29CF96
:101CE000E6FF2ACFE6FF2BCFE6FF2CCFE6FF2DCF76
:101CF000E6FF2ECFE6FF2FCFE6FF30CFE6FF31CF56
:101D0000E6FF32CFE6FF33CFE6FF34CFE6FF35CF35
:101D1000E6FF36CFE6FF37CFE6FF38CFE6FF39CF15
:101D2000E6FF3ACFE6FF3BCFE6FF3CCFE6FF3DCFF5
:101D3000E6FF3ECFE6FF3FCFE6FF000EE66E070E62
:101D4000E66E9EEC19F0156E420EE15E1550146EB3
:101D5000040E14C0DBFF050EDB6A060EDB6A070EFD
:101D6000DB6AD9CFE9FFDACFEAFFEE2A000EEE22D6
:101D7000EE22EE223DD70701020501E081D00101EC
:101D8000FE9D070103510001A96FAA6BA9C014F0C1
:101D9000AAC015F0166A176A15AE02D01668176841
:101DA000040E14C0DBFF050E15C0DBFF060E16C0C7
:101DB000DBFF070E17C0DBFFD950040FE96EDACF47
:101DC000EAFF030EE76ED890EF36010EEB36020EF7
:101DD000EB36030EEB36E706F6E1D950040FE96E59
:101DE000DACFEAFF090EEE26000EEE22000EEE22FA
:101DF000000EEE22040EDBCFE9FF050EDBCFEAFF7B
:101E0000000EE926070EEA22EFCFE9F1010E146E6B
:101E1000156A166A176AD950040FE96EDACFEAFF1D
:101E2000EE501426EE501522EE501622EE501722D8
:101E3000000E1424E96E070E1520EA6EEFCFEAF1CA
:101E4000020E146E156A166A176AD950040FE96EED
:101E5000DACFEAFFEE501426EE501522EE5016228D
:101E6000EE501722000E1424E96E070E1520EA6EBC
:101E7000EFCFEBF1010E0001A9250101E86F02D0BF
:101E80000101FE8D0101FEAD15D00101EC0E436F85
:101E90000101E40E336F0101C40E326F0101EF0E38
:101EA000426F0101A10E526F0101930E626F010199
:101EB000726916D00101640EB36F0101EF0EA36FBA
:101EC0000101A10EA26F0101930EB26F0101C50EB7
:101ED000C26F01018C0ED26F0101E2690101FF8521
:101EE000080EE15C02E2E16AE552E16EE552E7CFFD
:101EF000D9FF12000101FEA3C2D10101FE9301012D
:101F0000FEA9BDD100CFE6FF01CFE6FF02CFE6FF7D
:101F100003CFE6FF04CFE6FF05CFE6FF06CFE6FFDF
:101F200007CFE6FF08CFE6FF09CFE6FF0ACFE6FFBF
:101F30000BCFE6FF0CCFE6FF0DCFE6FF0ECFE6FF9F
:101F40000FCFE6FF10CFE6FF11CFE6FF12CFE6FF7F
:101F500013CFE6FF14CFE6FF15CFE6FF16CFE6FF5F
:101F600017CFE6FF18CFE6FF19CFE6FF1ACFE6FF3F
:101F70001BCFE6FF1CCFE6FF1DCFE6FF1ECFE6FF1F
:101F80001FCFE6FF20CFE6FF21CFE6FF22CFE6FFFF
:101F900023CFE6FF24CFE6FF25CFE6FF26CFE6FFDF
:101FA00027CFE6FF28CFE6FF29CFE6FF2ACFE6FFBF
:101FB0002BCFE6FF2CCFE6FF2DCFE6FF2ECFE6FF9F
:101FC0002FCFE6FF30CFE6FF31CFE6FF32CFE6FF7F
:101FD00033CFE6FF34CFE6FF35CFE6FF36CFE6FF5F
:101FE00037CFE6FF38CFE6FF39CFE6FF3ACFE6FF3F
:101FF0003BCFE6FF3CCFE6FF3DCFE6FF3ECFE6FF1F
:102000003FCFE6FFF00EE66E010EE66E5BEC1EF0D3
:10201000146E420EE15E14500001AE6F00CFE6FF79
:1020200001CFE6FF02CFE6FF03CFE6FF04CFE6FFD6
:1020300005CFE6FF06CFE6FF07CFE6FF08CFE6FFB6
:1020400009CFE6FF0ACFE6FF0BCFE6FF0CCFE6FF96
:102050000DCFE6FF0ECFE6FF0FCFE6FF10CFE6FF76
:1020600011CFE6FF12CFE6FF13CFE6FF14CFE6FF56
:1020700015CFE6FF16CFE6FF17CFE6FF18CFE6FF36
:1020800019CFE6FF1ACFE6FF1BCFE6FF1CCFE6FF16
:102090001DCFE6FF1ECFE6FF1FCFE6FF20CFE6FFF6
:1020A00021CFE6FF22CFE6FF23CFE6FF24CFE6FFD6
:1020B00025CFE6FF26CFE6FF27CFE6FF28CFE6FFB6
:1020C00029CFE6FF2ACFE6FF2BCFE6FF2CCFE6FF96
:1020D0002DCFE6FF2ECFE6FF2FCFE6FF30CFE6FF76
:1020E00031CFE6FF32CFE6FF33CFE6FF34CFE6FF56
:1020F00035CFE6FF36CFE6FF37CFE6FF38CFE6FF36
:1021000039CFE6FF3ACFE6FF3BCFE6FF3CCFE6FF15
:102110003DCFE6FF3ECFE6FF3FCFE6FFEC0EE66E9B
:10212000010EE66EE9EC20F0146E420EE15E1450F2
:102130000001A55102E1010EA61901E0A0D00101A4
:10214000EC510001A76FA86B130E0001AE5D09E012
:10215000140E0001AE5D05E0150E0001AE5D01E05C
:102160008ED000CFE6FF01CFE6FF02CFE6FF03CF20
:10217000E6FF04CFE6FF05CFE6FF06CFE6FF07CF79
:10218000E6FF08CFE6FF09CFE6FF0ACFE6FF0BCF59
:10219000E6FF0CCFE6FF0DCFE6FF0ECFE6FF0FCF39
:1021A000E6FF10CFE6FF11CFE6FF12CFE6FF13CF19
:1021B000E6FF14CFE6FF15CFE6FF16CFE6FF17CFF9
:1021C000E6FF18CFE6FF19CFE6FF1ACFE6FF1BCFD9
:1021D000E6FF1CCFE6FF1DCFE6FF1ECFE6FF1FCFB9
:1021E000E6FF20CFE6FF21CFE6FF22CFE6FF23CF99
:1021F000E6FF24CFE6FF25CFE6FF26CFE6FF27CF79
:10220000E6FF28CFE6FF29CFE6FF2ACFE6FF2BCF58
:10221000E6FF2CCFE6FF2DCFE6FF2ECFE6FF2FCF38
:10222000E6FF30CFE6FF31CFE6FF32CFE6FF33CF18
:10223000E6FF34CFE6FF35CFE6FF36CFE6FF37CFF8
:10224000E6FF38CFE6FF39CFE6FF3ACFE6FF3BCFD8
:10225000E6FF3CCFE6FF3DCFE6FF3ECFE6FF3FCFB8
:10226000E6FF6AEC25F0146E400EE15E1450010E9C
:102270000001A76FA86B0001A56B030EA66F1200EB
:102280000001AC51146E156AFF0E141801E11550CF
:1022900006E0020E0001AC27020E0001AD2701018D
:1022A000040E006F0101016B0101026B0101020EBE
:1022B000036F0101100E046FADC005F10101110E95
:1022C000066FACC007F1ACC0E6FF25D8E55212009E
:1022D0000001AC510E0806E2020E0001AC5F020ED6
:1022E0000001AD5F0101040E006F0101016B0101EE
:1022F000026B0101020E036F0101100E046FADC0ED
:1023000005F10101110E066FACC007F1ACC0E6FF8C
:1023100002D8E5521200D9CFE6FFE1CFD9FFFE0E79
:10232000DB50146E156AFF0E141801E1155017E109
:102330000101E50EB36F0101E40EA36F0101970ED9
:10234000A26F01018A0EB26F0101880EC26F0101F6
:102350008C0ED26F0101E2690101FF85BFD0FE0E34
:10236000DB500E0817E30101E50EB36F0101E40E27
:10237000A36F0101970EA26F01018A0EB26F0101D6
:10238000EF0EC26F0101CD0ED26F0101E2690101B2
:10239000FF85A4D0FE0EDB50146E156AFF0ED880A8
:1023A0001456000E1556020E0D6E0E6A14C008F07B
:1023B00015C009F02CEC3AF008C014F009C015F073
:1023C000FE0E14C0DBFFFE0EDBCFE6FFE66A0E0E4C
:1023D000E66E000EE66E000EE66EB00EE66E000EC5
:1023E000E66ED6EC39F0146E070EE15E1450B00EB6
:1023F000E66E000EE66E91EC3BF0E552E552F3CF4F
:1024000014F0F4CF15F0010E141801E1155018E185
:102410000101640EB36F0101E00EA36F0101FD0E17
:10242000A26FB0C0E6FFC1D9E5520101B26F010150
:10243000C2690101D2690101E2690101FF854ED043
:10244000B00EE66E000EE66E91EC3BF0E552E55202
:10245000F3CF14F0F4CF15F0020E141801E115506B
:102460001DE10101640EB36F0101E00EA36F0101D4
:10247000FD0EA26FB0C0E6FF98D9E5520101B26F20
:10248000B1C0E6FF92D9E5520101C26F0101D269E4
:102490000101E2690101FF8521D020D00101640E14
:1024A000B36F0101E00EA36F0101FD0EA26FB0C07A
:1024B000E6FF7BD9E5520101B26FB1C0E6FF75D9E5
:1024C000E5520101C26FB2C0E6FF6FD9E5520101CA
:1024D000D26F0101E2690101FF8500D0E552E7CF2B
:1024E000D9FF1200D9CFE6FFE1CFD9FFFE0EDB50B6
:1024F00023E00101020E006F0101016B0101026B7B
:102500000101020E036F0101120E046F0101A10E01
:10251000056F0101B3690101A36901018A0EA26F70
:102520000101C70EB26F0101950EC26F0101900E3D
:10253000D26F0101E26923D00101020E006F010197
:10254000016B0101026B0101020E036F0101120E0A
:10255000046F0101A00E056F0101B3690101C20EF4
:10256000A36F0101C50EA26F0101C70EB26F010179
:10257000CD0EC26F0101C40ED26F0101E2690101EB
:10258000FF85E552E7CFD9FF12000101FFB7C4D0A4
:1025900000CFE6FF01CFE6FF02CFE6FF03CFE6FF65
:1025A00004CFE6FF05CFE6FF06CFE6FF07CFE6FF45
:1025B00008CFE6FF09CFE6FF0ACFE6FF0BCFE6FF25
:1025C0000CCFE6FF0DCFE6FF0ECFE6FF0FCFE6FF05
:1025D00010CFE6FF11CFE6FF12CFE6FF13CFE6FFE5
:1025E00014CFE6FF15CFE6FF16CFE6FF17CFE6FFC5
:1025F00018CFE6FF19CFE6FF1ACFE6FF1BCFE6FFA5
:102600001CCFE6FF1DCFE6FF1ECFE6FF1FCFE6FF84
:1026100020CFE6FF21CFE6FF22CFE6FF23CFE6FF64
:1026200024CFE6FF25CFE6FF26CFE6FF27CFE6FF44
:1026300028CFE6FF29CFE6FF2ACFE6FF2BCFE6FF24
:102640002CCFE6FF2DCFE6FF2ECFE6FF2FCFE6FF04
:1026500030CFE6FF31CFE6FF32CFE6FF33CFE6FFE4
:1026600034CFE6FF35CFE6FF36CFE6FF37CFE6FFC4
:1026700038CFE6FF39CFE6FF3ACFE6FF3BCFE6FFA4
:102680003CCFE6FF3DCFE6FF3ECFE6FF3FCFE6FF84
:102690006AEC25F0146E400EE15E1450010E00014C
:1026A000A76FA86B0001A56B030EA66F0101016B5C
:1026B0000101026B0101020E036F0101120E046F92
:1026C0000101A00E056F0101020E006F0101FF87DD
:1026D0000101156B0101166B0101020E176F01015B
:1026E0000D0E186F0101196B0101090E1A6F01011E
:1026F000030E146F01014369010133690101880E62
:10270000326F0101C70E426F01018C0E526F010141
:1027100062690101726948D00101020E006F010176
:10272000016B0101026B0101020E036F0101120E28
:10273000046F0101A10E056F0101FF970101030E56
:10274000146F0101156B0101166B0101020E176F69
:1027500001010D0E186F0101196B0101080E1A6FAE
:102760000101FEB903D0DBEC05F01ED00101FE89AA
:102770000001A56B030EA66F010E0001A76FA86BE9
:1027800001014369010133690101DD0E326F01016D
:10279000900E426F0101880E526F0101C40E626FEC
:1027A00001017269CFEC0DF01200D9CFE6FFE1CF45
:1027B000D9FFFE0EDB50390A2EE0010A29E00F0A8C
:1027C00024E0010A1FE0030A1AE0010A15E0070AE3
:1027D00010E0010A0BE0030A06E0010A01E01ED046
:1027E000820E1ED01DD0EE0E1BD01AD0D00E18D0E7
:1027F00017D0E00E15D014D0AC0E12D011D0A10E0F
:102800000FD00ED0810E0CD00BD0EA0E09D008D01C
:10281000800E06D005D0A00E03D002D0FF0E00D04F
:10282000E552E7CFD9FF1200D9CFE6FFE1CFD9FFBC
:10283000FE0EDB50390A2EE0010A29E00F0A24E0DF
:10284000010A1FE0030A1AE0010A15E0070A10E076
:10285000010A0BE0030A06E0010A01E01ED0410E66
:102860001ED01DD06F0E1BD01AD0540E18D017D00A
:10287000460E15D014D06A0E12D011D0C20E0FD051
:102880000ED0C00E0CD00BD04F0E09D008D0400E89
:1028900006D005D0420E03D002D0FF0E00D0E55284
:1028A000E7CFD9FF12000101FEBB02D091EC03F08B
:1028B0000101FEAB0ED0CFEC0DF00101FE8900014D
:1028C000A56B030EA66F010E0001A76FA86B010197
:1028D000FE9B01010101FE51400B01E078D1010195
:1028E0000101FF51080B01E072D17AEC0FF00001F9
:1028F000A55102E1030EA61901E0B5D0A9C0E6FF7B
:10290000AAC0E6FF0E0EE66E000EE66E000EE66E44
:10291000B00EE66E000EE66ED6EC39F0146E070EC1
:10292000E15E1450B00EE66E000EE66E91EC3BF0E8
:10293000E552E552F3CF14F0F4CF15F0020E14185F
:1029400001E115500DE1B0C0E6FF6EDFE552010177
:10295000436FB1C0E6FF68DFE5520101336F09D074
:102960000101410E436FB0C0E6FF5EDFE552010199
:10297000336F0101E951E66EE66A0E0EE66E000E57
:10298000E66E000EE66EB00EE66E000EE66ED6EC5B
:1029900039F0146E070EE15E1450B00EE66E000EB4
:1029A000E66E91EC3BF0E552E552F3CF14F0F4CF34
:1029B00015F0020E141801E115500DE1B0C0E6FF4C
:1029C000F4DEE5520101326FB1C0E6FFEEDEE55202
:1029D0000101426F09D00101820E326FB0C0E6FFE3
:1029E000E4DEE5520101426F0101EA51E66EE66A5A
:1029F0000E0EE66E000EE66E000EE66EB00EE66E91
:102A0000000EE66ED6EC39F0146E070EE15E14503F
:102A1000B00EE66E000EE66E91EC3BF0E552E5522C
:102A2000F3CF14F0F4CF15F0020E141801E1155095
:102A30000DE1B0C0E6FFB9DEE5520101526FB1C051
:102A4000E6FFB3DEE5520101626F09D00101820E9B
:102A5000526FB0C0E6FFA9DEE5520101626F0101CD
:102A6000FA0E726FB4D00101EC51E66EE66A0E0EFA
:102A7000E66E000EE66E000EE66EB00EE66E000E1E
:102A8000E66ED6EC39F0146E070EE15E1450B00E0F
:102A9000E66E000EE66E91EC3BF0E552E552F3CFA8
:102AA00014F0F4CF15F0020E141801E115500DE1E9
:102AB000B0C0E6FFB9DEE5520101436FB1C0E6FFE9
:102AC000B3DEE5520101336F09D00101410E436FBE
:102AD000B0C0E6FFA9DEE5520101336F0101ED51FF
:102AE000E66EE66A0E0EE66E000EE66E000EE66E0E
:102AF000B00EE66E000EE66ED6EC39F0146E070EE0
:102B0000E15E1450B00EE66E000EE66E91EC3BF006
:102B1000E552E552F3CF14F0F4CF15F0020E14187D
:102B200001E115500DE1B0C0E6FF3FDEE5520101C5
:102B3000326FB1C0E6FF39DEE5520101426F09D0C4
:102B40000101820E326FB0C0E6FF2FDEE5520101B7
:102B5000426F0101EE51E66EE66A0E0EE66E000E61
:102B6000E66E000EE66EB00EE66E000EE66ED6EC79
:102B700039F0146E070EE15E1450B00EE66E000ED2
:102B8000E66E91EC3BF0E552E552F3CF14F0F4CF52
:102B900015F0020E141801E115500DE1B0C0E6FF6A
:102BA00004DEE5520101526FB1C0E6FFFEDDE552E1
:102BB0000101626F09D00101820E526FB0C0E6FFC1
:102BC000F4DDE5520101626F0101FA0E726F12002D
:102BD000D9CFE6FFE1CFD9FFD950C60F146EFF0E53
:102BE000DA20156EC40E14C0DBFFC50E15C0DBFF66
:102BF000BF0EDB6AC00EDB6ABF0EDBCF14F0C00E67
:102C0000DBCF15F0100E145C000E155816E2C40E42
:102C1000DBCFE9FFC50EDBCFEAFFEF6AC40EDBCFE7
:102C2000E9FFDB2AC50EDBCFEAFF01E3DB2ABF0E9B
:102C3000DB2AC00E01E3DB2ADFD7BD0EF36EC60E22
:102C4000F3CFDBFF080EF36ECF0EF3CFDBFFA00E4A
:102C5000E66E72EC38F0E552AA0EF36EC30EF3CFB7
:102C6000DBFFBF0EDB6AC00EDB6AC30EDB50580809
:102C70001DE0BF0EDB2AC00E01E3DB2A32EC38F088
:102C8000E76EC30EE7CFDBFFBF0EDBCF14F0C00E45
:102C9000DBCF15F0166A500E141804E1C30E151898
:102CA00001E1165002E1030E9AD1DFD7D950C60FC9
:102CB000146EFF0EDA20156EC40E14C0DBFFC50EB5
:102CC00015C0DBFFBF0EDB6AC00EDB6AC40EDBCFB4
:102CD00014F0C50EDBCF15F0D950D20F166EFF0ED3
:102CE000DA20176E1650145C1750155822E2C40EE5
:102CF000DBCFE6FFC50EDBCFE6FF34EC39F0E55263
:102D0000E552C40EDBCFE9FFDB2AC50EDBCFEAFFBD
:102D100001E3DB2AC40EDBCFE9FFDB2AC50EDBCFE4
:102D2000EAFF01E3DB2ABF0EDB2AC00E01E3DB2A48
:102D3000CDD7BF0EDB6AC00EDB6AAA0EF36EC30EE0
:102D4000F3CFDBFFC30EDB50580801E193D0BF0E79
:102D5000DB2AC00E01E3DB2AC30EDB50510804E07E
:102D6000C30EDB50500869E1A00EE66E72EC38F03D
:102D7000E552AA0EF36EC30EF3CFDBFFC10EDB6A82
:102D8000C20EDB6AC30EDB5058081DE0C10EDB2A01
:102D9000C20E01E3DB2A32EC38F0E76EC30EE7CF58
:102DA000DBFFC10EDBCF14F0C20EDBCF15F0166ACD
:102DB000500E141804E1C30E151801E1165002E17B
:102DC000030E0DD1DFD7D950C60F146EFF0EDA20D7
:102DD000156EC40E14C0DBFFC50E15C0DBFFC40E9C
:102DE000DBCF14F0C50EDBCF15F0D950D20F166E25
:102DF000FF0EDA20176E1650145C175015581DE29E
:102E0000C40EDBCFE6FFC50EDBCFE6FF34EC39F0B6
:102E1000E552E552C40EDBCFE9FFDB2AC50EDBCF5E
:102E2000EAFF01E3DB2AC40EDBCFE9FFDB2AC50E94
:102E3000DBCFEAFF01E3DB2AD2D7AA0EF36EC30E83
:102E4000F3CFDBFF32EC38F0E76EC30EE7CFDBFFEA
:102E5000BF0EDBCF14F0C00EDBCF15F0166A500E9C
:102E6000141804E1C30E151801E1165002E1030E17
:102E7000B6D068D7D950D60F146EFF0EDA20156E73
:102E8000C40E14C0DBFFC50E15C0DBFFBF0EDB6A2E
:102E9000C00EDB6AC30EDB50080B080801E078D0D7
:102EA000D950BF0FE96EFF0EDA20EA6E0C0EEE1855
:102EB00001E1ED506DE0C40EDBCFE6FFC50EDBCFC8
:102EC000E6FF09EC39F0E552E552C40EDBCFE9FF2D
:102ED000DB2AC50EDBCFEAFF01E3DB2AC40EDBCF22
:102EE000E9FFC50EDBCFEAFFE906000EEA5AEF5014
:102EF000E66E010EE76EC40EDBCFE9FFC50EDBCF39
:102F0000EAFFE750E926000EEA22E552E750EF6EAD
:102F1000C40EDBCFE9FFC50EDBCFEAFFEF50E66E54
:102F2000C40EDBCFE9FFC50EDBCFEAFFE906000EDA
:102F3000EA5AE552E750EF6E010EE76EC40EDBCFA2
:102F4000E9FFC50EDBCFEAFFE750E926000EEA22D3
:102F5000EF50E66EC40EDBCFE9FFC50EDBCFEAFF14
:102F6000E552E750EF6EC40EDBCFE9FFDB2AC50E5A
:102F7000DBCFEAFF01E3DB2ABF0EDB2AC00E01E351
:102F8000DB2A32EC38F0E76EC30EE7CFDBFF82D7E7
:102F9000D60EDB500AE0D70EDB50E00B06E0020E47
:102FA000F36EC30EF3CFDBFF17D0D70EDB50F00B61
:102FB00003E1C30EDB6A10D0D70EDB50F00B100814
:102FC00006E1010EF36EC30EF3CFDBFF05D0030E57
:102FD000F36EC30EF3CFDBFFC30EDB5000D0E55220
:102FE000E7CFD9FF1200D9CFE6FFE1CFD9FFD95003
:102FF000C60F146EFF0EDA20156EC40E14C0DBFF70
:10300000C50E15C0DBFFBF0EDB6AC00EDB6ABF0E4C
:10301000DBCF14F0C00EDBCF15F0100E145C000EE9
:10302000155816E2C40EDBCFE9FFC50EDBCFEAFF71
:10303000EF6AC40EDBCFE9FFDB2AC50EDBCFEAFF68
:1030400001E3DB2ABF0EDB2AC00E01E3DB2ADFD758
:103050001B0EF36EC60EF3CFDBFF020EF36ECA0E2D
:10306000F3CFDBFFA00EE66E72EC38F0E552AA0E4D
:10307000F36EC30EF3CFDBFFBF0EDB6AC00EDB6A5D
:10308000C30EDB5058081DE0BF0EDB2AC00E01E363
:10309000DB2A32EC38F0E76EC30EE7CFDBFFBF0E62
:1030A000DBCF14F0C00EDBCF15F0166A500E1418EB
:1030B00004E1C30E151801E1165002E1030E58D0C9
:1030C000DFD7D950C60F146EFF0EDA20156EC40E6E
:1030D00014C0DBFFC50E15C0DBFFBF0EDB6AC00EE0
:1030E000DB6AC40EDBCF14F0C50EDBCF15F0D95070
:1030F000D30F166EFF0EDA20176E1650145C1750A1
:10310000155822E2C40EDBCFE6FFC50EDBCFE6FF8B
:1031100034EC39F0E552E552C40EDBCFE9FFDB2A8F
:10312000C50EDBCFEAFF01E3DB2AC40EDBCFE9FFEC
:10313000DB2AC50EDBCFEAFF01E3DB2ABF0EDB2A69
:10314000C00E01E3DB2ACDD7AA0EF36EC30EF3CF78
:10315000DBFF32EC38F0E76EC30EE7CFDBFFC30EC8
:10316000DB50510803E1000E03D002D0010E00D065
:10317000E552E7CFD9FF1200D9CFE6FFE1CFD9FF63
:10318000D950C60F146EFF0EDA20156EC40E14C08F
:10319000DBFFC50E15C0DBFFBF0EDB6AC00EDB6AAE
:1031A000BF0EDBCF14F0C00EDBCF15F0100E145C99
:1031B000000E155816E2C40EDBCFE9FFC50EDBCFBB
:1031C000EAFFEF6AC40EDBCFE9FFDB2AC50EDBCFD7
:1031D000EAFF01E3DB2ABF0EDB2AC00E01E3DB2A94
:1031E000DFD71B0EF36EC60EF3CFDBFF030EF36EBD
:1031F000CA0EF3CFDBFFA00EE66E72EC38F0E5529C
:10320000AA0EF36EC30EF3CFDBFFBF0EDB6AC00E58
:10321000DB6AC30EDB5058081DE0BF0EDB2AC00E70
:1032200001E3DB2A32EC38F0E76EC30EE7CFDBFFB9
:10323000BF0EDBCF14F0C00EDBCF15F0166A500EB8
:10324000141804E1C30E151801E1165002E1030E33
:1032500071D0DFD7D950C60F146EFF0EDA20156E6D
:10326000C40E14C0DBFFC50E15C0DBFFBF0EDB6A4A
:10327000C00EDB6AC40EDBCF14F0C50EDBCF15F039
:10328000D950D30F166EFF0EDA20176E1650145C4D
:103290001750155822E2C40EDBCFE6FFC50EDBCF78
:1032A000E6FF34EC39F0E552E552C40EDBCFE9FF1E
:1032B000DB2AC50EDBCFEAFF01E3DB2AC40EDBCF3E
:1032C000E9FFDB2AC50EDBCFEAFF01E3DB2ABF0EF5
:1032D000DB2AC00E01E3DB2ACDD7AA0EF36EC30EA4
:1032E000F3CFDBFFBF0EDB6AC00EDB6A0000C30E4C
:1032F000DB5080091DE0BF0EDB2AC00E01E3DB2A94
:1033000032EC38F0E76EC30EE7CFDBFFBF0EDBCF4A
:1033100014F0C00EDBCF15F0166A500E141804E13D
:10332000C30E151801E1165002E1010E03D0DFD7DC
:10333000000E00D0E552E7CFD9FF1200D9CFE6FF4B
:10334000E1CFD9FFD950C40F146EFF0EDA20156EED
:10335000C20E14C0DBFFC30E15C0DBFFBD0EDB6A5F
:10336000BE0EDB6ABD0EDBCF14F0BE0EDBCF15F058
:10337000100E145C000E155816E2C20EDBCFE9FFEA
:10338000C30EDBCFEAFFEF6AC20EDBCFE9FFDB2A19
:10339000C30EDBCFEAFF01E3DB2ABD0EDB2ABE0E44
:1033A00001E3DB2ADFD7430EF36EC40EF3CFDBFF5E
:1033B000020EF36EC50EF3CFDBFFC60EDB6A100EF6
:1033C000F36ECB0EF3CFDBFFCC0EDB6AA00EE66E06
:1033D00072EC38F0E552AA0EF36EC10EF3CFDBFFAC
:1033E000BD0EDB6ABE0EDB6A0000C10EDB50580862
:1033F00026E0BD0EDB2ABE0E01E3DB2A32EC38F0FC
:10340000E76EC10EE7CFDBFFC10EDB50480805E1D8
:10341000580EF36EC10EF3CFDBFFBD0EDBCF14F001
:10342000BE0EDBCF15F0166A500E141804E1C30E61
:10343000151801E1165002E1030E6CD1D6D7D95010
:10344000C40F146EFF0EDA20156EC20E14C0DBFF1F
:10345000C30E15C0DBFFBD0EDB6ABE0EDB6AC20EFB
:10346000DBCF14F0C30EDBCF15F0D950D10F166EA1
:10347000FF0EDA20176E1650145C1750155822E212
:10348000C20EDBCFE6FFC30EDBCFE6FF34EC39F034
:10349000E552E552C20EDBCFE9FFDB2AC30EDBCFDC
:1034A000EAFF01E3DB2AC20EDBCFE9FFDB2AC30E12
:1034B000DBCFEAFF01E3DB2ABD0EDB2ABE0E01E310
:1034C000DB2ACDD7BD0EDB6ABE0EDB6AAA0EF36E19
:1034D000C10EF3CFDBFFC10EDB50580801E193D0E2
:1034E000BD0EDB2ABE0E01E3DB2AC10EDB50510804
:1034F00004E0C10EDB50500869E1A00EE66E72ECEC
:1035000038F0E552AA0EF36EC10EF3CFDBFFBF0E0B
:10351000DB6AC00EDB6AC10EDB5058081DE0BF0E2F
:10352000DB2AC00E01E3DB2A32EC38F0E76EC10E75
:10353000E7CFDBFFBF0EDBCF14F0C00EDBCF15F003
:10354000166A500E141804E1C30E151801E1165046
:1035500002E1020EDFD0DFD7D950C40F146EFF0E88
:10356000DA20156EC20E14C0DBFFC30E15C0DBFFE0
:10357000C20EDBCF14F0C30EDBCF15F0D950D10F44
:10358000166EFF0EDA20176E1650145C1750155881
:103590001DE2C20EDBCFE6FFC30EDBCFE6FF34EC4D
:1035A00039F0E552E552C20EDBCFE9FFDB2AC30E4C
:1035B000DBCFEAFF01E3DB2AC20EDBCFE9FFDB2A28
:1035C000C30EDBCFEAFF01E3DB2AD2D7AA0EF36EEC
:1035D000C10EF3CFDBFF32EC38F0E76EC10EE7CF60
:1035E000DBFFBD0EDBCF14F0BE0EDBCF15F0166A8D
:1035F000500E141804E1C30E151801E1165002E133
:10360000020E88D068D7BD0EDB6ABE0EDB6AC10E23
:10361000DB50080B080801E07BD0FD0EDBCFE6FF96
:10362000FE0EDBCFE6FF09EC39F0E552E552FD0E68
:10363000DBCFE9FFDB2AFE0EDBCFEAFF01E3DB2A6B
:10364000FD0EDBCFE9FFFE0EDBCFEAFFE906000E41
:10365000EA5AEF50E66E010EE76EFD0EDBCFE9FF92
:10366000FE0EDBCFEAFFE750E926000EEA22E55224
:10367000E750EF6EFD0EDBCFE9FFFE0EDBCFEAFF7A
:10368000EF50E66EFD0EDBCFE9FFFE0EDBCFEAFF6B
:10369000E906000EEA5AE552E750EF6E010EE76EBA
:1036A000FD0EDBCFE9FFFE0EDBCFEAFFE750E92698
:1036B000000EEA22EF50E66EFD0EDBCFE9FFFE0EB4
:1036C000DBCFEAFFE552E750EF6EFD0EDBCFE9FFFF
:1036D000DB2AFE0EDBCFEAFF01E3DB2ABD0EDB2A8D
:1036E000BE0E01E3DB2A32EC38F0E76EC10EE7CF05
:1036F000DBFFD950BD0FE96EFF0EDA20EA6EE80E4F
:10370000EE1802E1030EED1802E1010E03D07FD79F
:10371000000E00D0E552E7CFD9FF1200D9CFE6FF67
:10372000E1CFD9FF030EE76EFC0EDBCFE9FFFD0E04
:10373000DBCFEAFFE750E926000EEA22EB0EEFCFDF
:10374000DBFFFE0EDBCF14F0EB0EDB50D880145401
:1037500002E2010E52D1D950C30F146EFF0EDA20CF
:10376000156EC10E14C0DBFFC20E15C0DBFFBC0E10
:10377000DB6ABD0EDB6ABC0EDBCF14F0BD0EDBCF07
:1037800015F0100E145C000E155816E2C10EDBCFBA
:10379000E9FFC20EDBCFEAFFEF6AC10EDBCFE9FF24
:1037A000DB2AC20EDBCFEAFF01E3DB2ABC0EDB2AF9
:1037B000BD0E01E3DB2ADFD7470EF36EC30EF3CF56
:1037C000DBFF090EE76EFC0EDBCF14F0FD0EDBCF46
:1037D00015F0E7501426000E1522FE0EDB04080D2E
:1037E000F3500F011424E96E000E1520EA6EC60E88
:1037F000EFCFDBFF0A0EE76EFC0EDBCF14F0FD0E01
:10380000DBCF15F0E7501426000E1522FE0EDB0468
:10381000080DF3500F011424E96E000E1520EA6E16
:10382000C70EEFCFDBFF0B0EE76EFC0EDBCF14F005
:10383000FD0EDBCF15F0E7501426000E1522FE0E0C
:10384000DB04080DF3500F011424E96E000E15205F
:10385000EA6EC80EEFCFDBFF090EE76EFC0EDBCF82
:1038600014F0FD0EDBCF15F0E7501426000E1522E4
:10387000EB0EDB50080DF3500F011424E96E000E1F
:103880001520EA6EC90EEFCFDBFF0A0EE76EFC0EC5
:10389000DBCF14F0FD0EDBCF15F0E7501426000E41
:1038A0001522EB0EDB50080DF3500F011424E96EC6
:1038B000000E1520EA6ECA0EEFCFDBFF0B0EE76E8F
:1038C000FC0EDBCF14F0FD0EDBCF15F0E750142615
:1038D000000E1522EB0EDB50080DF3500F011424DF
:1038E000E96E000E1520EA6ECB0EEFCFDBFFA00EC7
:1038F000E66E72EC38F0E552AA0EF36EC00EF3CF0E
:10390000DBFFBC0EDB6ABD0EDB6AC00EDB50580865
:103910001DE0BC0EDB2ABD0E01E3DB2A32EC38F0E1
:10392000E76EC00EE7CFDBFFBC0EDBCF14F0BD0EA1
:10393000DBCF15F0166A500E141804E1C30E1518EB
:1039400001E1165002E1030E58D0DFD7D950C30F62
:10395000146EFF0EDA20156EC10E14C0DBFFC20E0E
:1039600015C0DBFFBC0EDB6ABD0EDB6AC10EDBCF10
:1039700014F0C20EDBCF15F0D950D00F166EFF0E2B
:10398000DA20176E1650145C1750155822E2C10E3B
:10399000DBCFE6FFC20EDBCFE6FF34EC39F0E552B9
:1039A000E552C10EDBCFE9FFDB2AC20EDBCFEAFF17
:1039B00001E3DB2AC10EDBCFE9FFDB2AC20EDBCF3E
:1039C000EAFF01E3DB2ABC0EDB2ABD0E01E3DB2AA2
:1039D000CDD7AA0EF36EC00EF3CFDBFF32EC38F07A
:1039E000E76EC00EE7CFDBFFC00EDB50510803E1EE
:1039F000020E03D002D0000E00D0E552E7CFD9FF6F
:103A00001200D9CFE6FFE1CFD9FF030EE76EFB0E20
:103A1000DBCFE9FFFC0EDBCFEAFFE750E926000E23
:103A2000EA22EA0EEFCFDBFFFD0EDBCFE9FFFE0E51
:103A3000DBCFEAFFEFCF14F0EA0EDB50D88014544E
:103A400002E2010E34D1D950C20F146EFF0EDA20FB
:103A5000156EC00E14C0DBFFC10E15C0DBFFBB0E20
:103A6000DB6ABC0EDB6ABB0EDBCF14F0BC0EDBCF17
:103A700015F0100E145C000E155816E2C00EDBCFC8
:103A8000E9FFC10EDBCFEAFFEF6AC00EDBCFE9FF33
:103A9000DB2AC10EDBCFEAFF01E3DB2ABB0EDB2A08
:103AA000BC0E01E3DB2ADFD7470EF36EC20EF3CF65
:103AB000DBFF010EE76EFD0EDBCFE9FFFE0EDBCF75
:103AC000EAFFE750E926000EEA22C50EEFCFDBFF42
:103AD000020EE76EFD0EDBCFE9FFFE0EDBCFEAFF45
:103AE000E750E926000EEA22C60EEFCFDBFF030EF9
:103AF000E76EFD0EDBCFE9FFFE0EDBCFEAFFE750FE
:103B0000E926000EEA22C70EEFCFDBFF090EE76EB3
:103B1000FB0EDBCF14F0FC0EDBCF15F0E7501426C4
:103B2000000E1522EA0EDB50080DF3500F0114248D
:103B3000E96E000E1520EA6EC80EEFCFDBFF0A0E0D
:103B4000E76EFB0EDBCF14F0FC0EDBCF15F0E75079
:103B50001426000E1522EA0EDB50080DF3500F015B
:103B60001424E96E000E1520EA6EC90EEFCFDBFFBC
:103B70000B0EE76EFB0EDBCF14F0FC0EDBCF15F067
:103B8000E7501426000E1522EA0EDB50080DF35004
:103B90000F011424E96E000E1520EA6ECA0EEFCF55
:103BA000DBFFA00EE66E72EC38F0E552AA0EF36E63
:103BB000BF0EF3CFDBFFBB0EDB6ABC0EDB6ABF0EB2
:103BC000DB5058081DE0BB0EDB2ABC0E01E3DB2AEC
:103BD00032EC38F0E76EBF0EE7CFDBFFBB0EDBCF7A
:103BE00014F0BC0EDBCF15F0166A500E141804E169
:103BF000C30E151801E1165002E1030E58D0DFD7AD
:103C0000D950C20F146EFF0EDA20156EC00E14C00C
:103C1000DBFFC10E15C0DBFFBB0EDB6ABC0EDB6A2F
:103C2000C00EDBCF14F0C10EDBCF15F0D950CF0F93
:103C3000166EFF0EDA20176E1650145C17501558CA
:103C400022E2C00EDBCFE6FFC10EDBCFE6FF34EC95
:103C500039F0E552E552C00EDBCFE9FFDB2AC10E99
:103C6000DBCFEAFF01E3DB2AC00EDBCFE9FFDB2A73
:103C7000C10EDBCFEAFF01E3DB2ABB0EDB2ABC0E61
:103C800001E3DB2ACDD7AA0EF36EBF0EF3CFDBFF25
:103C900032EC38F0E76EBF0EE7CFDBFFBF0EDB5034
:103CA000510803E1020E03D002D0000E00D0E5520D
:103CB000E7CFD9FF1200D9CFE6FFE1CFD9FFD95026
:103CC000C40F146EFF0EDA20156EC20E14C0DBFF97
:103CD000C30E15C0DBFFBD0EDB6ABE0EDB6ABD0E78
:103CE000DBCF14F0BE0EDBCF15F0100E145C000E0F
:103CF000155816E2C20EDBCFE9FFC30EDBCFEAFF99
:103D0000EF6AC20EDBCFE9FFDB2AC30EDBCFEAFF8F
:103D100001E3DB2ABD0EDB2ABE0E01E3DB2ADFD77F
:103D2000420EF36EC40EF3CFDBFF020EF36EC50E30
:103D3000F3CFDBFF400EF36EC60EF3CFDBFF010EB9
:103D4000F36EC70EF3CFDBFF100EF36ECB0EF3CF87
:103D5000DBFFCC0EDB6AA00EE66E72EC38F0E552AB
:103D6000AA0EF36EC10EF3CFDBFFBD0EDB6ABE0EF3
:103D7000DB6AC10EDB5058081DE0BD0EDB2ABE0E0B
:103D800001E3DB2A32EC38F0E76EC10EE7CFDBFF50
:103D9000BD0EDBCF14F0BE0EDBCF15F0166A500E51
:103DA000141804E1C30E151801E1165002E1030EC8
:103DB0000CD2DFD7D950C40F146EFF0EDA20156E67
:103DC000C20E14C0DBFFC30E15C0DBFFBD0EDB6AE5
:103DD000BE0EDB6AC20EDBCF14F0C30EDBCF15F0D4
:103DE000D950D10F166EFF0EDA20176E1650145CE4
:103DF0001750155822E2C20EDBCFE6FFC30EDBCF11
:103E0000E6FF34EC39F0E552E552C20EDBCFE9FFB4
:103E1000DB2AC30EDBCFEAFF01E3DB2AC20EDBCFD6
:103E2000E9FFDB2AC30EDBCFEAFF01E3DB2ABD0E8D
:103E3000DB2ABE0E01E3DB2ACDD7BD0EDB6ABE0E48
:103E4000DB6AAA0EF36EC10EF3CFDBFFC10EDB50AF
:103E5000580801E1B3D0BD0EDBCF14F0BE0EDBCFAE
:103E600015F0166A500E141804E1C30E151801E17E
:103E7000165001E1A3D0BD0EDB2ABE0E01E3DB2A02
:103E8000C10EDB50510805E0C10EDB50500801E0C7
:103E900078D0A00EE66E72EC38F0E552AA0EF36E02
:103EA000C10EF3CFDBFFBF0EDB6AC00EDB6AC10EB3
:103EB000DB5058082CE0BF0EDBCF14F0C00EDBCF78
:103EC00015F0166A500E141804E1C30E151801E11E
:103ED00016501DE0BF0EDB2AC00E01E3DB2A32ECD8
:103EE00038F0E76EC10EE7CFDBFFBF0EDBCF14F07B
:103EF000C00EDBCF15F0166A500E141804E1C30E85
:103F0000151801E1165002E1020E5FD1D0D7D95049
:103F1000C40F146EFF0EDA20156EC20E14C0DBFF44
:103F2000C30E15C0DBFFC20EDBCF14F0C30EDBCF18
:103F300015F0D950D10F166EFF0EDA20176E1650FD
:103F4000145C175015581DE2C20EDBCFE6FFC30EFE
:103F5000DBCFE6FF34EC39F0E552E552C20EDBCFA1
:103F6000E9FFDB2AC30EDBCFEAFF01E3DB2AC20E47
:103F7000DBCFE9FFDB2AC30EDBCFEAFF01E3DB2A5D
:103F8000D2D7AA0EF36EC10EF3CFDBFF32EC38F0BE
:103F9000E76EC10EE7CFDBFFBD0EDBCF14F0BE0E28
:103FA000DBCF15F0166A500E141804E1C30E151875
:103FB00001E1165002E1020E08D148D7D950D40FC2
:103FC000146EFF0EDA20156EC20E14C0DBFFC30E96
:103FD00015C0DBFFBD0EDB6ABE0EDB6ABD0EDBCF9C
:103FE00014F0BE0EDBCF15F0130E145C000E155846
:103FF00016E2C20EDBCFE9FFC30EDBCFEAFFEF6AAA
:10400000C20EDBCFE9FFDB2AC30EDBCFEAFF01E301
:10401000DB2ABD0EDB2ABE0E01E3DB2ADFD7BD0E95
:10402000DB6ABE0EDB6AD950D40F146EFF0EDA20A5
:10403000156EC20E14C0DBFFC30E15C0DBFFC10E30
:10404000DB50080B080801E078D0D950BD0FE96EAD
:10405000FF0EDA20EA6E120EEE1801E1ED506DE06F
:10406000C20EDBCFE6FFC30EDBCFE6FF09EC39F073
:10407000E552E552C20EDBCFE9FFDB2AC30EDBCFF0
:10408000EAFF01E3DB2AC20EDBCFE9FFC30EDBCF81
:10409000EAFFE906000EEA5AEF50E66E010EE76EFF
:1040A000C20EDBCFE9FFC30EDBCFEAFFE750E92604
:1040B000000EEA22E552E750EF6EC20EDBCFE9FFB9
:1040C000C30EDBCFEAFFEF50E66EC20EDBCFE9FF97
:1040D000C30EDBCFEAFFE906000EEA5AE552E750CD
:1040E000EF6E010EE76EC20EDBCFE9FFC30EDBCF32
:1040F000EAFFE750E926000EEA22EF50E66EC20E14
:10410000DBCFE9FFC30EDBCFEAFFE552E750EF6EEE
:10411000C20EDBCFE9FFDB2AC30EDBCFEAFF01E3F0
:10412000DB2ABD0EDB2ABE0E01E3DB2A32EC38F0BF
:10413000E76EC10EE7CFDBFF82D7FD0EDBCFE9FFD5
:10414000FE0EDBCFEAFFDA0EDBCFEFFF010EE76EEC
:10415000FD0EDBCFE9FFFE0EDBCFEAFFE750E926DD
:10416000000EEA22DD0EDBCFEFFF020EE76EFD0E42
:10417000DBCFE9FFFE0EDBCFEAFFE750E926000EBA
:10418000EA22DE0EDBCFEFFF030EE76EFD0EDBCF84
:10419000E9FFFE0EDBCFEAFFE750E926000EEA2238
:1041A000DF0EDBCFEFFFD950BD0FE96EFF0EDA2037
:1041B000EA6EE80EEE1802E1030EED1803E1030EBD
:1041C00004D003D0D50EDB5000D0E552E7CFD9FFA5
:1041D0001200D9CFE6FFE1CFD9FFD950C40F146E3A
:1041E000FF0EDA20156EC20E14C0DBFFC30E15C021
:1041F000DBFFBD0EDB6ABE0EDB6ABD0EDBCF14F04B
:10420000BE0EDBCF15F0100E145C000E155816E232
:10421000C20EDBCFE9FFC30EDBCFEAFFEF6AC20EAF
:10422000DBCFE9FFDB2AC30EDBCFEAFF01E3DB2AAA
:10423000BD0EDB2ABE0E01E3DB2ADFD7420EF36E92
:10424000C40EF3CFDBFF020EF36EC50EF3CFDBFF20
:10425000400EF36EC60EF3CFDBFF010EF36EC70EFA
:10426000F3CFDBFF100EF36ECB0EF3CFDBFFCC0EE4
:10427000DB6AA00EE66E72EC38F0E552AA0EF36E21
:10428000C10EF3CFDBFFBD0EDB6ABE0EDB6AC10ED3
:10429000DB5058081DE0BD0EDB2ABE0E01E3DB2A11
:1042A00032EC38F0E76EC10EE7CFDBFFBD0EDBCF9F
:1042B00014F0BE0EDBCF15F0166A500E141804E190
:1042C000C30E151801E1165002E1030EF8D1DFD735
:1042D000D950C40F146EFF0EDA20156EC20E14C032
:1042E000DBFFC30E15C0DBFFBD0EDB6ABE0EDB6A53
:1042F000C20EDBCF14F0C30EDBCF15F0D950D10FB7
:10430000166EFF0EDA20176E1650145C17501558F3
:104310001EE2C20EDBCFE6FFC30EDBCFE6FF34ECBE
:1043200039F0E552E552C20EDB2AC30E01E3DB2A67
:10433000C20EDBCFE9FFDB2AC30EDBCFEAFF01E3CE
:10434000DB2ABD0EDB2ABE0E01E3DB2AD1D7BD0E70
:10435000DB6ABE0EDB6AAA0EF36EC10EF3CFDBFF83
:10436000C10EDB50580801E1A3D0BD0EDBCF14F025
:10437000BE0EDBCF15F0166A500E141804E1C30E02
:10438000151801E1165001E193D0BD0EDB2ABE0ED7
:1043900001E3DB2AC10EDB50510804E0C10EDB5003
:1043A000500869E1A00EE66E72EC38F0E552AA0EF4
:1043B000F36EC10EF3CFDBFFBF0EDB6AC00EDB6A0C
:1043C000C10EDB5058081DE0BF0EDB2AC00E01E312
:1043D000DB2A32EC38F0E76EC10EE7CFDBFFBD0E13
:1043E000DBCF14F0BE0EDBCF15F0166A500E14189A
:1043F00004E1C30E151801E1165002E1020E5FD16F
:10440000DFD7D950C40F146EFF0EDA20156EC20E1E
:1044100014C0DBFFC30E15C0DBFFC20EDBCF14F0F0
:10442000C30EDBCF15F0D950D10F166EFF0EDA2078
:10443000176E1650145C175015581DE2C20EDBCFD4
:10444000E6FFC30EDBCFE6FF34EC39F0E552E55270
:10445000C20EDBCFE9FFDB2AC30EDBCFEAFF01E3AD
:10446000DB2AC20EDBCFE9FFDB2AC30EDBCFEAFF7C
:1044700001E3DB2AD2D7AA0EF36EC10EF3CFDBFF26
:1044800032EC38F0E76EC10EE7CFDBFFBD0EDBCFBD
:1044900014F0BE0EDBCF15F0166A500E141804E1AE
:1044A000C30E151801E1165002E1020E08D158D7CB
:1044B000D950D40F146EFF0EDA20156EC20E14C040
:1044C000DBFFC30E15C0DBFFBD0EDB6ABE0EDB6A71
:1044D000BD0EDBCF14F0BE0EDBCF15F0130E145C57
:1044E000000E155816E2C20EDBCFE9FFC30EDBCF7C
:1044F000EAFFEF6AC20EDBCFE9FFDB2AC30EDBCF98
:10450000EAFF01E3DB2ABD0EDB2ABE0E01E3DB2A54
:10451000DFD7BD0EDB6ABE0EDB6AD950D40F146E36
:10452000FF0EDA20156EC20E14C0DBFFC30E15C0DD
:10453000DBFFC10EDB50080B080801E078D0D95032
:10454000BD0FE96EFF0EDA20EA6E120EEE1801E1E1
:10455000ED506DE0C20EDBCFE6FFC30EDBCFE6FF12
:1045600009EC39F0E552E552C20EDBCFE9FFDB2A58
:10457000C30EDBCFEAFF01E3DB2AC20EDBCFE9FF8C
:10458000C30EDBCFEAFFE906000EEA5AEF50E66EF3
:10459000010EE76EC20EDBCFE9FFC30EDBCFEAFFF1
:1045A000E750E926000EEA22E552E750EF6EC20E10
:1045B000DBCFE9FFC30EDBCFEAFFEF50E66EC20EA2
:1045C000DBCFE9FFC30EDBCFEAFFE906000EEA5AB4
:1045D000E552E750EF6E010EE76EC20EDBCFE9FF4A
:1045E000C30EDBCFEAFFE750E926000EEA22EF50C8
:1045F000E66EC20EDBCFE9FFC30EDBCFEAFFE5526A
:10460000E750EF6EC20EDBCFE9FFDB2AC30EDBCF34
:10461000EAFF01E3DB2ABD0EDB2ABE0E01E3DB2A43
:1046200032EC38F0E76EC10EE7CFDBFF82D7FD0E2C
:10463000DBCFE9FFFE0EDBCFEAFFDA0EDBCFEFFFC9
:10464000010EE76EFD0EDBCFE9FFFE0EDBCFEAFFCA
:10465000E750E926000EEA22E10EDBCFEFFF020E63
:10466000E76EFD0EDBCFE9FFFE0EDBCFEAFFE75082
:10467000E926000EEA22E20EDBCFEFFF030EE76E23
:10468000FD0EDBCFE9FFFE0EDBCFEAFFE750E926A8
:10469000000EEA22E30EDBCFEFFFD950BD0FE96E2B
:1046A000FF0EDA20EA6EE80EEE1802E1030EED18B6
:1046B00003E1030E04D003D0D50EDB5000D0E55249
:1046C000E7CFD9FF1200D9CFE6FFE1CFD9FFD9500C
:1046D000C40F146EFF0EDA20156EC20E14C0DBFF7D
:1046E000C30E15C0DBFFBD0EDB6ABE0EDB6ABD0E5E
:1046F000DBCF14F0BE0EDBCF15F0100E145C000EF5
:10470000155816E2C20EDBCFE9FFC30EDBCFEAFF7E
:10471000EF6AC20EDBCFE9FFDB2AC30EDBCFEAFF75
:1047200001E3DB2ABD0EDB2ABE0E01E3DB2ADFD765
:10473000BA0EF36EC40EF3CFDBFF010EE76EFD0E73
:10474000DBCFE9FFFE0EDBCFEAFFE750E926000EE4
:10475000EA22C70EEFCFDBFF020EE76EFD0EDBCFC6
:10476000E9FFFE0EDBCFEAFFE750E926000EEA2262
:10477000C80EEFCFDBFF030EE76EFD0EDBCFE9FFC8
:10478000FE0EDBCFEAFFE750E926000EEA22C90E53
:10479000EFCFDBFF400EF36ECD0EF3CFDBFFA00EAD
:1047A000E66E72EC38F0E552AA0EF36EC10EF3CF4E
:1047B000DBFFBD0EDB6ABE0EDB6AC10EDB505808A4
:1047C0001DE0BD0EDB2ABE0E01E3DB2A32EC38F021
:1047D000E76EC10EE7CFDBFFBD0EDBCF14F0BE0EE0
:1047E000DBCF15F0166A500E141804E1C30E15182D
:1047F00001E1165002E1030E63D0DFD7D950C40F98
:10480000146EFF0EDA20156EC20E14C0DBFFC30E4D
:1048100015C0DBFFBD0EDB6ABE0EDB6AC20EDBCF4E
:1048200014F0C30EDBCF15F0D950D10F166EFF0E6A
:10483000DA20176E1650145C1750155822E2C20E7B
:10484000DBCFE6FFC30EDBCFE6FF34EC39F0E552F9
:10485000E552C20EDBCFE9FFDB2AC30EDBCFEAFF56
:1048600001E3DB2AC20EDBCFE9FFDB2AC30EDBCF7D
:10487000EAFF01E3DB2ABD0EDB2ABE0E01E3DB2AE1
:10488000CDD7AA0EF36EC10EF3CFDBFF32EC38F0BA
:10489000E76EC10EE7CFDBFFAA0EF36EEC0EF3CF8F
:1048A000DBFF97EC37F0E76EEC0EE7CFDBFFC10ED6
:1048B000DB50510803E1010E03D002D0000E00D0FE
:1048C000E552E7CFD9FF1200D9CFE6FFE1CFD9FFFC
:1048D000D950C40F146EFF0EDA20156EC20E14C02C
:1048E000DBFFC30E15C0DBFFBD0EDB6ABE0EDB6A4D
:1048F000BD0EDBCF14F0BE0EDBCF15F0100E145C36
:10490000000E155816E2C20EDBCFE9FFC30EDBCF57
:10491000EAFFEF6AC20EDBCFE9FFDB2AC30EDBCF73
:10492000EAFF01E3DB2ABD0EDB2ABE0E01E3DB2A30
:10493000DFD7BA0EF36EC40EF3CFDBFF100EF36EAB
:10494000C70EF3CFDBFF010EE76EFD0EDBCFE9FFF5
:10495000FE0EDBCFEAFFE750E926000EEA22C70E83
:10496000EFCFDBFF020EE76EFD0EDBCFE9FFFE0EA1
:10497000DBCFEAFFE750E926000EEA22C80EEFCFB0
:10498000DBFF030EE76EFD0EDBCFE9FFFE0EDBCF94
:10499000EAFFE750E926000EEA22C90EEFCFDBFF5F
:1049A000400EF36ECD0EF3CFDBFFA00EE66E72EC81
:1049B00038F0E552AA0EF36EC10EF3CFDBFFBD0E49
:1049C000DB6ABE0EDB6AC10EDB5058081DE0BD0E6F
:1049D000DB2ABE0E01E3DB2A32EC38F0E76EC10EB3
:1049E000E7CFDBFFBD0EDBCF14F0BE0EDBCF15F043
:1049F000166A500E141804E1C30E151801E1165082
:104A000002E1030E63D0DFD7D950C40F146EFF0E3E
:104A1000DA20156EC20E14C0DBFFC30E15C0DBFF1B
:104A2000BD0EDB6ABE0EDB6AC20EDBCF14F0C30E16
:104A3000DBCF15F0D950D10F166EFF0EDA20176EAE
:104A40001650145C1750155822E2C20EDBCFE6FF59
:104A5000C30EDBCFE6FF34EC39F0E552E552C20E6F
:104A6000DBCFE9FFDB2AC30EDBCFEAFF01E3DB2A62
:104A7000C20EDBCFE9FFDB2AC30EDBCFEAFF01E387
:104A8000DB2ABD0EDB2ABE0E01E3DB2ACDD7AA0E40
:104A9000F36EC10EF3CFDBFF32EC38F0E76EC10EE0
:104AA000E7CFDBFFAA0EF36EEC0EF3CFDBFF97EC44
:104AB00037F0E76EEC0EE7CFDBFFC10EDB5051089D
:104AC00003E1010E03D002D0000E00D0E552E7CF83
:104AD000D9FF1200D9CFE6FFE1CFD9FFD950C60FD9
:104AE000146EFF0EDA20156EC40E14C0DBFFC50E67
:104AF00015C0DBFFBF0EDB6AC00EDB6ABF0EDBCF6B
:104B000014F0C00EDBCF15F0100E145C000E15581B
:104B100016E2C40EDBCFE9FFC50EDBCFEAFFEF6A7A
:104B2000C40EDBCFE9FFDB2AC50EDBCFEAFF01E3D2
:104B3000DB2ABF0EDB2AC00E01E3DB2ADFD74E0ED5
:104B4000F36EC60EF3CFDBFFA00EE66E72EC38F00C
:104B5000E552AA0EF36EC30EF3CFDBFFBF0EDB6A86
:104B6000C00EDB6AC30EDB5058081DE0BF0EDB2A07
:104B7000C00E01E3DB2A32EC38F0E76EC30EE7CF5C
:104B8000DBFFBF0EDBCF14F0C00EDBCF15F0166AD3
:104B9000500E141804E1C30E151801E1165002E17D
:104BA000030E58D0DFD7D950C60F146EFF0EDA208F
:104BB000156EC40E14C0DBFFC50E15C0DBFFBF0EA3
:104BC000DB6AC00EDB6AC40EDBCF14F0C50EDBCF90
:104BD00015F0D950D30F166EFF0EDA20176E16504F
:104BE000145C1750155822E2C40EDBCFE6FFC50E49
:104BF000DBCFE6FF34EC39F0E552E552C40EDBCFF3
:104C0000E9FFDB2AC50EDBCFEAFF01E3DB2AC40E96
:104C1000DBCFE9FFDB2AC50EDBCFEAFF01E3DB2AAE
:104C2000BF0EDB2AC00E01E3DB2ACDD7AA0EF36E3E
:104C3000C30EF3CFDBFF32EC38F0E76EC30EE7CFE5
:104C4000DBFFC30EDB50510803E1000E03D002D09E
:104C5000010E00D0E552E7CFD9FF1200D9CFE6FF11
:104C6000E1CFD9FFD950C60F146EFF0EDA20156EB2
:104C7000C40E14C0DBFFC50E15C0DBFFBF0EDB6A20
:104C8000C00EDB6ABF0EDBCF14F0C00EDBCF15F019
:104C9000100E145C000E155816E2C40EDBCFE9FFAF
:104CA000C50EDBCFEAFFEF6AC40EDBCFE9FFDB2ADC
:104CB000C50EDBCFEAFF01E3DB2ABF0EDB2AC00E05
:104CC00001E3DB2ADFD74B0EF36EC60EF3CFDBFF1B
:104CD000CE0EDB6AA00EE66E72EC38F0E552AA0E3C
:104CE000F36EC30EF3CFDBFFBF0EDB6AC00EDB6AD1
:104CF000C30EDB5058081DE0BF0EDB2AC00E01E3D7
:104D0000DB2A32EC38F0E76EC30EE7CFDBFFBF0ED5
:104D1000DBCF14F0C00EDBCF15F0166A500E14185E
:104D200004E1C30E151801E1165002E1030E58D03C
:104D3000DFD7D950C60F146EFF0EDA20156EC40EE1
:104D400014C0DBFFC50E15C0DBFFBF0EDB6AC00E53
:104D5000DB6AC40EDBCF14F0C50EDBCF15F0D950E3
:104D6000D30F166EFF0EDA20176E1650145C175014
:104D7000155822E2C40EDBCFE6FFC50EDBCFE6FFFF
:104D800034EC39F0E552E552C40EDBCFE9FFDB2A03
:104D9000C50EDBCFEAFF01E3DB2AC40EDBCFE9FF60
:104DA000DB2AC50EDBCFEAFF01E3DB2ABF0EDB2ADD
:104DB000C00E01E3DB2ACDD7AA0EF36EC30EF3CFEC
:104DC000DBFF32EC38F0E76EC30EE7CFDBFFC30E3C
:104DD000DB50510803E1000E03D002D0010E00D0D9
:104DE000E552E7CFD9FF1200D9CFE6FFE1CFD9FFD7
:104DF000D950C60F146EFF0EDA20156EC40E14C003
:104E0000DBFFC50E15C0DBFFBF0EDB6AC00EDB6A21
:104E1000BF0EDBCF14F0C00EDBCF15F0100E145C0C
:104E2000000E155816E2C40EDBCFE9FFC50EDBCF2E
:104E3000EAFFEF6AC40EDBCFE9FFDB2AC50EDBCF4A
:104E4000EAFF01E3DB2ABF0EDB2AC00E01E3DB2A07
:104E5000DFD74B0EF36EC60EF3CFDBFF010EF36E02
:104E6000CE0EF3CFDBFFA00EE66E72EC38F0E5520B
:104E7000AA0EF36EC30EF3CFDBFFBF0EDB6AC00ECC
:104E8000DB6AC30EDB5058081DE0BF0EDB2AC00EE4
:104E900001E3DB2A32EC38F0E76EC30EE7CFDBFF2D
:104EA000BF0EDBCF14F0C00EDBCF15F0166A500E2C
:104EB000141804E1C30E151801E1165002E1030EA7
:104EC00058D0DFD7D950C60F146EFF0EDA20156EFA
:104ED000C40E14C0DBFFC50E15C0DBFFBF0EDB6ABE
:104EE000C00EDB6AC40EDBCF14F0C50EDBCF15F0AD
:104EF000D950D30F166EFF0EDA20176E1650145CC1
:104F00001750155822E2C40EDBCFE6FFC50EDBCFEB
:104F1000E6FF34EC39F0E552E552C40EDBCFE9FF91
:104F2000DB2AC50EDBCFEAFF01E3DB2AC40EDBCFB1
:104F3000E9FFDB2AC50EDBCFEAFF01E3DB2ABF0E68
:104F4000DB2AC00E01E3DB2ACDD7AA0EF36EC30E17
:104F5000F3CFDBFF32EC38F0E76EC30EE7CFDBFFB9
:104F6000C30EDB50510803E1000E03D002D0010E46
:104F700000D0E552E7CFD9FF1200D9CFE6FFE1CF4D
:104F8000D9FFD950C40F146EFF0EDA20156EC20E71
:104F900014C0DBFFC30E15C0DBFFBD0EDB6ABE0E07
:104FA000DB6ABD0EDBCF14F0BE0EDBCF15F0100EAA
:104FB000145C000E155816E2C20EDBCFE9FFC30EDB
:104FC000DBCFEAFFEF6AC20EDBCFE9FFDB2AC30EBD
:104FD000DBCFEAFF01E3DB2ABD0EDB2ABE0E01E3D5
:104FE000DB2ADFD7120EF36EC40EF3CFDBFFC70E42
:104FF000DB6AC80EDB68A00EE66E72EC38F0E55294
:10500000AA0EF36EC10EF3CFDBFFBD0EDB6ABE0E40
:10501000DB6AC10EDB5058081DE0BD0EDB2ABE0E58
:1050200001E3DB2A32EC38F0E76EC10EE7CFDBFF9D
:10503000BD0EDBCF14F0BE0EDBCF15F0166A500E9E
:10504000141804E1C30E151801E1165002E1030E15
:1050500077D1DFD7D950C40F146EFF0EDA20156E4A
:10506000C20E14C0DBFFC30E15C0DBFFBD0EDB6A32
:10507000BE0EDB6AC20EDBCF14F0C30EDBCF15F021
:10508000D950D10F166EFF0EDA20176E1650145C31
:105090001750155822E2C20EDBCFE6FFC30EDBCF5E
:1050A000E6FF34EC39F0E552E552C20EDBCFE9FF02
:1050B000DB2AC30EDBCFEAFF01E3DB2AC20EDBCF24
:1050C000E9FFDB2AC30EDBCFEAFF01E3DB2ABD0EDB
:1050D000DB2ABE0E01E3DB2ACDD7BD0EDB6ABE0E96
:1050E000DB6AAA0EF36EC10EF3CFDBFFC10EDB50FD
:1050F000580801E193D0BD0EDB2ABE0E01E3DB2A86
:10510000C10EDB50510804E0C10EDB50500869E1CC
:10511000A00EE66E72EC38F0E552AA0EF36EC10EE8
:10512000F3CFDBFFBF0EDB6AC00EDB6AC10EDB50C4
:1051300058081DE0BF0EDB2AC00E01E3DB2A32EC6B
:1051400038F0E76EC10EE7CFDBFFBD0EDBCF14F00A
:10515000BE0EDBCF15F0166A500E141804E1C30E14
:10516000151801E1165002E1020EEAD0DFD7D9503E
:10517000C40F146EFF0EDA20156EC20E14C0DBFFD2
:10518000C30E15C0DBFFC20EDBCF14F0C30EDBCFA6
:1051900015F0D950D10F166EFF0EDA20176E16508B
:1051A000145C175015581DE2C20EDBCFE6FFC30E8C
:1051B000DBCFE6FF34EC39F0E552E552C20EDBCF2F
:1051C000E9FFDB2AC30EDBCFEAFF01E3DB2AC20ED5
:1051D000DBCFE9FFDB2AC30EDBCFEAFF01E3DB2AEB
:1051E000D2D7AA0EF36EC10EF3CFDBFF32EC38F04C
:1051F000E76EC10EE7CFDBFFBD0EDBCF14F0BE0EB6
:10520000DBCF15F0166A500E141804E1C30E151802
:1052100001E1165002E1020E93D068D7BD0EDB6AA1
:10522000BE0EDB6AC10EDB50080B080801E078D027
:10523000D950BD0FE96EFF0EDA20EA6E400EEE186F
:1052400001E1ED506DE0FD0EDBCFE6FFFE0EDBCFA2
:10525000E6FF09EC39F0E552E552FD0EDBCFE9FF40
:10526000DB2AFE0EDBCFEAFF01E3DB2AFD0EDBCFFC
:10527000E9FFFE0EDBCFEAFFE906000EEA5AEF5027
:10528000E66E010EE76EFD0EDBCFE9FFFE0EDBCF13
:10529000EAFFE750E926000EEA22E552E750EF6EFA
:1052A000FD0EDBCFE9FFFE0EDBCFEAFFEF50E66E2F
:1052B000FD0EDBCFE9FFFE0EDBCFEAFFE906000EB5
:1052C000EA5AE552E750EF6E010EE76EFD0EDBCFB6
:1052D000E9FFFE0EDBCFEAFFE750E926000EEA22E7
:1052E000EF50E66EFD0EDBCFE9FFFE0EDBCFEAFFEF
:1052F000E552E750EF6EFD0EDBCFE9FFDB2AFE0E35
:10530000DBCFEAFF01E3DB2ABD0EDB2ABE0E01E3A1
:10531000DB2A32EC38F0E76EC10EE7CFDBFF82D735
:10532000D950BD0FE96EFF0EDA20EA6E400EEE187E
:1053300001E1ED5003E1030E03D002D0000E00D0D6
:08534000E552E7CFD9FF12008E
:08534800D8CFE4FFE0CFE4FF41
:10535000E46EDACFE4FFE2CFDAFFE9CFE4FFEACF91
:10536000E4FFE6529EA6A1D00101FE819E960101B6
:10537000FFA924D0827EC950F1C0E9FFF2C0EAFF44
:10538000EF6E0101152B0001F1C0E9FFF2C0EAFF49
:10539000F12B000EF223010114510101165D09E207
:1053A000F1C0E9FFF2C0EAFFEF50C96E0101162B10
:1053B00005D0838C0101146B0101FF990101FFA14C
:1053C0002DD0C950F1C0E9FFF2C0EAFFEF6E010134
:1053D000012B0001F1C0E9FFF2C0EAFFF12B000E42
:1053E000F223010102B107D0838E838E838E838ED8
:1053F000838E839E839E010100510101025D09E2BB
:10540000F1C0E9FFF2C0EAFFEF50C96E0101022BC3
:1054100005D0838E0101006B0101FF910101FFA303
:1054200044D0C950F1C0E9FFF2C0EAFFEF6E0001BD
:10543000C72B0001F1C0E9FFF2C0EAFFF12B000E1B
:10544000F223040E0001C85D05E182808280828023
:10545000828082900001C6510001C85D09E2F1C05E
:10546000E9FFF2C0EAFFEF50C96E0001C82B1DD062
:1054700082800001C86B0001C76B0101FFAB13D034
:105480000101FF9BD7C0D6F0D8C0D7F0CDC0D8F06F
:105490000001D85108E00001D75105E10001D651C3
:1054A00002E1D8C060F00101FF939EA2C8EF2FF087
:1054B0000101FFA505D00001EF6BF06B0101FF9525
:1054C0000001ED2B000EEE230001EF2B000EF02368
:1054D000630E0001ED1901E1EE5102E14AEF2FF0F8
:1054E000620E0001ED1901E1EE5102E10DEF2FF026
:1054F0005E0E0001ED1901E1EE5102E1F4EF2EF034
:105500005A0E0001ED1901E1EE5102E1DCEF2EF03F
:105510004F0E0001ED1901E1EE5101E1E7D34E0E0E
:105520000001ED1901E1EE5101E1A3D34A0E0001A2
:10553000ED1901E1EE5101E183D3460E0001ED19B1
:1055400001E1EE5101E164D33B0E0001ED1901E1EF
:10555000EE5101E1F7D23A0E0001ED1901E1EE51F1
:1055600001E1B3D2360E0001ED1901E1EE5101E186
:1055700093D2320E0001ED1901E1EE5101E174D236
:10558000270E0001ED1901E1EE5101E107D2260ECF
:105590000001ED1901E1EE5101E1C3D1220E00013C
:1055A000ED1901E1EE5101E1A3D11E0E0001ED194B
:1055B00001E1EE5101E184D11D0E0001ED1901E17F
:1055C000EE5101E138D11C0E0001ED1901E1EE515F
:1055D00001E1F2D0130E0001ED1901E1EE5101E1FC
:1055E00085D0120E0001ED1901E1EE5141E00E0EE1
:1055F0000001ED1901E1EE5121E00A0E0001ED1963
:1056000001E1EE5102E0B0EF2FF00101005114E092
:10561000140E0101005D10E2839E0001040EF16F83
:10562000010EF26FF1C0E9FFF2C0EAFFEF50C96E60
:105630000101022B0101FF81B0EF2FF00101145194
:1056400015E0140E0101145D11E2839C0001180E97
:10565000F16F010EF26F827EF1C0E9FFF2C0EAFF46
:10566000EF50C96E0101162B0101FF89B0EF2FF039
:1056700078C1C6F079C1C7F07AC1C8F07BC1C9F062
:105680007CC1CAF07DC1CBF07EC1CCF07FC1CDF032
:1056900080C1CEF081C1CFF082C1D0F083C1D1F002
:1056A00084C1D2F085C1D3F086C1D4F087C1D5F0D2
:1056B0000001C65119E0140E0001C65D15E201019A
:1056C0000101FF51020B10E182900001CA0EF16F3F
:1056D000000EF26FF1C0E9FFF2C0EAFFEF50C96EB1
:1056E0000001C82B0101FF83B0EF2FF028C1C6F0E5
:1056F00029C1C7F02AC1C8F02BC1C9F02CC1CAF01A
:105700002DC1CBF02EC1CCF02FC1CDF030C1CEF0E9
:1057100031C1CFF032C1D0F033C1D1F034C1D2F0B9
:1057200035C1D3F036C1D4F037C1D5F00001D890DF
:10573000F05104E6200EEF5D4E0EF05920E298C1C4
:10574000C6F099C1C7F09AC1C8F09BC1C9F09CC10D
:10575000CAF09DC1CBF09EC1CCF09FC1CDF0A0C1DD
:10576000CEF0A1C1CFF0A2C1D0F0A3C1D1F0A4C1AD
:10577000D2F0A5C1D3F0A6C1D4F0A7C1D5F00001E5
:10578000C65119E0140E0001C65D15E201010101C8
:10579000FF51020B10E182900001CA0EF16F000E62
:1057A000F26FF1C0E9FFF2C0EAFFEF50C96E0001ED
:1057B000C82B0101FF83D4D388C1C6F089C1C7F0CB
:1057C0008AC1C8F08BC1C9F08CC1CAF08DC1CBF0C1
:1057D0008EC1CCF08FC1CDF090C1CEF091C1CFF091
:1057E00092C1D0F093C1D1F094C1D2F095C1D3F061
:1057F00096C1D4F097C1D5F00101FF8B0001C651CD
:1058000019E0140E0001C65D15E201010101FF510E
:10581000020B10E182900001CA0EF16F000EF26FD0
:10582000F1C0E9FFF2C0EAFFEF50C96E0001C82BDA
:105830000101FF8395D388C1C6F089C1C7F08AC131
:10584000C8F08BC1C9F08CC1CAF08DC1CBF08EC13C
:10585000CCF08FC1CDF090C1CEF091C1CFF092C10C
:10586000D0F093C1D1F094C1D2F095C1D3F096C1DC
:10587000D4F097C1D5F00101FF8B0001410ECA6F32
:105880000001410ECE6F0001C65119E0140E000157
:10589000C65D15E201010101FF51020B10E182908A
:1058A0000001CA0EF16F000EF26FF1C0E9FFF2C005
:1058B000EAFFEF50C96E0001C82B0101FF8350D3EE
:1058C0000101005114E0140E0101005D10E2839EFD
:1058D0000001040EF16F010EF26FF1C0E9FFF2C09A
:1058E000EAFFEF50C96E0101022B0101FF8138D39D
:1058F0000101145115E0140E0101145D11E2839CA5
:105900000001180EF16F010EF26F827EF1C0E9FF07
:10591000F2C0EAFFEF50C96E0101162B0101FF89A9
:105920001FD378C1C6F079C1C7F07AC1C8F07BC176
:10593000C9F07CC1CAF07DC1CBF07EC1CCF07FC183
:10594000CDF080C1CEF081C1CFF082C1D0F083C153
:10595000D1F084C1D2F085C1D3F086C1D4F087C123
:10596000D5F00001C65119E0140E0001C65D15E224
:1059700001010101FF51020B10E182900001CA0EEA
:10598000F16F000EF26FF1C0E9FFF2C0EAFFEF50D5
:10599000C96E0001C82B0101FF83E2D238C1C6F0F5
:1059A00039C1C7F03AC1C8F03BC1C9F03CC1CAF027
:1059B0003DC1CBF03EC1CCF03FC1CDF040C1CEF0F7
:1059C00041C1CFF042C1D0F043C1D1F044C1D2F0C7
:1059D00045C1D3F046C1D4F047C1D5F00001D890FD
:1059E000F05104E6200EEF5D4E0EF05920E2A8C102
:1059F000C6F0A9C1C7F0AAC1C8F0ABC1C9F0ACC11B
:105A0000CAF0ADC1CBF0AEC1CCF0AFC1CDF0B0C1EA
:105A1000CEF0B1C1CFF0B2C1D0F0B3C1D1F0B4C1BA
:105A2000D2F0B5C1D3F0B6C1D4F0B7C1D5F0000102
:105A3000C65119E0140E0001C65D15E20101010115
:105A4000FF51020B10E182900001CA0EF16F000EAF
:105A5000F26FF1C0E9FFF2C0EAFFEF50C96E00013A
:105A6000C82B0101FF837CD20101005114E0140E08
:105A70000101005D10E2839E0001040EF16F010E32
:105A8000F26FF1C0E9FFF2C0EAFFEF50C96E010109
:105A9000022B0101FF8164D20101145115E0140EA3
:105AA0000101145D11E2839C0001180EF16F010EDB
:105AB000F26F827EF1C0E9FFF2C0EAFFEF50C96EDB
