:020000040000FA
:06000000A3EF31F0120035
:020006000000F8
:0600080022EF1FF01200C0
:02000E00257556
:0100100000EF
:020012001200DA
:020014001200D8
:0600180039EF26F0120092
:02001E00D9CF38
:10002000E6FFE1CFD9FF280EE126DE6ADD6ADECFEA
:1000300014F0DDCF15F0100E145C000E155811E20F
:10004000D950060F146EDACF15F0DE501424E96E85
:10005000DD501520EA6EEF6ADF2A010E01E3DB2A8C
:10006000E6D7BD0EF36E060EF3CFDBFF080EF36E80
:100070000F0EF3CFDBFFA00EE66EF0EC2DF0E55295
:10008000AA0EF36E050EF3CFDBFFDE6ADD6A050E06
:10009000DB5058081AE0DF2A010E01E3DB2AB0EC3E
:1000A0002DF0E76E050EE7CFDBFFDECF14F0DDCFDE
:1000B00015F0166A500E141804E1C30E151801E16C
:1000C000165002E1030E87D1E2D7D950060F146E05
:1000D000DACF15F0260E14C0DBFF270E15C0DBFFAC
:1000E000DE6ADD6A260EDBCF14F0270EDBCF15F0BB
:1000F000D950120F166EDACF17F01650145C175045
:10010000155821E2260EDBCFE6FF270EDBCFE6FFF8
:10011000B2EC2EF0E552E552260EDBCFE9FFDB2AEA
:10012000270EDBCFEAFF01E3DB2A260EDBCFE9FF58
:10013000DB2A270EDBCFEAFF01E3DB2ADF2A010EF1
:1001400001E3DB2ACFD7DE6ADD6AAA0EF36E050E65
:10015000F3CFDBFF050EDB50580801E18ED0DF2A1C
:10016000010E01E3DB2A050EDB50510804E0050E09
:10017000DB50500867E1A00EE66EF0EC2DF0E55282
:10018000AA0EF36E050EF3CFDBFF020EDB6A030E41
:10019000DB6A050EDB5058081DE0020EDB2A030E59
:1001A00001E3DB2AB0EC2DF0E76E050EE7CFDBFFB5
:1001B000020EDBCF14F0030EDBCF15F0166A500EE3
:1001C000141804E1C30E151801E1165002E1030EE4
:1001D00002D1DFD7D950060F146EDACF15F0260EF4
:1001E00014C0DBFF270E15C0DBFF260EDBCF14F09B
:1001F000270EDBCF15F0D950120F166EDACF17F09D
:100200001650145C175015581DE2260EDBCFE6FF82
:10021000270EDBCFE6FFB2EC2EF0E552E552260EBC
:10022000DBCFE9FFDB2A270EDBCFEAFF01E3DB2A86
:10023000260EDBCFE9FFDB2A270EDBCFEAFF01E347
:10024000DB2AD3D7AA0EF36E050EF3CFDBFFB0EC9B
:100250002DF0E76E050EE7CFDBFFDECF14F0DDCF2C
:1002600015F0166A500E141804E1C30E151801E1BA
:10027000165002E1030EAFD06DD7D950160F146E91
:10028000DACF15F0260E14C0DBFF270E15C0DBFFFA
:10029000DE6ADD6A050EDB50080B080875E1D9CF70
:1002A000E9FFDACFEAFF0C0EEE1801E1ED506CE049
:1002B000260EDBCFE6FF270EDBCFE6FF87EC2EF026
:1002C000E552E552260EDBCFE9FFDB2A270EDBCF16
:1002D000EAFF01E3DB2A260EDBCFE9FF270EDBCFA7
:1002E000EAFFE906000EEA5AEF50E66E010EE76EED
:1002F000260EDBCFE9FF270EDBCFEAFFE750E9262A
:10030000000EEA22E552E750EF6E260EDBCFE9FF42
:10031000270EDBCFEAFFEF50E66E260EDBCFE9FFBC
:10032000270EDBCFEAFFE906000EEA5AE552E75056
:10033000EF6E010EE76E260EDBCFE9FF270EDBCF57
:10034000EAFFE750E926000EEA22EF50E66E260E9D
:10035000DBCFE9FF270EDBCFEAFFE552E750EF6E78
:10036000260EDBCFE9FFDB2A270EDBCFEAFF01E316
:10037000DB2ADF2A010E01E3DB2AB0EC2DF0E76E69
:10038000050EE7CFDBFF86D7160EDB500AE0170E0F
:10039000DB50E00B06E0020EF36E050EF3CFDBFF41
:1003A00017D0170EDB50F00B03E1050EDB6A10D0FF
:1003B000170EDB50F00B100806E1010EF36E050E70
:1003C000F3CFDBFF05D0030EF36E050EF3CFDBFF9B
:1003D000050EDB5000D0146E280EE15C02E2E16AEB
:1003E000E552E16E1450E552E7CFD9FF1200D9CFA4
:1003F000E6FFE1CFD9FF150EE126DE6ADD6ADECF2A
:1004000014F0DDCF15F0100E145C000E155811E23B
:10041000D950030F146EDACF15F0DE501424E96EB4
:10042000DD501520EA6EEF6ADF2A010E01E3DB2AB8
:10043000E6D71B0EF36E030EF3CFDBFF020EF36E57
:10044000070EF3CFDBFFA00EE66EF0EC2DF0E552C9
:10045000AA0EF36E020EF3CFDBFFDE6ADD6A020E38
:10046000DB5058081AE0DF2A010E01E3DB2AB0EC6A
:100470002DF0E76E020EE7CFDBFFDECF14F0DDCF0D
:1004800015F0166A500E141804E1C30E151801E198
:10049000165002E1030E53D0E2D7D950030F146E69
:1004A000DACF15F0130E14C0DBFF140E15C0DBFFFE
:1004B000DE6ADD6A130EDBCF14F0140EDBCF15F00D
:1004C000D950100F166EDACF17F01650145C175073
:1004D000155821E2130EDBCFE6FF140EDBCFE6FF4B
:1004E000B2EC2EF0E552E552130EDBCFE9FFDB2A2A
:1004F000140EDBCFEAFF01E3DB2A130EDBCFE9FFAB
:10050000DB2A140EDBCFEAFF01E3DB2ADF2A010E30
:1005100001E3DB2ACFD7AA0EF36E020EF3CFDBFF87
:10052000B0EC2DF0E76E020EE7CFDBFF020EDB50E2
:10053000510803E1000E03D002D0010E00D0146E6A
:10054000150EE15C02E2E16AE552E16E1450E552FB
:10055000E7CFD9FF1200D9CFE6FFE1CFD9FF150EC3
:10056000E126DE6ADD6ADECF14F0DDCF15F0100E75
:10057000145C000E155811E2D950030F146EDACF37
:1005800015F0DE501424E96EDD501520EA6EEF6A96
:10059000DF2A010E01E3DB2AE6D71B0EF36E030E02
:1005A000F3CFDBFF030EF36E070EF3CFDBFFA00EDE
:1005B000E66EF0EC2DF0E552AA0EF36E020EF3CFCC
:1005C000DBFFDE6ADD6A020EDB5058081AE0DF2A24
:1005D000010E01E3DB2AB0EC2DF0E76E020EE7CF4F
:1005E000DBFFDECF14F0DDCF15F0166A500E1418C5
:1005F00004E1C30E151801E1165002E1030E53D0B9
:10060000E2D7D950030F146EDACF15F0130E14C0D1
:10061000DBFF140E15C0DBFFDE6ADD6A130EDBCFD5
:1006200014F0140EDBCF15F0D950100F166EDACF80
:1006300017F01650145C1750155821E2130EDBCF3B
:10064000E6FF140EDBCFE6FFB2EC2EF0E552E552EA
:10065000130EDBCFE9FFDB2A140EDBCFEAFF01E349
:10066000DB2A130EDBCFE9FFDB2A140EDBCFEAFF18
:1006700001E3DB2ADF2A010E01E3DB2ACFD7AA0E32
:10068000F36E020EF3CFDBFFB0EC2DF0E76E020E3F
:10069000E7CFDBFF020EDB50510803E1000E03D071
:1006A00002D0010E00D0146E150EE15C02E2E16A88
:1006B000E552E16E1450E552E7CFD9FF1200D9CFD1
:1006C000E6FFE1CFD9FF170EE126DE6ADD6ADECF55
:1006D00014F0DDCF15F0100E145C000E155811E269
:1006E000D950050F146EDACF15F0DE501424E96EE0
:1006F000DD501520EA6EEF6ADF2A010E01E3DB2AE6
:10070000E6D7430EF36E050EF3CFDBFF020EF36E5A
:10071000060EF3CFDBFF070EDB6A100EF36E0C0E36
:10072000F3CFDBFF0D0EDB6AA00EE66EF0EC2DF0D2
:10073000E552AA0EF36E040EF3CFDBFFDE6ADD6A2C
:10074000040EDB50580823E0DF2A010E01E3DB2A08
:10075000B0EC2DF0E76E040EE7CFDBFF040EDB50AC
:10076000480805E1580EF36E040EF3CFDBFFDECF31
:1007700014F0DDCF15F0166A500E141804E1C30E04
:10078000151801E1165002E1030E5BD1D9D7D950FB
:10079000050F146EDACF15F0150E14C0DBFF160E20
:1007A00015C0DBFFDE6ADD6A150EDBCF14F0160E16
:1007B000DBCF15F0D950120F166EDACF17F01650A6
:1007C000145C1750155821E2150EDBCFE6FF160E0C
:1007D000DBCFE6FFB2EC2EF0E552E552150EDBCF93
:1007E000E9FFDB2A160EDBCFEAFF01E3DB2A150E59
:1007F000DBCFE9FFDB2A160EDBCFEAFF01E3DB2AC2
:10080000DF2A010E01E3DB2ACFD7DE6ADD6AAA0EFA
:10081000F36E040EF3CFDBFF040EDB50580801E14A
:100820008ED0DF2A010E01E3DB2A040EDB505108D3
:1008300004E0040EDB50500867E1A00EE66EF0EC19
:100840002DF0E552AA0EF36E040EF3CFDBFF020E7D
:10085000DB6A030EDB6A040EDB5058081DE0020E53
:10086000DB2A030E01E3DB2AB0EC2DF0E76E040E69
:10087000E7CFDBFF020EDBCF14F0030EDBCF15F06A
:10088000166A500E141804E1C30E151801E1165033
:1008900002E1020ED6D0DFD7D950050F146EDACFA1
:1008A00015F0150E14C0DBFF160E15C0DBFF150E7C
:1008B000DBCF14F0160EDBCF15F0D950120F166EE9
:1008C000DACF17F01650145C175015581DE2150EAC
:1008D000DBCFE6FF160EDBCFE6FFB2EC2EF0E552E3
:1008E000E552150EDBCFE9FFDB2A160EDBCFEAFF60
:1008F00001E3DB2A150EDBCFE9FFDB2A160EDBCF87
:10090000EAFF01E3DB2AD3D7AA0EF36E040EF3CF7E
:10091000DBFFB0EC2DF0E76E040EE7CFDBFFDECFA0
:1009200014F0DDCF15F0166A500E141804E1C30E52
:10093000151801E1165002E1020E83D06DD7DE6A70
:10094000DD6A040EDB50080B080801E078D0FD0ECC
:10095000DBCFE6FFFE0EDBCFE6FF87EC2EF0E552A5
:10096000E552FD0EDBCFE9FFDB2AFE0EDBCFEAFF0F
:1009700001E3DB2AFD0EDBCFE9FFFE0EDBCFEAFF52
:10098000E906000EEA5AEF50E66E010EE76EFD0E24
:10099000DBCFE9FFFE0EDBCFEAFFE750E926000ED2
:1009A000EA22E552E750EF6EFD0EDBCFE9FFFE0EC7
:1009B000DBCFEAFFEF50E66EFD0EDBCFE9FFFE0E68
:1009C000DBCFEAFFE906000EEA5AE552E750EF6E88
:1009D000010EE76EFD0EDBCFE9FFFE0EDBCFEAFF77
:1009E000E750E926000EEA22EF50E66EFD0EDBCF5F
:1009F000E9FFFE0EDBCFEAFFE552E750EF6EFD0E9A
:100A0000DBCFE9FFDB2AFE0EDBCFEAFF01E3DB2AC7
:100A1000DF2A010E01E3DB2AB0EC2DF0E76E040EB5
:100A2000E7CFDBFFD9CFE9FFDACFEAFFE80EEE1818
:100A300002E1030EED1802E1010E03D082D7000E91
:100A400000D0146E170EE15C02E2E16AE552E16E3D
:100A50001450E552E7CFD9FF1200D9CFE6FFE1CF1E
:100A6000D9FF160EE126030EE76EFC0EDBCFE9FF81
:100A7000FD0EDBCFEAFFE750E926000EEA22030E67
:100A8000EFCFDBFFFE0EDBCF14F0030EDB50D88080
:100A9000145402E2010E33D1DE6ADD6ADECF14F0B7
:100AA000DDCF15F0100E145C000E155811E2D95070
:100AB000040F146EDACF15F0DE501424E96EDD5009
:100AC0001520EA6EEF6ADF2A010E01E3DB2AE6D782
:100AD000470EF36E040EF3CFDBFF090EE76EFC0E3C
:100AE000DBCF14F0FD0EDBCF15F0E7501426000E1F
:100AF0001522FE0EDB04080DF3500F011424E96EDD
:100B0000000E1520EA6E070EEFCFDBFF0A0EE76E30
:100B1000FC0EDBCF14F0FD0EDBCF15F0E7501426F2
:100B2000000E1522FE0EDB04080DF3500F011424F5
:100B3000E96E000E1520EA6E080EEFCFDBFF0B0EFC
:100B4000E76EFC0EDBCF14F0FD0EDBCF15F0E750A7
:100B50001426000E1522FE0EDB04080DF3500F01C3
:100B60001424E96E000E1520EA6E090EEFCFDBFFAC
:100B7000090EE76EFC0EDBCF14F0FD0EDBCF15F097
:100B8000E7501426000E1522030EDB50080DF3501B
:100B90000F011424E96E000E1520EA6E0A0EEFCF45
:100BA000DBFF0A0EE76EFC0EDBCF14F0FD0EDBCF91
:100BB00015F0E7501426000E1522030EDB50080D29
:100BC000F3500F011424E96E000E1520EA6E0B0E8F
:100BD000EFCFDBFF0B0EE76EFC0EDBCF14F0FD0E4C
:100BE000DBCF15F0E7501426000E1522030EDB5064
:100BF000080DF3500F011424E96E000E1520EA6E63
:100C00000C0EEFCFDBFFA00EE66EF0EC2DF0E55200
:100C1000AA0EF36E020EF3CFDBFFDE6ADD6A020E70
:100C2000DB5058081AE0DF2A010E01E3DB2AB0ECA2
:100C30002DF0E76E020EE7CFDBFFDECF14F0DDCF45
:100C400015F0166A500E141804E1C30E151801E1D0
:100C5000165002E1030E53D0E2D7D950040F146EA0
:100C6000DACF15F0140E14C0DBFF150E15C0DBFF34
:100C7000DE6ADD6A140EDBCF14F0150EDBCF15F043
:100C8000D950110F166EDACF17F01650145C1750AA
:100C9000155821E2140EDBCFE6FF150EDBCFE6FF81
:100CA000B2EC2EF0E552E552140EDBCFE9FFDB2A61
:100CB000150EDBCFEAFF01E3DB2A140EDBCFE9FFE1
:100CC000DB2A150EDBCFEAFF01E3DB2ADF2A010E68
:100CD00001E3DB2ACFD7AA0EF36E020EF3CFDBFFC0
:100CE000B0EC2DF0E76E020EE7CFDBFF020EDB501B
:100CF000510803E1020E03D002D0000E00D0146EA2
:100D0000160EE15C02E2E16AE552E16E1450E55232
:100D1000E7CFD9FF1200D9CFE6FFE1CFD9FF160EFA
:100D2000E126030EE76EFB0EDBCFE9FFFC0EDBCF07
:100D3000EAFFE750E926000EEA22030EEFCFDBFFC1
:100D4000FD0EDBCFE9FFFE0EDBCFEAFFEFCF14F0A5
:100D5000030EDB50D880145402E2010E15D1DE6A76
:100D6000DD6ADECF14F0DDCF15F0100E145C000E3E
:100D7000155811E2D950040F146EDACF15F0DE5079
:100D80001424E96EDD501520EA6EEF6ADF2A010EA9
:100D900001E3DB2AE6D7470EF36E040EF3CFDBFF49
:100DA000010EE76EFD0EDBCFE9FFFE0EDBCFEAFFA3
:100DB000E750E926000EEA22070EEFCFDBFF020E16
:100DC000E76EFD0EDBCFE9FFFE0EDBCFEAFFE7505B
:100DD000E926000EEA22080EEFCFDBFF030EE76ED6
:100DE000FD0EDBCFE9FFFE0EDBCFEAFFE750E92681
:100DF000000EEA22090EEFCFDBFF090EE76EFB0EB5
:100E0000DBCF14F0FC0EDBCF15F0E7501426000EFC
:100E10001522030EDB50080DF3500F011424E96E68
:100E2000000E1520EA6E0A0EEFCFDBFF0A0EE76E0A
:100E3000FB0EDBCF14F0FC0EDBCF15F0E7501426D1
:100E4000000E1522030EDB50080DF3500F01142481
:100E5000E96E000E1520EA6E0B0EEFCFDBFF0B0ED6
:100E6000E76EFB0EDBCF14F0FC0EDBCF15F0E75086
:100E70001426000E1522030EDB50080DF3500F014F
:100E80001424E96E000E1520EA6E0C0EEFCFDBFF86
:100E9000A00EE66EF0EC2DF0E552AA0EF36E020EF7
:100EA000F3CFDBFFDE6ADD6A020EDB5058081AE082
:100EB000DF2A010E01E3DB2AB0EC2DF0E76E020E13
:100EC000E7CFDBFFDECF14F0DDCF15F0166A500E52
:100ED000141804E1C30E151801E1165002E1030EC7
:100EE00053D0E2D7D950040F146EDACF15F0140E98
:100EF00014C0DBFF150E15C0DBFFDE6ADD6A140EC1
:100F0000DBCF14F0150EDBCF15F0D950110F166E94
:100F1000DACF17F01650145C1750155821E2140E52
:100F2000DBCFE6FF150EDBCFE6FFB2EC2EF0E5528D
:100F3000E552140EDBCFE9FFDB2A150EDBCFEAFF0B
:100F400001E3DB2A140EDBCFE9FFDB2A150EDBCF32
:100F5000EAFF01E3DB2ADF2A010E01E3DB2ACFD718
:100F6000AA0EF36E020EF3CFDBFFB0EC2DF0E76EAE
:100F7000020EE7CFDBFF020EDB50510803E1020E49
:100F800003D002D0000E00D0146E160EE15C02E217
:100F9000E16AE552E16E1450E552E7CFD9FF120045
:100FA000D9CFE6FFE1CFD9FF290EE126DE6ADD6A5F
:100FB000DECF14F0DDCF15F0100E145C000E1558C6
:100FC00011E2D950050F146EDACF15F0DE5014245B
:100FD000E96EDD501520EA6EEF6ADF2A010E01E3AB
:100FE000DB2AE6D7420EF36E050EF3CFDBFF020ECF
:100FF000F36E060EF3CFDBFF400EF36E070EF3CF5A
:10100000DBFF010EF36E080EF3CFDBFF100EF36E65
:101010000C0EF3CFDBFF0D0EDB6AA00EE66EF0ECDC
:101020002DF0E552AA0EF36E040EF3CFDBFFDE6A5D
:10103000DD6A040EDB5058081AE0DF2A010E01E3D6
:10104000DB2AB0EC2DF0E76E040EE7CFDBFFDECF3E
:1010500014F0DDCF15F0166A500E141804E1C30E1B
:10106000151801E1165002E1030EDFD1E2D7D95085
:10107000050F146EDACF15F0270E14C0DBFF280E13
:1010800015C0DBFFDE6ADD6A270EDBCF14F0280E09
:10109000DBCF15F0D950120F166EDACF17F01650BD
:1010A000145C1750155821E2270EDBCFE6FF280EFF
:1010B000DBCFE6FFB2EC2EF0E552E552270EDBCF98
:1010C000E9FFDB2A280EDBCFEAFF01E3DB2A270E4C
:1010D000DBCFE9FFDB2A280EDBCFEAFF01E3DB2AC7
:1010E000DF2A010E01E3DB2ACFD7DE6ADD6AAA0E12
:1010F000F36E040EF3CFDBFF040EDB50580801E162
:10110000ABD0DECF14F0DDCF15F0166A500E1418F8
:1011100004E1C30E151801E1165001E19DD0DF2A4C
:10112000010E01E3DB2A040EDB50510804E0040E3B
:10113000DB50500876E1A00EE66EF0EC2DF0E552A3
:10114000AA0EF36E040EF3CFDBFF020EDB6A030E72
:10115000DB6A040EDB5058082CE0020EDBCF14F0E3
:10116000030EDBCF15F0166A500E141804E1C30EFF
:10117000151801E116501DE0020EDB2A030E01E3F3
:10118000DB2AB0EC2DF0E76E040EE7CFDBFF020E9A
:10119000DBCF14F0030EDBCF15F0166A500E1418D7
:1011A00004E1C30E151801E1165002E1020E3DD113
:1011B000D0D7D950050F146EDACF15F0270E14C012
:1011C000DBFF280E15C0DBFF270EDBCF14F0280E47
:1011D000DBCF15F0D950120F166EDACF17F016507C
:1011E000145C175015581DE2270EDBCFE6FF280EC2
:1011F000DBCFE6FFB2EC2EF0E552E552270EDBCF57
:10120000E9FFDB2A280EDBCFEAFF01E3DB2A270E0A
:10121000DBCFE9FFDB2A280EDBCFEAFF01E3DB2A85
:10122000D3D7AA0EF36E040EF3CFDBFFB0EC2DF094
:10123000E76E040EE7CFDBFFDECF14F0DDCF15F055
:10124000166A500E141804E1C30E151801E1165069
:1012500002E1020EEAD050D7DE6ADD6ADECF14F07A
:10126000DDCF15F0130E145C000E155811E2D950A5
:10127000150F146EDACF15F0DE501424E96EDD5030
:101280001520EA6EEF6ADF2A010E01E3DB2AE6D7BA
:10129000DE6ADD6AD950150F146EDACF15F0270E0D
:1012A00014C0DBFF280E15C0DBFF040EDB50080B5B
:1012B000080875E1D9CFE9FFDACFEAFF120EEE1880
:1012C00001E1ED506CE0270EDBCFE6FF280EDBCF0F
:1012D000E6FF87EC2EF0E552E552270EDBCFE9FF63
:1012E000DB2A280EDBCFEAFF01E3DB2A270EDBCF68
:1012F000E9FF280EDBCFEAFFE906000EEA5AEF50BD
:10130000E66E010EE76E270EDBCFE9FF280EDBCF7E
:10131000EAFFE750E926000EEA22E552E750EF6EB9
:10132000270EDBCFE9FF280EDBCFEAFFEF50E66E9A
:10133000270EDBCFE9FF280EDBCFEAFFE906000E20
:10134000EA5AE552E750EF6E010EE76E270EDBCF4B
:10135000E9FF280EDBCFEAFFE750E926000EEA227C
:10136000EF50E66E270EDBCFE9FF280EDBCFEAFF5A
:10137000E552E750EF6E270EDBCFE9FFDB2A280EA0
:10138000DBCFEAFF01E3DB2ADF2A010E01E3DB2AE0
:10139000B0EC2DF0E76E040EE7CFDBFF86D7FD0E35
:1013A000DBCFE9FFFE0EDBCFEAFF1B0EDBCFEFFF4B
:1013B000010EE76EFD0EDBCFE9FFFE0EDBCFEAFF8D
:1013C000E750E926000EEA221E0EDBCFEFFF020EE9
:1013D000E76EFD0EDBCFE9FFFE0EDBCFEAFFE75045
:1013E000E926000EEA221F0EDBCFEFFF030EE76EA9
:1013F000FD0EDBCFE9FFFE0EDBCFEAFFE750E9266B
:10140000000EEA22200EDBCFEFFFD9CFE9FFDACFC3
:10141000EAFFE80EEE1802E1030EED1803E1030EF9
:1014200004D003D0160EDB5000D0146E290EE15C00
:1014300002E2E16AE552E16E1450E552E7CFD9FFCE
:101440001200D9CFE6FFE1CFD9FF290EE126DE6AEF
:10145000DD6ADECF14F0DDCF15F0100E145C000E47
:10146000155811E2D950050F146EDACF15F0DE5081
:101470001424E96EDD501520EA6EEF6ADF2A010EB2
:1014800001E3DB2AE6D7420EF36E050EF3CFDBFF56
:10149000020EF36E060EF3CFDBFF400EF36E070E67
:1014A000F3CFDBFF010EF36E080EF3CFDBFF100E60
:1014B000F36E0C0EF3CFDBFF0D0EDB6AA00EE66EB3
:1014C000F0EC2DF0E552AA0EF36E040EF3CFDBFF25
:1014D000DE6ADD6A040EDB5058081AE0DF2A010ECE
:1014E00001E3DB2AB0EC2DF0E76E040EE7CFDBFF63
:1014F000DECF14F0DDCF15F0166A500E141804E19B
:10150000C30E151801E1165002E1030ECED1E2D749
:10151000D950050F146EDACF15F0270E14C0DBFF7B
:10152000280E15C0DBFFDE6ADD6A270EDBCF14F064
:10153000280EDBCF15F0D950120F166EDACF17F048
:101540001650145C1750155821E2270EDBCFE6FF2A
:10155000280EDBCFE6FFB2EC2EF0E552E552270E67
:10156000DBCFE9FFDB2A280EDBCFEAFF01E3DB2A32
:10157000270EDBCFE9FFDB2A280EDBCFEAFF01E3F2
:10158000DB2ADF2A010E01E3DB2ACFD7DE6ADD6A20
:10159000AA0EF36E040EF3CFDBFF040EDB505808E7
:1015A00001E19AD0DECF14F0DDCF15F0166A500EAF
:1015B000141804E1C30E151801E1165001E18CD096
:1015C000DF2A010E01E3DB2A040EDB50510804E0A0
:1015D000040EDB50500865E1A00EE66EF0EC2DF035
:1015E000E552AA0EF36E040EF3CFDBFF020EDB6AA8
:1015F000030EDB6A040EDB5058081BE0020EDB2AE8
:10160000030E01E3DB2AB0EC2DF0E76E040EE7CF0A
:10161000DBFFDECF14F0DDCF15F0166A500E141884
:1016200004E1C30E151801E1165002E1020E3DD18E
:10163000E1D7D950050F146EDACF15F0270E14C07C
:10164000DBFF280E15C0DBFF270EDBCF14F0280EC2
:10165000DBCF15F0D950120F166EDACF17F01650F7
:10166000145C175015581DE2270EDBCFE6FF280E3D
:10167000DBCFE6FFB2EC2EF0E552E552270EDBCFD2
:10168000E9FFDB2A280EDBCFEAFF01E3DB2A270E86
:10169000DBCFE9FFDB2A280EDBCFEAFF01E3DB2A01
:1016A000D3D7AA0EF36E040EF3CFDBFFB0EC2DF010
:1016B000E76E040EE7CFDBFFDECF14F0DDCF15F0D1
:1016C000166A500E141804E1C30E151801E11650E5
:1016D00002E1020EEAD061D7DE6ADD6ADECF14F0E5
:1016E000DDCF15F0130E145C000E155811E2D95021
:1016F000150F146EDACF15F0DE501424E96EDD50AC
:101700001520EA6EEF6ADF2A010E01E3DB2AE6D735
:10171000DE6ADD6AD950150F146EDACF15F0270E88
:1017200014C0DBFF280E15C0DBFF040EDB50080BD6
:10173000080875E1D9CFE9FFDACFEAFF120EEE18FB
:1017400001E1ED506CE0270EDBCFE6FF280EDBCF8A
:10175000E6FF87EC2EF0E552E552270EDBCFE9FFDE
:10176000DB2A280EDBCFEAFF01E3DB2A270EDBCFE3
:10177000E9FF280EDBCFEAFFE906000EEA5AEF5038
:10178000E66E010EE76E270EDBCFE9FF280EDBCFFA
:10179000EAFFE750E926000EEA22E552E750EF6E35
:1017A000270EDBCFE9FF280EDBCFEAFFEF50E66E16
:1017B000270EDBCFE9FF280EDBCFEAFFE906000E9C
:1017C000EA5AE552E750EF6E010EE76E270EDBCFC7
:1017D000E9FF280EDBCFEAFFE750E926000EEA22F8
:1017E000EF50E66E270EDBCFE9FF280EDBCFEAFFD6
:1017F000E552E750EF6E270EDBCFE9FFDB2A280E1C
:10180000DBCFEAFF01E3DB2ADF2A010E01E3DB2A5B
:10181000B0EC2DF0E76E040EE7CFDBFF86D7FD0EB0
:10182000DBCFE9FFFE0EDBCFEAFF1B0EDBCFEFFFC6
:10183000010EE76EFD0EDBCFE9FFFE0EDBCFEAFF08
:10184000E750E926000EEA22220EDBCFEFFF020E60
:10185000E76EFD0EDBCFE9FFFE0EDBCFEAFFE750C0
:10186000E926000EEA22230EDBCFEFFF030EE76E20
:10187000FD0EDBCFE9FFFE0EDBCFEAFFE750E926E6
:10188000000EEA22240EDBCFEFFFD9CFE9FFDACF3B
:10189000EAFFE80EEE1802E1030EED1803E1030E75
:1018A00004D003D0160EDB5000D0146E290EE15C7C
:1018B00002E2E16AE552E16E1450E552E7CFD9FF4A
:1018C0001200D9CFE6FFE1CFD9FF160EE126DE6A7E
:1018D000DD6ADECF14F0DDCF15F0100E145C000EC3
:1018E000155811E2D950040F146EDACF15F0DE50FE
:1018F0001424E96EDD501520EA6EEF6ADF2A010E2E
:1019000001E3DB2AE6D7BA0EF36E040EF3CFDBFF5A
:10191000010EE76EFD0EDBCFE9FFFE0EDBCFEAFF27
:10192000E750E926000EEA22070EEFCFDBFF020E9A
:10193000E76EFD0EDBCFE9FFFE0EDBCFEAFFE750DF
:10194000E926000EEA22080EEFCFDBFF030EE76E5A
:10195000FD0EDBCFE9FFFE0EDBCFEAFFE750E92605
:10196000000EEA22090EEFCFDBFF400EF36E0D0EE4
:10197000F3CFDBFFA00EE66EF0EC2DF0E552AA0EE1
:10198000F36E020EF3CFDBFFDE6ADD6A020EDB5080
:1019900058081AE0DF2A010E01E3DB2AB0EC2DF033
:1019A000E76E020EE7CFDBFFDECF14F0DDCF15F0E0
:1019B000166A500E141804E1C30E151801E11650F2
:1019C00002E1030E5ED0E2D7D950040F146EDACFD5
:1019D00015F0140E14C0DBFF150E15C0DBFFDE6A18
:1019E000DD6A140EDBCF14F0150EDBCF15F0D950E5
:1019F000110F166EDACF17F01650145C17501558E9
:101A000021E2140EDBCFE6FF150EDBCFE6FFB2ECD2
:101A10002EF0E552E552140EDBCFE9FFDB2A150E5E
:101A2000DBCFEAFF01E3DB2A140EDBCFE9FFDB2A81
:101A3000150EDBCFEAFF01E3DB2ADF2A010E01E30B
:101A4000DB2ACFD7AA0EF36E020EF3CFDBFFB0EC8A
:101A50002DF0E76E020EE7CFDBFFAA0EF36E030E4A
:101A6000F3CFDBFF15EC2DF0E76E030EE7CFDBFFC6
:101A7000020EDB50510803E1010E03D002D0000E2C
:101A800000D0146E160EE15C02E2E16AE552E16EEE
:101A90001450E552E7CFD9FF1200D9CFE6FFE1CFCE
:101AA000D9FF160EE126DE6ADD6ADECF14F0DDCF47
:101AB00015F0100E145C000E155811E2D950040FE9
:101AC000146EDACF15F0DE501424E96EDD501520C7
:101AD000EA6EEF6ADF2A010E01E3DB2AE6D7BA0ECF
:101AE000F36E040EF3CFDBFF100EF36E070EF3CF91
:101AF000DBFF010EE76EFD0EDBCFE9FFFE0EDBCF55
:101B0000EAFFE750E926000EEA22070EEFCFDBFFDF
:101B1000020EE76EFD0EDBCFE9FFFE0EDBCFEAFF24
:101B2000E750E926000EEA22080EEFCFDBFF030E96
:101B3000E76EFD0EDBCFE9FFFE0EDBCFEAFFE750DD
:101B4000E926000EEA22090EEFCFDBFF400EF36E0E
:101B50000D0EF3CFDBFFA00EE66EF0EC2DF0E5529C
:101B6000AA0EF36E020EF3CFDBFFDE6ADD6A020E11
:101B7000DB5058081AE0DF2A010E01E3DB2AB0EC43
:101B80002DF0E76E020EE7CFDBFFDECF14F0DDCFE6
:101B900015F0166A500E141804E1C30E151801E171
:101BA000165002E1030E5ED0E2D7D950040F146E36
:101BB000DACF15F0140E14C0DBFF150E15C0DBFFD5
:101BC000DE6ADD6A140EDBCF14F0150EDBCF15F0E4
:101BD000D950110F166EDACF17F01650145C17504B
:101BE000155821E2140EDBCFE6FF150EDBCFE6FF22
:101BF000B2EC2EF0E552E552140EDBCFE9FFDB2A02
:101C0000150EDBCFEAFF01E3DB2A140EDBCFE9FF81
:101C1000DB2A150EDBCFEAFF01E3DB2ADF2A010E08
:101C200001E3DB2ACFD7AA0EF36E020EF3CFDBFF60
:101C3000B0EC2DF0E76E020EE7CFDBFFAA0EF36EDD
:101C4000030EF3CFDBFF15EC2DF0E76E030EE7CFAD
:101C5000DBFF020EDB50510803E1010E03D002D07E
:101C6000000E00D0146E160EE15C02E2E16AE5524D
:101C7000E16E1450E552E7CFD9FF1200D9CFE6FF4D
:101C8000E1CFD9FF150EE126DE6ADD6ADECF14F062
:101C9000DDCF15F0100E145C000E155811E2D9506E
:101CA000030F146EDACF15F0DE501424E96EDD5008
:101CB0001520EA6EEF6ADF2A010E01E3DB2AE6D780
:101CC0004E0EF36E030EF3CFDBFFA00EE66EF0ECCC
:101CD0002DF0E552AA0EF36E020EF3CFDBFFDE6AA3
:101CE000DD6A020EDB5058081AE0DF2A010E01E31C
:101CF000DB2AB0EC2DF0E76E020EE7CFDBFFDECF84
:101D000014F0DDCF15F0166A500E141804E1C30E5E
:101D1000151801E1165002E1030E53D0E2D7D95055
:101D2000030F146EDACF15F0130E14C0DBFF140E80
:101D300015C0DBFFDE6ADD6A130EDBCF14F0140E74
:101D4000DBCF15F0D950100F166EDACF17F0165002
:101D5000145C1750155821E2130EDBCFE6FF140E6A
:101D6000DBCFE6FFB2EC2EF0E552E552130EDBCFEF
:101D7000E9FFDB2A140EDBCFEAFF01E3DB2A130EB7
:101D8000DBCFE9FFDB2A140EDBCFEAFF01E3DB2A1E
:101D9000DF2A010E01E3DB2ACFD7AA0EF36E020E73
:101DA000F3CFDBFFB0EC2DF0E76E020EE7CFDBFFE9
:101DB000020EDB50510803E1000E03D002D0010EE9
:101DC00000D0146E150EE15C02E2E16AE552E16EAC
:101DD0001450E552E7CFD9FF1200D9CFE6FFE1CF8B
:101DE000D9FF150EE126DE6ADD6ADECF14F0DDCF05
:101DF00015F0100E145C000E155811E2D950030FA7
:101E0000146EDACF15F0DE501424E96EDD50152083
:101E1000EA6EEF6ADF2A010E01E3DB2AE6D74B0EFA
:101E2000F36E030EF3CFDBFF0B0EDB6AA00EE66E44
:101E3000F0EC2DF0E552AA0EF36E020EF3CFDBFFAD
:101E4000DE6ADD6A020EDB5058081AE0DF2A010E56
:101E500001E3DB2AB0EC2DF0E76E020EE7CFDBFFEB
:101E6000DECF14F0DDCF15F0166A500E141804E121
:101E7000C30E151801E1165002E1030E53D0E2D74C
:101E8000D950030F146EDACF15F0130E14C0DBFF18
:101E9000140E15C0DBFFDE6ADD6A130EDBCF14F013
:101EA000140EDBCF15F0D950100F166EDACF17F0E5
:101EB0001650145C1750155821E2130EDBCFE6FFC5
:101EC000140EDBCFE6FFB2EC2EF0E552E552130E16
:101ED000DBCFE9FFDB2A140EDBCFEAFF01E3DB2ACD
:101EE000130EDBCFE9FFDB2A140EDBCFEAFF01E3A1
:101EF000DB2ADF2A010E01E3DB2ACFD7AA0EF36E1D
:101F0000020EF3CFDBFFB0EC2DF0E76E020EE7CF51
:101F1000DBFF020EDB50510803E1000E03D002D0BC
:101F2000010E00D0146E150EE15C02E2E16AE5528A
:101F3000E16E1450E552E7CFD9FF1200D9CFE6FF8A
:101F4000E1CFD9FF150EE126DE6ADD6ADECF14F09F
:101F5000DDCF15F0100E145C000E155811E2D950AB
:101F6000030F146EDACF15F0DE501424E96EDD5045
:101F70001520EA6EEF6ADF2A010E01E3DB2AE6D7BD
:101F80004B0EF36E030EF3CFDBFF010EF36E0B0E61
:101F9000F3CFDBFFA00EE66EF0EC2DF0E552AA0EBB
:101FA000F36E020EF3CFDBFFDE6ADD6A020EDB505A
:101FB00058081AE0DF2A010E01E3DB2AB0EC2DF00D
:101FC000E76E020EE7CFDBFFDECF14F0DDCF15F0BA
:101FD000166A500E141804E1C30E151801E11650CC
:101FE00002E1030E53D0E2D7D950030F146EDACFBB
:101FF00015F0130E14C0DBFF140E15C0DBFFDE6AF4
:10200000DD6A130EDBCF14F0140EDBCF15F0D950C0
:10201000100F166EDACF17F01650145C17501558C3
:1020200021E2130EDBCFE6FF140EDBCFE6FFB2ECAE
:102030002EF0E552E552130EDBCFE9FFDB2A140E3A
:10204000DBCFEAFF01E3DB2A130EDBCFE9FFDB2A5C
:10205000140EDBCFEAFF01E3DB2ADF2A010E01E3E6
:10206000DB2ACFD7AA0EF36E020EF3CFDBFFB0EC64
:102070002DF0E76E020EE7CFDBFF020EDB505108BA
:1020800003E1000E03D002D0010E00D0146E150E35
:10209000E15C02E2E16AE552E16E1450E552E7CFFD
:1020A000D9FF1200D9CFE6FFE1CFD9FF170EE12605
:1020B000DE6ADD6ADECF14F0DDCF15F0100E145CA1
:1020C000000E155811E2D950050F146EDACF15F035
:1020D000DE501424E96EDD501520EA6EEF6ADF2A27
:1020E000010E01E3DB2AE6D7120EF36E050EF3CFE5
:1020F000DBFF080EDB6A090EDB68A00EE66EF0EC73
:102100002DF0E552AA0EF36E040EF3CFDBFFDE6A6C
:10211000DD6A040EDB5058081AE0DF2A010E01E3E5
:10212000DB2AB0EC2DF0E76E040EE7CFDBFFDECF4D
:1021300014F0DDCF15F0166A500E141804E1C30E2A
:10214000151801E1165002E1030E61D1E2D7D95012
:10215000050F146EDACF15F0150E14C0DBFF160E46
:1021600015C0DBFFDE6ADD6A150EDBCF14F0160E3C
:10217000DBCF15F0D950120F166EDACF17F01650CC
:10218000145C1750155821E2150EDBCFE6FF160E32
:10219000DBCFE6FFB2EC2EF0E552E552150EDBCFB9
:1021A000E9FFDB2A160EDBCFEAFF01E3DB2A150E7F
:1021B000DBCFE9FFDB2A160EDBCFEAFF01E3DB2AE8
:1021C000DF2A010E01E3DB2ACFD7DE6ADD6AAA0E21
:1021D000F36E040EF3CFDBFF040EDB50580801E171
:1021E0008CD0DF2A010E01E3DB2A040EDB505108FC
:1021F00004E0040EDB50500865E1A00EE66EF0EC42
:102200002DF0E552AA0EF36E040EF3CFDBFF020EA3
:10221000DB6A030EDB6A040EDB5058081BE0020E7B
:10222000DB2A030E01E3DB2AB0EC2DF0E76E040E8F
:10223000E7CFDBFFDECF14F0DDCF15F0166A500ECE
:10224000141804E1C30E151801E1165002E1020E44
:10225000DED0E1D7D950050F146EDACF15F0150E88
:1022600014C0DBFF160E15C0DBFF150EDBCF14F01C
:10227000160EDBCF15F0D950120F166EDACF17F00D
:102280001650145C175015581DE2150EDBCFE6FFF3
:10229000160EDBCFE6FFB2EC2EF0E552E552150E3E
:1022A000DBCFE9FFDB2A160EDBCFEAFF01E3DB2AF7
:1022B000150EDBCFE9FFDB2A160EDBCFEAFF01E3C9
:1022C000DB2AD3D7AA0EF36E040EF3CFDBFFB0ECFC
:1022D0002DF0E76E040EE7CFDBFFDECF14F0DDCF8D
:1022E00015F0166A500E141804E1C30E151801E11A
:1022F000165002E1020E8BD06FD7DE6ADD6A040E43
:10230000DB50080B080875E1D9CFE9FFDACFEAFF07
:10231000400EEE1801E1ED506CE0FD0EDBCFE6FF64
:10232000FE0EDBCFE6FF87EC2EF0E552E552FD0E08
:10233000DBCFE9FFDB2AFE0EDBCFEAFF01E3DB2A7E
:10234000FD0EDBCFE9FFFE0EDBCFEAFFE906000E54
:10235000EA5AEF50E66E010EE76EFD0EDBCFE9FFA5
:10236000FE0EDBCFEAFFE750E926000EEA22E55237
:10237000E750EF6EFD0EDBCFE9FFFE0EDBCFEAFF8D
:10238000EF50E66EFD0EDBCFE9FFFE0EDBCFEAFF7E
:10239000E906000EEA5AE552E750EF6E010EE76ECD
:1023A000FD0EDBCFE9FFFE0EDBCFEAFFE750E926AB
:1023B000000EEA22EF50E66EFD0EDBCFE9FFFE0EC7
:1023C000DBCFEAFFE552E750EF6EFD0EDBCFE9FF12
:1023D000DB2AFE0EDBCFEAFF01E3DB2ADF2A010E58
:1023E00001E3DB2AB0EC2DF0E76E040EE7CFDBFF54
:1023F00086D7D9CFE9FFDACFEAFF400EEE1801E128
:10240000ED5003E1030E03D002D0000E00D0146E95
:10241000170EE15C02E2E16AE552E16E1450E5520A
:06242000E7CFD9FF120016
:0A24260082808290400EE66E1CECEE
:1024300031F0E552E66A1CEC31F0E552E00EE66E52
:102440001CEC31F0E552F00EE66E1CEC31F0E5527A
:10245000E66A1CEC31F0E552E66A1CEC31F0E5521C
:10246000E66A1CEC31F0E552F00EE66E1CEC31F041
:10247000E552E66A1CEC31F0E552F00EE66E1CEC1B
:1024800031F0E552E66A1CEC31F0E552F00EE66EF2
:102490001CEC31F0E552080EE66E1CEC31F0E55212
:1024A000080EE66E1CEC31F0E552E66A1CEC31F0E9
:1024B000E552E66A1CEC31F0E552E66A1CEC31F0BC
:1024C000E552E66A1CEC31F0E552E66A1CEC31F0AC
:1024D000E552E66A1CEC31F0E5521F0EE66E1CEC8C
:1024E00031F0E552E66A1CEC31F0E55282808280E0
:1024F0008290420EE66E1CEC31F0E552E66A1CEC6E
:1025000031F0E552E66A1CEC31F0E552E66A1CEC6B
:1025100031F0E552E66A1CEC31F0E552E66A1CEC5B
:1025200031F0E552E66A1CEC31F0E552E66A1CEC4B
:1025300031F0E552E66A1CEC31F0E552E66A1CEC3B
:1025400031F0E552E66A1CEC31F0E552E66A1CEC2B
:1025500031F0E552080EE66E1CEC31F0E552080E43
:10256000E66E1CEC31F0E552E66A1CEC31F0E55207
:10257000E66A1CEC31F0E552E66A1CEC31F0E552FB
:10258000E66A1CEC31F0E552E66A1CEC31F0E552EB
:10259000E66A1CEC31F0E552E66A1CEC31F0E552DB
:1025A000E66A1CEC31F0E552828082808290440E13
:1025B000E66E1CEC31F0E552E66A1CEC31F0E552B7
:1025C000F00EE66E1CEC31F0E552E6681CEC31F0E2
:1025D000E552E66A1CEC31F0E552E66A1CEC31F09B
:1025E000E552E66A1CEC31F0E5520F0EE66E1CEC8B
:1025F00031F0E552E66A1CEC31F0E5520F0EE66E62
:102600001CEC31F0E552E66A1CEC31F0E5520F0E9D
:10261000E66E1CEC31F0E552080EE66E1CEC31F073
:10262000E552080EE66E1CEC31F0E552E66A1CEC51
:1026300031F0E552E66A1CEC31F0E552E66A1CEC3A
:1026400031F0E552E66A1CEC31F0E552E66A1CEC2A
:1026500031F0E552E66A1CEC31F0E552E66A1CEC1A
:1026600031F0E552E66A1CEC31F0E552828012004E
:102670008188030EE66EBFEC31F0E5528198030EBF
:10268000E66EBFEC31F0E55281880A0EE66E6AEC28
:1026900031F0E552839C010EE66E1CEC31F0E55200
:1026A000E66A1CEC31F0E552330EE66E1CEC31F0BC
:1026B000E552838C839C0D0EE66E1CEC31F0E552E6
:1026C000E66A1CEC31F0E552080EE66E1CEC31F0C7
:1026D000E552838C839C0E0EE66E1CEC31F0E552C5
:1026E000E66A1CEC31F0E552010EE66E1CEC31F0AE
:1026F000E552838C839C0F0EE66E1CEC31F0E552A4
:10270000E66A1CEC31F0E552220EE66E1CEC31F06C
:10271000E552838C839C100EE66E1CEC31F0E55282
:10272000E66A1CEC31F0E552E66A1CEC31F0E55249
:10273000838C839C110EE66E1CEC31F0E552E66A48
:102740001CEC31F0E552E66A1CEC31F0E552838C6A
:10275000839C2D0EE66E1CEC31F0E552E66A1CEC13
:1027600031F0E552060EE66E1CEC31F0E552838C3A
:10277000839C2E0EE66E1CEC31F0E552E66A1CECF2
:1027800031F0E552040EE66E1CEC31F0E552838C1C
:10279000839C2F0EE66E1CEC31F0E552E66A1CECD1
:1027A00031F0E552E66A1CEC31F0E552838C839CF3
:1027B000030EE66E1CEC31F0E552E66A1CEC31F0DB
:1027C000E5523F0EE66E1CEC31F0E552838C839CA3
:1027D000040EE66E1CEC31F0E552E66A1CEC31F0BA
:1027E000E552E66A1CEC31F0E552838C1200818AD6
:1027F000030EE66EBFEC31F0E552819A030EE66EF1
:10280000BFEC31F0E552818A0A0EE66E6AEC31F0D7
:10281000E5520001C90EAC6F0001C90EAD6F839E79
:10282000100EE66E1CEC31F0E552ADC0E6FF1CEC7C
:1028300031F0E552838E839E110EE66E1CEC31F072
:10284000E552ACC0E6FF1CEC31F0E552838E839E6E
:10285000120EE66E1CEC31F0E552A00EE66E1CEC9A
:1028600031F0E552838E12000101080E286F01013C
:10287000296B01012A6B0101400E2C6F0101120E20
:102880002D6F0101FE0E2E6F01012F6B0101420E13
:10289000306F0101120E316F0101EE0E326F010136
:1028A000E40E336F0101080E386F0101396B01012D
:1028B0003A6B0101400E3C6F0101120E3D6F0101A8
:1028C000FD0E3E6F01013F6B0101420E406F0101A1
:1028D000120E416F0101CD0E426F01015A0E436F7E
:1028E0000101080E486F0101496B01014A6B0101AA
:1028F000400E4C6F0101120E4D6F0101F70E4E6F2D
:1029000001014F6B0101420E506F0101120E516F18
:102910000101EF0E526F0101450E536F0101080EC8
:10292000586F0101596B01015A6B0101400E5C6F38
:102930000101120E5D6F01010F0E5E6F01015F6BF1
:102940000101420E606F0101120E616F0101950ECF
:10295000626F0101A20E636F0101080E686F010131
:10296000696B01016A6B0101400E6C6F0101120E6F
:102970006D6F0101FB0E6E6F01016F6B0101420E65
:10298000706F0101120E716F010172690101220E57
:10299000736F0101080E986F0101996B01019A6B29
:1029A0000101400E9C6F0101120E9D6F0101FE0E90
:1029B0009E6F01019F6B0101420EA06F0101120E7B
:1029C000A16F0101EE0EA26F0101E40EA36F0101E0
:1029D000080EA86F0101A96B0101AA6B0101400E4D
:1029E000AC6F0101120EAD6F0101FD0EAE6F010162
:1029F000AF6B0101420EB06F0101120EB16F010108
:102A0000CD0EB26F01015A0EB36F0101080EB86FFF
:102A10000101B96B0101BA6B0101400EBC6F0101EC
:102A2000120EBD6F0101F70EBE6F0101BF6B0101F8
:102A3000420EC06F0101120EC16F0101EF0EC26F95
:102A40000101450EC36F0101080EC86F0101C96B7A
:102A50000101CA6B0101400ECC6F0101120ECD6F56
:102A600001010F0ECE6F0101CF6B0101420ED06F3D
:102A70000101120ED16F0101950ED26F0101A20E5C
:102A8000D36F0101080ED86F0101D96B0101DA6B18
:102A90000101400EDC6F0101120EDD6F0101FB0E22
:102AA000DE6F0101DF6B0101420EE06F0101120ECA
:102AB000E16F0101E2690101220EE36F0101080EDD
:102AC000786F0101796B01017A6B0101400E7C6F17
:102AD0000101120E7D6F01017E6901017F6B010111
:102AE000420E806F0101120E816F010182690101A6
:102AF00083690101080E886F0101896B01018A6BEE
:102B00000101450E8C6F01010E0E8D6F01018E6B60
:102B100001018F6B0101450E906F0101100E916F45
:102B20000101926B0101936B120000016051800A58
:102B300063E0C00A55E0600A47E0300A39E0180A4D
:102B40002BE00C0A1DE0060A0FE0030A01E060D04A
:102B50000001160E616FE80E626FF50E636F0A0ECC
:102B6000646F0001606B56D00001700E616F8E0EB5
:102B7000626FF50E636F0A0E646F0001606B4AD0DE
:102B80000001B00E616F4E0E626FF50E636F0A0E9C
:102B9000646F0001606B3ED00001300E616FCE0E9D
:102BA000626FF50E636F0A0E646F0001606B32D0C6
:102BB00000016E0E616F900E626FF50E636F0A0E6C
:102BC000646F0001606B26D00001560E616FA80E85
:102BD000626FF50E636F0A0E646F0001606B1AD0AE
:102BE0000001B60E616F480E626FF50E636F0A0E3C
:102BF000646F0001606B0ED00001340E616FCA0E6D
:102C0000626FF50E636F0A0E646F0001606B02D095
:102C100060C060F0610EE66E000EE66E0AD8E55206
:102C2000E552010805E10001616B626B636B646B47
:102C30001200D9CFE6FFE1CFD9FFFD0EDBCFE9FFD0
:102C4000FE0EDBCFEAFFEECF14F0EECF15F0EECFA5
:102C500016F0EFCF17F06E0E141808E1900E15184D
:102C600005E1F50E161802E10A0E171801E1E0D091
:102C7000F60E141808E1080E151805E1F50E1618E1
:102C800002E10A0E171801E1D0D0B60E141808E1BF
:102C9000480E151805E1F50E161802E10A0E171870
:102CA00001E1BFD0560E141808E1A80E151805E171
:102CB000F50E161802E10A0E171801E1ADD02E0E1E
:102CC000141808E1D00E151805E1F50E161802E1EA
:102CD0000A0E171801E18AD0300E141808E1CE0E42
:102CE000151805E1F50E161802E10A0E171801E194
:102CF00077D0B00E141808E14E0E151805E1F50E48
:102D0000161802E10A0E171865E0700E141808E193
:102D10008E0E151805E1F50E161802E10A0E1718A9
:102D200025E0340E141808E1CA0E151805E1F50E59
:102D3000161802E10A0E171813E0160E141808E10F
:102D4000E80E151805E1F50E161802E10A0E17181F
:102D500001E073D00101FFA794D8010E8ED08BD073
:102D60000101FFA7DBD8010E88D085D00101FFB794
:102D70002ED03EEC0EF00101020E006F0101016B3E
:102D80000101026B0101020E036F0101120E046FBB
:102D90000101A10E056F010E0001A76FA86B0001D4
:102DA000A56B030EA66F0101B3690101A3690101BF
:102DB000A10EA26F0101950EB26F0101C50EC26F87
:102DC0000101980ED26F0101E2690101FF85010E38
:102DD00054D051D00101FFA770D9010E4ED04BD075
:102DE0000101FFA7F2D9010E48D045D00001AB5137
:102DF00009E1ABC0E6FF32EC1CF0E5520001010E28
:102E0000AB6F07D0ABC0E6FF32EC1CF0E55200011F
:102E1000AB6B010E32D02FD091EC1BF0010E2DD0F8
:102E20002AD0DADB010E29D026D0010E26D023D0FD
:102E300085EC1CF0010E21D01ED0FD0EDBCFE9FF8A
:102E4000FE0EDBCFEAFFEECF14F0EECF15F0EECFA3
:102E500016F0EFCF17F0FD0EDBCFE9FFFE0EDBCF54
:102E6000EAFF14C0EEFF15C0EEFF16C0EEFF17C05C
:102E7000EEFF000E02D0000E00D0E552E7CFD9FFE2
:102E800012000FEC00F0010820E1ABEC02F00101B0
:102E9000FE890001A56B030EA66F010E0001A76F4E
:102EA000A86B01014369010133690101DD0E326F35
:102EB0000101900E426F0101880E526F0101C40E94
:102EC000626F0101726925DA28D0F7EC01F0010187
:102ED000FE990101FE8D0101436901013369010180
:102EE000C50E326F0101980E426F0101900E526FB4
:102EF0000101CD0E626F010172690101020E006FC6
:102F00000101016B0101026B0101020E036F01015E
:102F1000120E046F0101A10E056F12000FEC00F0FC
:102F200001081DE10101020E006F0101016B0101A9
:102F3000026B0101020E036F0101120E046F010109
:102F4000A10E056FABEC02F0E4D90101FE8900018E
:102F5000A56B030EA66F010E0001A76FA86B010100
:102F6000FEBDAAD00001A55102E1020EA6196DE036
:102F70000001A55102E1010EA6193BE00001A55197
:102F800002E1030EA61901E097D0000EE66E070ECF
:102F9000E66EA7C0E6FF2DEC05F0E552E552E552DE
:102FA0000001A56B010EA66F0101020E006F010169
:102FB000016B0101026B0101020E036F0101120E90
:102FC000046F0101A00E056F0101B3690101A3693E
:102FD0000101980EA26F0101970EB26F0101880ED8
:102FE000C26F0101A40ED26F0101E2690101FF85E8
:102FF00063D0EDEC0EF00001A56B020EA66F01018F
:10300000020E006F0101016B0101026B0101020E52
:10301000036F0101120E046F0101A10E056F010182
:10302000B3690101580EA36F0101880EA26F01015F
:10303000C70EB26F0101A10EC26F0101900ED26FD7
:103040000101E2690101FF8537D0000EE66E070E2F
:10305000E66EF00EE66E010EE66E8BEC06F0E552C3
:10306000E552E552E5520001A56B010EA66F010184
:10307000020E006F0101016B0101026B0101020EE2
:10308000036F0101120E046F0101A00E056F010113
:10309000B3690101A3690101980EA26F0101970EA6
:1030A000B26F0101880EC26F0101A40ED26F01013F
:1030B000E2690101FF8500D0120001010101FE510A
:1030C000100B01E181D001010101FE51400B01E033
:1030D0007BD00101E805146E156A0001A85115188E
:1030E000E8AE02D0153404D01450A75D1550A8598D
:1030F00006E20001A72B000E0001A82304D0010E58
:103100000001A76FA86B0001A55102E1030EA619EB
:1031100010E0000EE66E070EE66EA7C0E6FF2DEC8F
:1031200005F0E552E552E5520001A56B010EA66FD0
:103130004BD0A7C0E6FFA8C0E6FF0E0EE66E000E5D
:10314000E66E000EE66EB00EE66E000EE66E54EC15
:103150002FF0146E070EE15E1450B00EE66E000EF6
:10316000E66EBCEC30F0E552E552F3CF14F0F4CF4C
:1031700015F0020E141801E115500FE1B0C0E6FF82
:103180004FEC1DF0E5520101B36FB1C0E6FF4FEC0B
:103190001DF0E5520101A36F0AD00101410EB36F8A
:1031A000B0C0E6FF4FEC1DF0E5520101A36F010135
:1031B000A2690101B2690101C2690101D26901017B
:1031C000FA0EE26F0101FF85120001010101FE51BB
:1031D000100B01E19DD001010101FE51400B01E006
:1031E00097D00001A55102E1030EA61938E00101B4
:1031F000ED5125E1030E0101EE5D21E20001010E1A
:10320000A71901E1A85106E10101E8050001A76F36
:10321000A86B05D00001A707000E0001A85B000EF7
:10322000E66E070EE66EA7C0E6FF2DEC05F0E55250
:10323000E552E5520001A56B010EA66F0FD0000EFE
:10324000E66E070EE66EA7C0E6FF2DEC05F0E55230
:10325000E552E5520001A56B010EA66F59D00001A1
:10326000010EA71901E1A85106E10101E8050001DD
:10327000A76FA86B05D00001A707000E0001A85B8F
:10328000A7C0E6FFA8C0E6FF0E0EE66E000EE66ED3
:10329000000EE66EB00EE66E000EE66E54EC2FF0F9
:1032A000146E070EE15E1450B00EE66E000EE66E70
:1032B000BCEC30F0E552E552F3CF14F0F4CF15F04A
:1032C000020E141801E115500DE1B0C0E6FFE7DB76
:1032D000E5520101B36FB1C0E6FFE1DBE552010148
:1032E000A36F09D00101410EB36FB0C0E6FFD7DB79
:1032F000E5520101A36F0101A2690101B269010157
:10330000C2690101D2690101FA0EE26F0101FF8574
:103310001200D9CFE6FFE1CFD9FF080EE126DE6A21
:10332000DE6ADE6ADD6ADD52DD52010EF36E040EE6
:10333000F3CFDBFF050EDB6A060EDB6A070EDB6AE6
:1033400001014369010133690101DD0E326F0101A1
:10335000900E426F0101880E526F0101C40E626F20
:1033600001017269040EDBCF14F0050EDBCF15F0FE
:10337000060EDBCF16F0070EDBCF17F0145015103A
:10338000161017102EE0D9CFE9FFDACFEAFFD89058
:10339000030EEB50000A08E6320EEE5C000EEE580B
:1033A000000EEE58000EEE581CE2000EE66E070E00
:1033B000E66E5FEC03F0E552E552146E040E14C0A5
:1033C000DBFF050EDB6A060EDB6A070EDB6AD9CF70
:1033D000E9FFDACFEAFFEE2A000EEE22EE22EE221D
:1033E000C1D70701020501E081D00101FE9D07015F
:1033F00003510001A96FAA6BA9C014F0AAC015F06F
:10340000166A176A15AE02D016681768040E14C043
:10341000DBFF050E15C0DBFF060E16C0DBFF070E37
:1034200017C0DBFFD950040FE96EDACFEAFF030EB5
:10343000E76ED890EF36010EEB36020EEB36030E38
:10344000EB36E706F6E1D950040FE96EDACFEAFF72
:10345000090EEE26000EEE22000EEE22000EEE22E7
:10346000040EDBCFE9FF050EDBCFEAFF000EE926F5
:10347000070EEA22EFCFE9F1010E146E156A166A03
:10348000176AD950040FE96EDACFEAFFEE5014261E
:10349000EE501522EE501622EE501722000E142484
:1034A000E96E070E1520EA6EEFCFEAF1020E146EF8
:1034B000156A166A176AD950040FE96EDACFEAFF67
:1034C000EE501426EE501522EE501622EE50172222
:1034D000000E1424E96E070E1520EA6EEFCFEBF113
:1034E000010E0001A9250101E86F02D00101FE8D46
:1034F0000101FEAD15D00101EC0E436F0101E40E98
:10350000336F0101C40E326F0101EF0E426F0101F2
:10351000A10E526F0101930E626F0101726916D004
:103520000101640EB36F0101EF0EA36F0101A10E43
:10353000A26F0101930EB26F0101C50EC26F0101AE
:103540008C0ED26F0101E2690101FF85080EE15C7A
:1035500002E2E16AE552E16EE552E7CFD9FF1200DF
:103560000101FEA338D00101FE930101FEA933D071
:10357000F00EE66E010EE66ED0EC07F0E552E55275
:103580000001AE6FEC0EE66E010EE66E21EC0AF065
:10359000E552E5520001A55102E1010EA6191BE119
:1035A0000101EC510001A76FA86B130E0001AE5D85
:1035B00008E0140E0001AE5D04E0150E0001AE5DE2
:1035C0000AE13EEC0EF0010E0001A76FA86B0001AE
:1035D000A56B030EA66F12000001AC51146E156AA4
:1035E000FF0E141801E1155019E10001AC6900014A
:1035F000AD690101E50EB36F0101E40EA36F010196
:10360000970EA26F01018A0EB26F0101880EC26F80
:1036100001018C0ED26F0101E26906D0030E000198
:10362000AC27030E0001AD270101040E006F01015C
:10363000016B0101026B0101020E036F0101100E0B
:10364000046FADC005F10101110E066FACC007F1AA
:103650000001AC51E66EE66A0E0EE66E000EE66EF6
:10366000000EE66EB00EE66E000EE66E54EC2FF025
:10367000146E070EE15E1450B00EE66E000EE66E9C
:10368000BCEC30F0E552E552F3CF14F0F4CF15F076
:10369000020E141801E115501BE10101E50EB36F94
:1036A0000101E40EA36F0101970EA26F0101820ECA
:1036B000B26FB0C0E6FFB4D9E5520101C26FB1C02C
:1036C000E6FFAED9E5520101D26F0101E26926D0D1
:1036D0000001AC51146E156AFF0E141801E115506B
:1036E0001DE00101E50EB36F0101E40EA36F0101BE
:1036F000970EA26FB0C0E6FF93D9E5520101B26FF9
:10370000B1C0E6FF8DD9E5520101C26FB2C0E6FF3C
:1037100087D9E5520101D26F0101E2690101FF85FC
:1037200012000001AC510E081BE300010C0EAC6F3F
:1037300000010C0EAD6F0101E50EB36F0101E40E47
:10374000A36F0101970EA26F01018A0EB26F0101F2
:10375000EF0EC26F0101CD0ED26F0101E26906D0FA
:10376000030E0001AC5F030E0001AD5F0101040E0A
:10377000006F0101016B0101026B0101020E036F79
:103780000101100E046FADC005F10101110E066FAD
:10379000ACC007F10001AC51E66EE66A0E0EE66EB3
:1037A000000EE66E000EE66EB00EE66E000EE66EE1
:1037B00054EC2FF0146E070EE15E1450B00EE66E5E
:1037C000000EE66EBCEC30F0E552E552F3CF14F09B
:1037D000F4CF15F0020E141801E115501FE100019D
:1037E000AC510E081BE20101E50EB36F0101E40EBE
:1037F000A36F0101970EA26F0101820EB26FB0C0DC
:10380000E6FF0ED9E5520101C26FB1C0E6FF08D94B
:10381000E5520101D26F0101E26921D00001AC51F2
:103820000E081DE20101E50EB36F0101E40EA36F66
:103830000101970EA26FB0C0E6FFF2D8E552010178
:10384000B26FB1C0E6FFECD8E5520101C26FB2C061
:10385000E6FFE6D8E5520101D26F0101E2690101FC
:10386000FF851200D9CFE6FFE1CFD9FFFE0EDB5076
:1038700023E00101020E006F0101016B0101026BE7
:103880000101020E036F0101120E046F0101A10E6E
:10389000056F0101B3690101A36901018A0EA26FDD
:1038A0000101C70EB26F0101950EC26F0101900EAA
:1038B000D26F0101E26923D00101020E006F010104
:1038C000016B0101026B0101020E036F0101120E77
:1038D000046F0101A00E056F0101B3690101C20E61
:1038E000A36F0101C50EA26F0101C70EB26F0101E6
:1038F000CD0EC26F0101C40ED26F0101E269010158
:10390000FF85E552E7CFD9FF12000101FFB740D094
:103910003EEC0EF0010E0001A76FA86B0001A56B35
:10392000030EA66F0101016B0101026B0101020E82
:10393000036F0101120E046F0101A00E056F01015A
:10394000020E006F0101FF870101156B0101166B6B
:103950000101020E176F01010D0E186F0101196BA5
:103960000101090E1A6F0101030E146F0101436971
:10397000010133690101880E326F0101C70E426FE8
:1039800001018C0E526F010162690101726947D019
:103990000101020E006F0101016B0101026B0101C7
:1039A000020E036F0101120E046F0101A10E056FDB
:1039B0000101FF970101030E146F0101156B010155
:1039C000166B0101020E176F01010D0E186F010138
:1039D000196B0101080E1A6F0101FEB903D041EC09
:1039E00017F01DD00101FE890001A56B030EA66F23
:1039F000010E0001A76FA86B010143690101336942
:103A00000101DD0E326F0101900E426F0101880E3F
:103A1000526F0101C40E626F010172697ADC1200FB
:103A2000D9CFE6FFE1CFD9FFFE0EDB50390A2EE0F9
:103A3000010A29E00F0A24E0010A1FE0030A1AE044
:103A4000010A15E0070A10E0010A0BE0030A06E08C
:103A5000010A01E01ED0820E1ED01DD0EE0E1BD03A
:103A60001AD0D00E18D017D0E00E15D014D0AC0E4E
:103A700012D011D0A10E0FD00ED0810E0CD00BD0D1
:103A8000EA0E09D008D0800E06D005D0A00E03D0D3
:103A900002D0FF0E00D0E552E7CFD9FF1200D9CFF8
:103AA000E6FFE1CFD9FFFE0EDB50390A2EE0010A16
:103AB00029E00F0A24E0010A1FE0030A1AE0010AC4
:103AC00015E0070A10E0010A0BE0030A06E0010A0C
:103AD00001E01ED0410E1ED01DD06F0E1BD01AD09B
:103AE000540E18D017D0460E15D014D06A0E12D02E
:103AF00011D0C20E0FD00ED0C00E0CD00BD04F0E76
:103B000009D008D0400E06D005D0420E03D002D016
:103B1000FF0E00D0E552E7CFD9FF12000101FEBB36
:103B200002D095EC15F00101FEAB0ED089EC19F036
:103B30000101FE890001A56B030EA66F010E0001B5
:103B4000A76FA86B0101FE9B01010101FE51400B13
:103B500001E077D101010101FF51080B01E071D1B2
:103B6000FFDC0001A55102E1030EA61901E0B5D06A
:103B7000A9C0E6FFAAC0E6FF0E0EE66E000EE66ED6
:103B8000000EE66EB00EE66E000EE66E54EC2FF000
:103B9000146E070EE15E1450B00EE66E000EE66E77
:103BA000BCEC30F0E552E552F3CF14F0F4CF15F051
:103BB000020E141801E115500DE1B0C0E6FF6FDFF1
:103BC000E5520101436FB1C0E6FF69DFE552010133
:103BD000336F09D00101410E436FB0C0E6FF5FDFD4
:103BE000E5520101336F0101E951E66EE66A0E0EFE
:103BF000E66E000EE66E000EE66EB00EE66E000E8D
:103C0000E66E54EC2FF0146E070EE15E1450B00E09
:103C1000E66E000EE66EBCEC30F0E552E552F3CFF6
:103C200014F0F4CF15F0020E141801E115500DE157
:103C3000B0C0E6FFF5DEE5520101326FB1C0E6FF2C
:103C4000EFDEE5520101426F09D00101820E326FB1
:103C5000B0C0E6FFE5DEE5520101426F0101EA5125
:103C6000E66EE66A0E0EE66E000EE66E000EE66E7C
:103C7000B00EE66E000EE66E54EC2FF0146E070EDA
:103C8000E15E1450B00EE66E000EE66EBCEC30F055
:103C9000E552E552F3CF14F0F4CF15F0020E1418EC
:103CA00001E115500DE1B0C0E6FFBADEE5520101B9
:103CB000526FB1C0E6FFB4DEE5520101626F09D078
:103CC0000101820E526FB0C0E6FFAADEE55201018B
:103CD000626F0101FA0E726FB4D00101EC51E66E11
:103CE000E66A0E0EE66E000EE66E000EE66EB00E92
:103CF000E66E000EE66E54EC2FF0146E070EE15ED9
:103D00001450B00EE66E000EE66EBCEC30F0E552DC
:103D1000E552F3CF14F0F4CF15F0020E141801E1C0
:103D200015500DE1B0C0E6FFBADEE5520101436F68
:103D3000B1C0E6FFB4DEE5520101336F09D00101E5
:103D4000410E436FB0C0E6FFAADEE5520101336FBA
:103D50000101ED51E66EE66A0E0EE66E000EE66EAD
:103D6000000EE66EB00EE66E000EE66E54EC2FF01E
:103D7000146E070EE15E1450B00EE66E000EE66E95
:103D8000BCEC30F0E552E552F3CF14F0F4CF15F06F
:103D9000020E141801E115500DE1B0C0E6FF40DE3F
:103DA000E5520101326FB1C0E6FF3ADEE552010192
:103DB000426F09D00101820E326FB0C0E6FF30DEE3
:103DC000E5520101426F0101EE51E66EE66A0E0E08
:103DD000E66E000EE66E000EE66EB00EE66E000EAB
:103DE000E66E54EC2FF0146E070EE15E1450B00E28
:103DF000E66E000EE66EBCEC30F0E552E552F3CF15
:103E000014F0F4CF15F0020E141801E115500DE175
:103E1000B0C0E6FF05DEE5520101526FB1C0E6FF1A
:103E2000FFDDE5520101626F09D00101820E526F80
:103E3000B0C0E6FFF5DDE5520101626F0101FA0E47
:043E4000726F12008B
:0C3E4400D8CFE4FFE0CFE4FFE46EDACF5B
:103E5000E4FFE2CFDAFFE9CFE4FFEACFE4FFE65286
:103E60009EA6A1D00101FE819E960101FFA924D04A
:103E7000827EC950F1C0E9FFF2C0EAFFEF6E010196
:103E8000152B0001F1C0E9FFF2C0EAFFF12B000E93
:103E9000F223010114510101165D09E2F1C0E9FFAD
:103EA000F2C0EAFFEF50C96E0101162B05D0838CDA
:103EB0000101146B0101FF990101FFA12DD0C9502F
:103EC000F1C0E9FFF2C0EAFFEF6E0101012B000132
:103ED000F1C0E9FFF2C0EAFFF12B000EF22301016D
:103EE00002B107D0838E838E838E838E838E839ED2
:103EF000839E010100510101025D09E2F1C0E9FF69
:103F0000F2C0EAFFEF50C96E0101022B05D0838E8B
:103F10000101006B0101FF910101FFA344D0C950D1
:103F2000F1C0E9FFF2C0EAFFEF6E0001C72B00010C
:103F3000F1C0E9FFF2C0EAFFF12B000EF223040EFC
:103F40000001C85D05E1828082808280828082904B
:103F50000001C6510001C85D09E2F1C0E9FFF2C0ED
:103F6000EAFFEF50C96E0001C82B1DD0828000010E
:103F7000C86B0001C76B0101FFAB13D00101FF9BB0
:103F8000D7C0D6F0D8C0D7F0CDC0D8F00001D851F6
:103F900008E00001D75105E10001D65102E1D8C087
:103FA00060F00101FF939EA246EF25F00101FFA5FD
:103FB00005D00001EF6BF06B0101FF950001ED2BC7
:103FC000000EEE230001EF2B000EF023630E000124
:103FD000ED1901E1EE5102E1C8EF24F0620E00019B
:103FE000ED1901E1EE5102E18BEF24F05E0E0001CC
:103FF000ED1901E1EE5102E172EF24F05A0E0001D9
:10400000ED1901E1EE5102E15AEF24F04F0E0001EB
:10401000ED1901E1EE5101E1E7D34E0E0001ED197A
:1040200001E1EE5101E1A3D34A0E0001ED1901E1D6
:10403000EE5101E183D3460E0001ED1901E1EE518D
:1040400001E164D33B0E0001ED1901E1EE5101E104
:10405000F7D23A0E0001ED1901E1EE5101E1B3D2C0
:10406000360E0001ED1901E1EE5101E193D2320E5D
:104070000001ED1901E1EE5101E174D2270E0001BA
:10408000ED1901E1EE5101E107D2260E0001ED1913
:1040900001E1EE5101E1C3D1220E0001ED1901E170
:1040A000EE5101E1A3D11E0E0001ED1901E1EE5127
:1040B00001E184D11D0E0001ED1901E1EE5101E194
:1040C00038D11C0E0001ED1901E1EE5101E1F2D0F1
:1040D000130E0001ED1901E1EE5101E185D0120E40
:1040E0000001ED1901E1EE5141E00E0E0001ED1964
:1040F00001E1EE5121E00A0E0001ED1901E1EE515E
:1041000002E02EEF25F00101005114E0140E010130
:10411000005D10E2839E0001040EF16F010EF26F4C
:10412000F1C0E9FFF2C0EAFFEF50C96E0101022BB6
:104130000101FF812EEF25F00101145115E0140E4D
:104140000101145D11E2839C0001180EF16F010E54
:10415000F26F827EF1C0E9FFF2C0EAFFEF50C96E54
:104160000101162B0101FF892EEF25F078C1C6F061
:1041700079C1C7F07AC1C8F07BC1C9F07CC1CAF06F
:104180007DC1CBF07EC1CCF07FC1CDF080C1CEF03F
:1041900081C1CFF082C1D0F083C1D1F084C1D2F00F
:1041A00085C1D3F086C1D4F087C1D5F00001C651D6
:1041B00019E0140E0001C65D15E201010101FF5175
:1041C000020B10E182900001CA0EF16F000EF26F37
:1041D000F1C0E9FFF2C0EAFFEF50C96E0001C82B41
:1041E0000101FF832EEF25F028C1C6F029C1C7F0D9
:1041F0002AC1C8F02BC1C9F02CC1CAF02DC1CBF027
:104200002EC1CCF02FC1CDF030C1CEF031C1CFF0F6
:1042100032C1D0F033C1D1F034C1D2F035C1D3F0C6
:1042200036C1D4F037C1D5F00001D890F05104E682
:10423000200EEF5D4E0EF05920E298C1C6F099C1F4
:10424000C7F09AC1C8F09BC1C9F09CC1CAF09DC11A
:10425000CBF09EC1CCF09FC1CDF0A0C1CEF0A1C1EA
:10426000CFF0A2C1D0F0A3C1D1F0A4C1D2F0A5C1BA
:10427000D3F0A6C1D4F0A7C1D5F00001C65119E012
:10428000140E0001C65D15E201010101FF51020B90
:1042900010E182900001CA0EF16F000EF26FF1C0C2
:1042A000E9FFF2C0EAFFEF50C96E0001C82B01011F
:1042B000FF83D4D388C1C6F089C1C7F08AC1C8F0D2
:1042C0008BC1C9F08CC1CAF08DC1CBF08EC1CCF0CE
:1042D0008FC1CDF090C1CEF091C1CFF092C1D0F09E
:1042E00093C1D1F094C1D2F095C1D3F096C1D4F06E
:1042F00097C1D5F00101FF8B0001C65119E0140EE2
:104300000001C65D15E201010101FF51020B10E140
:1043100082900001CA0EF16F000EF26FF1C0E9FF4A
:10432000F2C0EAFFEF50C96E0001C82B0101FF8304
:1043300095D388C1C6F089C1C7F08AC1C8F08BC1C6
:10434000C9F08CC1CAF08DC1CBF08EC1CCF08FC149
:10435000CDF090C1CEF091C1CFF092C1D0F093C119
:10436000D1F094C1D2F095C1D3F096C1D4F097C1E9
:10437000D5F00101FF8B0001410ECA6F0001410E13
:10438000CE6F0001C65119E0140E0001C65D15E2A2
:1043900001010101FF51020B10E182900001CA0EE0
:1043A000F16F000EF26FF1C0E9FFF2C0EAFFEF50CB
:1043B000C96E0001C82B0101FF8350D301010051D8
:1043C00014E0140E0101005D10E2839E0001040E52
:1043D000F16F010EF26FF1C0E9FFF2C0EAFFEF509A
:1043E000C96E0101022B0101FF8138D30101145173
:1043F00015E0140E0101145D11E2839C0001180EFA
:10440000F16F010EF26F827EF1C0E9FFF2C0EAFFA8
:10441000EF50C96E0101162B0101FF891FD378C12E
:10442000C6F079C1C7F07AC1C8F07BC1C9F07CC1C0
:10443000CAF07DC1CBF07EC1CCF07FC1CDF080C190
:10444000CEF081C1CFF082C1D0F083C1D1F084C160
:10445000D2F085C1D3F086C1D4F087C1D5F0000178
:10446000C65119E0140E0001C65D15E201010101FB
:10447000FF51020B10E182900001CA0EF16F000E95
:10448000F26FF1C0E9FFF2C0EAFFEF50C96E000120
:10449000C82B0101FF83E2D238C1C6F039C1C7F091
:1044A0003AC1C8F03BC1C9F03CC1CAF03DC1CBF034
:1044B0003EC1CCF03FC1CDF040C1CEF041C1CFF004
:1044C00042C1D0F043C1D1F044C1D2F045C1D3F0D4
:1044D00046C1D4F047C1D5F00001D890F05104E6B0
:1044E000200EEF5D4E0EF05920E2A8C1C6F0A9C122
:1044F000C7F0AAC1C8F0ABC1C9F0ACC1CAF0ADC128
:10450000CBF0AEC1CCF0AFC1CDF0B0C1CEF0B1C1F7
:10451000CFF0B2C1D0F0B3C1D1F0B4C1D2F0B5C1C7
:10452000D3F0B6C1D4F0B7C1D5F00001C65119E03F
:10453000140E0001C65D15E201010101FF51020BDD
:1045400010E182900001CA0EF16F000EF26FF1C00F
:10455000E9FFF2C0EAFFEF50C96E0001C82B01016C
:10456000FF837CD20101005114E0140E0101005DB3
:1045700010E2839E0001040EF16F010EF26FF1C094
:10458000E9FFF2C0EAFFEF50C96E0101022B010101
:10459000FF8164D20101145115E0140E0101145D74
:1045A00011E2839C0001180EF16F010EF26F827E02
:1045B000F1C0E9FFF2C0EAFFEF50C96E0101162B0E
:1045C0000101FF894BD278C1C6F079C1C7F07AC129
:1045D000C8F07BC1C9F07CC1CAF07DC1CBF07EC1FF
:1045E000CCF07FC1CDF080C1CEF081C1CFF082C1CF
:1045F000D0F083C1D1F084C1D2F085C1D3F086C19F
:10460000D4F087C1D5F00001C65119E0140E0001A5
:10461000C65D15E201010101FF51020B10E182901C
:104620000001CA0EF16F000EF26FF1C0E9FFF2C097
:10463000EAFFEF50C96E0001C82B0101FF830ED2C3
:1046400048C1C6F049C1C7F04AC1C8F04BC1C9F062
:104650004CC1CAF04DC1CBF04EC1CCF04FC1CDF032
:1046600050C1CEF051C1CFF052C1D0F053C1D1F002
:1046700054C1D2F055C1D3F056C1D4F057C1D5F0D2
:104680000001D890F05104E6200EEF5D4E0EF05977
:1046900020E2B8C1C6F0B9C1C7F0BAC1C8F0BBC109
:1046A000C9F0BCC1CAF0BDC1CBF0BEC1CCF0BFC126
:1046B000CDF0C0C1CEF0C1C1CFF0C2C1D0F0C3C1F6
:1046C000D1F0C4C1D2F0C5C1D3F0C6C1D4F0C7C1C6
:1046D000D5F00001C65119E0140E0001C65D15E2C7
:1046E00001010101FF51020B10E182900001CA0E8D
:1046F000F16F000EF26FF1C0E9FFF2C0EAFFEF5078
:10470000C96E0001C82B0101FF83A8D1010100512E
:1047100014E0140E0101005D10E2839E0001040EFE
:10472000F16F010EF26FF1C0E9FFF2C0EAFFEF5046
:10473000C96E0101022B0101FF8190D101011451C9
:1047400015E0140E0101145D11E2839C0001180EA6
:10475000F16F010EF26F827EF1C0E9FFF2C0EAFF55
:10476000EF50C96E0101162B0101FF8977D178C185
:10477000C6F079C1C7F07AC1C8F07BC1C9F07CC16D
:10478000CAF07DC1CBF07EC1CCF07FC1CDF080C13D
:10479000CEF081C1CFF082C1D0F083C1D1F084C10D
:1047A000D2F085C1D3F086C1D4F087C1D5F0000125
:1047B000C65119E0140E0001C65D15E201010101A8
:1047C000FF51020B10E182900001CA0EF16F000E42
:1047D000F26FF1C0E9FFF2C0EAFFEF50C96E0001CD
:1047E000C82B0101FF833AD158C1C6F059C1C7F0A7
:1047F0005AC1C8F05BC1C9F05CC1CAF05DC1CBF061
:104800005EC1CCF05FC1CDF060C1CEF061C1CFF030
:1048100062C1D0F063C1D1F064C1D2F065C1D3F000
:1048200066C1D4F067C1D5F00001D890F05104E61C
:10483000200EEF5D4E0EF05920E2C8C1C6F0C9C18E
:10484000C7F0CAC1C8F0CBC1C9F0CCC1CAF0CDC154
:10485000CBF0CEC1CCF0CFC1CDF0D0C1CEF0D1C124
:10486000CFF0D2C1D0F0D3C1D1F0D4C1D2F0D5C1F4
:10487000D3F0D6C1D4F0D7C1D5F00001C65119E0AC
:10488000140E0001C65D15E201010101FF51020B8A
:1048900010E182900001CA0EF16F000EF26FF1C0BC
:1048A000E9FFF2C0EAFFEF50C96E0001C82B010119
:1048B000FF83D4D00101005114E0140E0101005D0A
:1048C00010E2839E0001040EF16F010EF26FF1C041
:1048D000E9FFF2C0EAFFEF50C96E0101022B0101AE
:1048E000FF81BCD00101145115E0140E0101145DCB
:1048F00011E2839C0001180EF16F010EF26F827EAF
:10490000F1C0E9FFF2C0EAFFEF50C96E0101162BBA
:104910000101FF89A3D078C1C6F079C1C7F07AC17F
:10492000C8F07BC1C9F07CC1CAF07DC1CBF07EC1AB
:10493000CCF07FC1CDF080C1CEF081C1CFF082C17B
:10494000D0F083C1D1F084C1D2F085C1D3F086C14B
:10495000D4F087C1D5F00001C65119E0140E000152
:10496000C65D15E201010101FF51020B10E18290C9
:104970000001CA0EF16F000EF26FF1C0E9FFF2C044
:10498000EAFFEF50C96E0001C82B0101FF8366D01A
:1049900068C1C6F069C1C7F06AC1C8F06BC1C9F08F
:1049A0006CC1CAF06DC1CBF06EC1CCF06FC1CDF05F
:1049B00070C1CEF071C1CFF072C1D0F073C1D1F02F
:1049C00074C1D2F075C1D3F076C1D4F077C1D5F0FF
:1049D0000001D890F05104E6200EEF5D4E0EF05924
:1049E00020E2D8C1C6F0D9C1C7F0DAC1C8F0DBC136
:1049F000C9F0DCC1CAF0DDC1CBF0DEC1CCF0DFC153
:104A0000CDF0E0C1CEF0E1C1CFF0E2C1D0F0E3C122
:104A1000D1F0E4C1D2F0E5C1D3F0E6C1D4F0E7C1F2
:104A2000D5F00001C65119E0140E0001C65D15E273
:104A300001010101FF51020B10E182900001CA0E39
:104A4000F16F000EF26FF1C0E9FFF2C0EAFFEF5024
:104A5000C96E0001C82B0101FF8300D00001640E64
:104A6000ED1901E1EE5103E10001ED6BEE6B000188
:104A7000D890F05104E6200EEF5D4E0EF05904E39D
:104A80000001EF07000EF05BCC6A9E92F0A050D0C0
:104A90000101FEAF3AD0D880030E0001E555000EAB
:104AA000E655000EE755000EE85502E20001D981F7
:104AB000010E1F0BD9C0D9F0DAC0DAF0DBC0DBF091
:104AC000DCC0DCF008E00001D890D937DA37DB37FA
:104AD000DC37E806F9E10001E12B000EE223E323D5
:104AE000E423200E0001E11905E1E25103E1E35165
:104AF00001E1E4510AE1D9C061F0DAC062F0DBC043
:104B000063F0DCC064F00101FE9F0001DD6BDE6B31
:104B1000DF6BE06B0001E56BE66BE76BE86B0001B8
:104B2000E96BEA6BEB6BEC6B0101FE95CD80F090CD
:104B30009EA092D0D8900001E051000A08E6200E15
:104B4000DD5D000EDE59000EDF59000EE05921E256
:104B5000010E1F0BE5C0E5F0E6C0E6F0E7C0E7F0A8
:104B6000E8C0E8F008E00001D890E537E637E7371D
:104B7000E837E806F9E18150020B01E0010E1B6EF7
:104B800000011B500001E513000EE613E713E813C4
:104B900020D0010E1F0BE9C0E9F0EAC0EAF0EBC03B
:104BA000EBF0ECC0ECF008E00001D890E937EA3710
:104BB000EB37EC37E806F9E18150020B01E0010E1A
:104BC0001B6E00011B500001E913000EEA13EB13EA
:104BD000EC130001DD2B000EDE23DF23E0230001B8
:104BE000E035000EE01909E6D880280EDD55000EEC
:104BF000DE55000EDF55000EE05527E201010101F0
:104C0000FE51800B22E1CD90100E0001E55D000EFB
:104C1000E659000EE759000EE85917E2D880F40E65
:104C20000001E955010EEA55000EEB55000EEC555A
:104C30000CE20101FE8F0001E16BE26BE36BE46BC0
:104C40000001D96BDA6BDB6BDC6B0101FE87F40EC4
:104C5000CF6E470ECE6E9E90E552E5CFEAFFE5CFD0
:104C6000E9FFE5CFDAFFE550E5CFE0FFE5CFD8FF7C
:104C70001000D8CFE4FFE0CFE4FFE46EDACFE4FF2A
:104C8000E2CFDAFFE652F2A407D00101FE83B30EB1
:104C9000D76EB40ED66EF294E552E5CFDAFFE5504A
:104CA000E5CFE0FFE5CFD8FF1000D9CFE6FFE1CF99
:104CB000D9FF040EE126F9EC2FF00DEC30F021ECD9
:104CC00030F02BEC30F017EC30F00101FE910101D7
:104CD000FE930101FE970101FE950101FE8B01018A
:104CE000FE8D0101FE9F0101FF950101FF91010170
:104CF000FF970101FF990101146B0101006B010194
:104D0000286B0101386B0101486B0101586B838CE2
:104D1000838E82800001ED6BEE6B0001200EEF6F41
:104D20004E0EF06F38EC13F0F7EC13F013EC12F0BA
:104D300033EC30F00001616B626B636B646B34ECDD
:104D400014F0829E020EDB6A030EDB6A020EDBCFDA
:104D500014F0030EDBCF15F0D890155004E6020EC8
:104D6000145C000E15580AE2E66A6AEC31F0E5526E
:104D7000020EDB2A030E01E3DB2AE8D7FAEC2CF063
:104D8000020EDB6A030EDB6A020EDBCF14F0030EA9
:104D9000DBCF15F0D890155004E63A0E145C000EE7
:104DA00015580AE2E66A6AEC31F0E552020EDB2A97
:104DB000030E01E3DB2AE8D78EEC1DF0FDD7040ECD
:104DC000E15C02E2E16AE552E16EE552E7CFD9FF2C
:024DD0001200CF
:0E4DD20025EC2CF0FB0EDBCFF3FFDB06F350DD
:104DE00000090AE073EC2CF0FA0EDEEC2CF0F3E193
:104DF000151CF1E1010E01D0000E54EF2CF025EC52
:104E00002CF03B0EE12402E3E168E652E16E010E74
:104E1000DB6A020EDB6AF90EDBCFF6FFFA0EDBCFA0
:104E2000F7FFFB0EDBCFF8FF0800F550DF6EDF5019
:104E300002E178EF2BF0250EDF5C02E06BEF2BF048
:104E4000030EDB6A040EDB6A050EDB6A060EDB6A04
:104E5000070EDB6A8DEC2BF02D0EDF5C0CE02B0EC9
:104E6000DF5C09E0200EDF5C06E0230EDF5C03E080
:104E7000300EDF5C1AE1DF50300A14E0130A0FE055
:104E8000030A0AE00B0A05E0060AE4E1030EDB80F0
:104E9000E1D7030EDB82DED7030EDB84DBD7030E04
:104EA000DB86D8D7030EDB88D5D72A0EDF5C1BE163
:104EB00089EC2BF0D7EC2BF010E0030EDB800868B8
:104EC0000968130EDBCF0DF0140EDBCF0EF0EFEC04
:104ED00030F0040E06C0DBFF03D0130EC0EC2BF045
:104EE0008DEC2BF00BD0090EDB6A2EEC2CF003E0DE
:104EF000A2EC2CF0FAD7090EC0EC2BF0030EDBB0BD
:104F0000DB982E0EDF5C1BE18DEC2BF02A0EDF5CB4
:104F10000BE189EC2BF0D7EC2BF003E1130E12EC34
:104F20002CF08DEC2BF00BD0090EDB6A2EEC2CF064
:104F300003E0A2EC2CF0FAD7090E12EC2CF0680E6C
:104F4000DF5C07E18DEC2BF0680EDF5C1DE1030EEA
:104F500018D0740EDF5C17E07A0EDF5C14E0480EA8
:104F6000DF5C06E0540EDF5C03E05A0EDF5C02E11A
:104F7000020E07D06C0EDF5C03E06A0EDF5C04E11A
:104F8000010E65EC2CF0C9DBDF506E0A01E17FD326
:104F90001E0A01E192D1200A01E18FD13F0A01E10D
:104FA00049D11A0A01E146D10D0A01E143D1200A93
:104FB00001E140D13A0A01E13DD1200A01E13AD1B3
:104FC000260A01E135D10D0A01E132D11A0A01E1C7
:104FD000D9D0200A4AE0300A1FE0460A0EE0250A2E
:104FE00001E083D3D950F90FE96EFF0EDA20EA6EA3
:104FF000010EEE5E000EEE5AEE5A73EC2CF0250E0A
:10500000E66E95DB03E1151C01E169D36FEC2CF032
:1050100001E26BD3DB2A69D3080EDB6A040EDB5096
:10502000010806E2040EDB0437EC2CF0DB508BDBCE
:10503000080EDB5009E0030EDB50010B05E172DBCB
:1050400001E04DD3080EDB6A64DBEFCFDFFFE7EC56
:105050002CF003E1151C01E142D36FEC2CF001E3CD
:10506000DB2A60DB01E141D33AD3070EDB500208B3
:105070000FE1B3EC2CF0030E7AEC2CF00E0EEECF19
:10508000DBFF0F0EEECFDBFF100EEECFDBFF20D0ED
:10509000F70EDBCF17F0F80EDBCF18F0020E175E1D
:1050A000000E185AF70E17C0DBFFF80E18C0DBFF12
:1050B00017C0E9FF18C0EAFF6AEC2CF0166A0E0E62
:1050C00014C0DBFF0F0E15C0DBFF100E16C0DBFF98
:1050D0000E0EDBCFE6FF0F0EDBCFE6FF100EDBCFB1
:1050E000E6FFCAEC30F0E552E552E552130E07C078
:1050F000DBFF140E08C0DBFF060EDB5005E0130ECD
:10510000AEEC2CF001E26ADBD2EC2CF002E2130EE2
:1051100037DB95EC2CF006E0040EAEEC2CF002E24E
:10512000050E2EDB030EDBB005D0FCDA01E0D7D292
:10513000080EDB6A090EDB6A0E0EDBCFF6FF0F0EE0
:10514000DBCFF7FF100EDBCFF8FF0800F550DF6E66
:10515000DF5014E0D8EC2CF011E2E7EC2CF003E186
:10516000151C01E1BCD2BBDB01E3DB2A090EDB2A03
:10517000D9500E0FE96E000ECBDBE7D7D3DA01E191
:10518000B4D2ADD2C6DA110EEECFDBFF120EEDCFE8
:10519000DBFF110EDBCFE6FF120EDBCFE6FFBCEC30
:1051A00030F0E552E552130EF3CFDBFF140EF4CFCF
:1051B000DBFF060EDB5004E0130ED0DB01E20EDB5A
:1051C000D2EC2CF002E2130EDBDAAFDB05E0040ECA
:1051D000C5DB02E2050ED4DA030EDBB005D0A2DA9D
:1051E00001E07DD2080EDB6A090EDB6A110EDBCF0F
:1051F000E9FF120EDBCFEAFFEFCFDFFFDF5014E055
:10520000D7DB12E2E4DB03E1151C01E168D267DBC6
:1052100001E3DB2A090EDB2A110EDB2ADBCFE9FFD3
:10522000120EE8E3DB2AE6D77DDA01E15ED257D23F
:10523000030EDB8E070EDB0410E195DB040E5ADB58
:105240000A0EEECFDBFF0B0EEECFDBFF0C0EEECF28
:10525000DBFF0D0EEECFDBFF6CD0070EDB5003083B
:105260002CE1030EDBAE0DD0B2DA020E76DAEFCF10
:1052700014F0156A166A176A14AE39D015681668E4
:1052800035D0F70EDBCF15F0F80EDBCF16F0020E9F
:10529000155E000E165AF70E15C0DBFFF80E16C08D
:1052A000DBFF15C0E9FF16C0EAFFEFCF14F00A0ECE
:1052B00014C0DBFF0B0EDB6A38D0070EDB50020890
:1052C00009E1030EDBAE04D059DB16AE10D00ED0D0
:1052D00055DB0DD0030EDBAE12D079DA020E3DDACB
:1052E000F9DA166A176A15AE02D016681768E2DA9C
:1052F0000C0E16C0DBFF0D0E17C0DBFF1AD0F70E29
:10530000DBCF16F0F80EDBCF17F0020E165E000EA4
:10531000175AF70E16C0DBFFF80E17C0DBFF16C0DA
:10532000E9FF17C0EAFFD6DAC5DA0C0EDB6A0D0E0C
:10533000DB6A060EDB5005E1010EF36E050EF3CFBE
:10534000DBFF150EDB6A160EDB6AD950370F146EC1
:10535000000EDA20156E390E14C0DBFF3A0E15C0B0
:10536000DBFF380EDB6A080EDB6A0A0EAEDADF50AE
:10537000780A12E0200A10E0280A0CE0200A0AE06D
:105380003F0A06E00D0A02E0200A08E1020E05D0FD
:10539000080E03D0080EDF26100E97DA030EDBBED0
:1053A00002D0DB92DB94DB50800B24E08ADAD890C9
:1053B000030EEB50000A08E6000EEE5C000EEE58FD
:1053C000000EEE58000EEE5815E213DA0B680C686A
:1053D0000D680E6884EC30F00A0E02C0DBFF0B0E85
:1053E00003C0DBFF0C0E04C0DBFF0D0E05C0DBFFAE
:1053F0002D0E08D0030EDBA202D02B0E03D0DBA4AF
:1054000008D0200EF36E170EF3CFDBFF150EDB2A4C
:1054100002D0170EDB6A050EDB5003E1B7D901E1BC
:1054200089D0940E146E630E156E000E166E070E64
:10543000DBCF17F0186A196A1A6A17C00BF018C088
:105440000CF019C00DF01AC00EF0D3D946EC31F0B3
:1054500014500224F36E15500320F46E16500420ED
:10546000F86EF4CFF7FFF3CFF6FF0800090EF5CF83
:10547000DBFF580EDF5C0FE1610EF36E090E7BD986
:105480000AE3200E146E090EDBCFE7FF1450E75E2F
:10549000090EE7CFDBFF070EDBCF14F0156A166AA3
:1054A000176A0FDA14C00BF015C00CF016C00DF01F
:1054B00017C00EF0EECF06F0EECF07F0EECF08F0FB
:1054C000EFCF09F046EC31F009C0EDFF08C0EDFF69
:1054D00007C0EDFF06C0EFFF390EDBCFE9FFDB06AB
:1054E0003A0EDBCFEAFF01E2DB06090EDBCFEFFF6E
:1054F000150EDB2A4BD995E1030EDBA61DD06F0EEE
:10550000DF5C06E1C1D918E3150EDB285BDA14D0A5
:10551000780EDF5C09E0580EDF5C06E0620EDF5CAF
:1055200003E0420EDF5C08E1020EF36E160EF3CFCD
:10553000DBFF02D0150EDB6A030EDB50100B0EE012
:10554000040EDBCF14F0050EDB50D880145406E2B5
:10555000060EDB5003E1040EDB5034DA95D90AE283
:10556000050EDBCFE7FF150EDB50E75E050EE7CF3C
:10557000DBFF02D0050EDB6A040EDBCF14F0160E43
:1055800045D9D880145414E2160EDBCFE6FF150E71
:10559000DBCFE6FF040EDBCFE6FF050EDB50E55266
:1055A000E75CE552D880E754E552D880E7545FD9EC
:1055B000030EDB50010B0BE1080EDB5008E0B2D804
:1055C00001E08DD0080EDB50BED8080EDB6A170E46
:1055D000DB5007E088D9170EF1D903E1151C01E172
:1055E0007ED0160EDB5016E07ED9300EE66E9FD8C8
:1055F00002E1151C74E077D9DFCFE6FF42EC30F012
:10560000E552E552E552F4CF15F00001F31C02E13A
:10561000151C65E0050EDBCF14F0160EDB50D880AC
:10562000145409E2050EDBCFE7FF160EDB50E75EF0
:10563000050EE7CFDBFF300EE66E050ECBD94FE14E
:10564000390EDB2ADBCFE9FF3A0E01E3DB2ADBCFA1
:10565000EAFF090EEFCFDBFFDB500EE044D9090E65
:10566000ADD902E1151C3BE0390EDB2ADBCFE9FFA7
:105670003A0EEDE3DB2AEBD755D831E1160EDBCF3E
:10568000E6FF080EC3D8E552E7245DD82ED0070EFA
:10569000DB50030A1CE0010A14E0030A07E07BD98F
:1056A000DBCFEEFF020EDBCFEDFF1FD0F5D8196A7E
:1056B00017AE02D0186819682CD8BCD819C0EEFFF4
:1056C00014D0EAD817BE186824D8B4D80ED063D93D
:1056D000DBCFEFFF0AD07BD905E1151C03E1F368AE
:1056E000F46810D0FCD801E3DB2A79D914EF27F055
:1056F000010EDBCF14F0020EDBCF15F014C0F3FF68
:1057000015C0F4FF3B0EE15C02E2E16AE552E16E96
:10571000CBD029D9020E7AEF2CF061D90800F550D0
:10572000DF6E1200200EE66E080EEAEF2CF042EC5F
:1057300030F0E552E552E552F3CF14F0F4CF15F016
:105740000001F31C1200146E156AD950010F4DD9D7
:105750001450EE261550ED221200185E000E195A54
:10576000F70E18C0DBFFF80E19C0DBFF18C0E9FF09
:1057700019C0EAFF1200DBCFF4FFF350F45C120013
:10578000DB50E76E040EE7CFDBFF12000A0EDBCF23
:1057900014F00B0EDBCF15F00C0EDBCF16F00D0E58
:1057A000DBCF17F014501510161017101200130E3F
:1057B000EECFDBFF140EEDCFDBFF130EDBCF14F0CB
:1057C000140EDBCF15F00001800E15141200F70E39
:1057D000DBCF18F0F80EDBCF19F01200050EDB500E
:1057E000E66ED950130F01D9E552E750EE6EED6A1F
:1057F00012000A0EDBCF06F00B0EDBCF07F00C0E0B
:10580000DBCF08F00D0EDBCF09F01200DBCFE6FF97
:10581000150EDBCFE6FF050EDB50E552E724E5521F
:10582000E7241200DB50CED8010EF36E060EF3CF44
:10583000DBFF1200EE50EFCFEAFFE96E16C0EEFF7D
:1058400017C0EEFF18C0EEFF1200D9CFE6FFDACF87
:10585000E6FFE1CFD9FFE2CFDAFF1200DFCFE6FFAC
:10586000E66A81EC31F0E552E552F3501200E76E42
:10587000080EE7CFDBFF1200EECF14F0EECF15F0ED
:10588000EFCF16F0176A1200050EDBCF14F0150EDD
:10589000DB50D88014541200010EDBCF16F0020E3C
:1058A000DBCF17F0186A1200E552E5CFDAFFE7CF39
:1058B000D9FF12000A0E14C0DBFF0B0E15C0DBFF70
:1058C0001200D9500A0FF5EF2CF0F36E070EF3CF4C
:1058D000DBFF1200EECF14F0EFCF15F01200010E37
:1058E000DB2A020E1200FC0EDBCFE6FFFD0EDBCF43
:1058F000E6FF1200145E000E155AF70E14C0DBFF0F
:10590000F80E15C0DBFF14C0E9FF15C0EAFF120056
:10591000DA20EA6EEF2AEECFF6FF000EEF22EECF8E
:10592000F7FFEF22EECFF8FF1200040EDBCFE6FF09
:10593000130EDB50E552E75C9ADFDB5004DF060E06
:10594000DB501200090EDB500A0DF350DF24D00F9C
:10595000E76E090EE7CFDBFF8DEF2BF0DB50F36E28
:10596000050EBBEF2BF0F70EDBCF14F0F80EDBCFFC
:1059700015F01200DFCFE6FF97EF2BF028DF030EC4
:10598000ECDE3CEF2CF0E9EC26F0E552E552E55276
:10599000E55200091200BDDEEE50EFCFEAFFE96EDE
:1059A000010E1200130EDB50F36E040EBBEF2BF052
:1059B000040EDB50F36E090EBBEF2BF0DBCFE6FFDE
:1059C00097EF2BF0E76E050EE7CFDBFF12008BDFC2
:1059D000BAEF2CF0DBCFE6FF86DFC3EF2CF0D95017
:1059E000F90FE96EFF0E88EF2CF0E96E000EDA2059
:0459F000EA6E120049
:0C59F4008698869686808682868483864C
:105A00008388838A8380020EE66E6AEC31F0E55269
:105A10008390640EE66EBFEC31F0E55283800A0E8F
:105A2000E66E6AEC31F0E5521200D9CFE6FFE1CF25
:105A3000D9FFE652966897688698868686948692FD
:105A400086808388010EE66EBFEC31F0E5528398C4
:105A500000008450DF6E838886988696DF5000D0E1
:105A6000E552E552E7CFD9FF1200D9CFE6FFE1CFEB
:105A7000D9FFE652966897688698868686948682CD
:105A800086908388010EE66EBFEC31F0E552839874
:105A900000008450DF6E838886988696DF5000D0A1
:105AA000E552E552E7CFD9FF1200D9CFE6FFE1CFAB
